{
  "_format": "hh-sol-artifact-1",
  "contractName": "ImovelSP",
  "sourceName": "contracts/ImovelSP.sol",
  "abi": [
    {
      "inputs": [],
      "stateMutability": "nonpayable",
      "type": "constructor"
    },
    {
      "inputs": [],
      "name": "AlreadyInitialized",
      "type": "error"
    },
    {
      "inputs": [],
      "name": "ApprovalCallerNotOwnerNorApproved",
      "type": "error"
    },
    {
      "inputs": [],
      "name": "DNAlreadyInitialized",
      "type": "error"
    },
    {
      "inputs": [],
      "name": "DNNotInitialized",
      "type": "error"
    },
    {
      "inputs": [],
      "name": "FnSelectorNotRecognized",
      "type": "error"
    },
    {
      "inputs": [],
      "name": "InsufficientAllowance",
      "type": "error"
    },
    {
      "inputs": [],
      "name": "InsufficientBalance",
      "type": "error"
    },
    {
      "inputs": [],
      "name": "InvalidUnit",
      "type": "error"
    },
    {
      "inputs": [],
      "name": "LinkMirrorContractFailed",
      "type": "error"
    },
    {
      "inputs": [],
      "name": "MirrorAddressIsZero",
      "type": "error"
    },
    {
      "inputs": [],
      "name": "NewOwnerIsZeroAddress",
      "type": "error"
    },
    {
      "inputs": [],
      "name": "NoHandoverRequest",
      "type": "error"
    },
    {
      "inputs": [],
      "name": "SenderNotMirror",
      "type": "error"
    },
    {
      "inputs": [],
      "name": "TokenDoesNotExist",
      "type": "error"
    },
    {
      "inputs": [],
      "name": "TotalSupplyOverflow",
      "type": "error"
    },
    {
      "inputs": [],
      "name": "TransferCallerNotOwnerNorApproved",
      "type": "error"
    },
    {
      "inputs": [],
      "name": "TransferFromIncorrectOwner",
      "type": "error"
    },
    {
      "inputs": [],
      "name": "TransferToZeroAddress",
      "type": "error"
    },
    {
      "inputs": [],
      "name": "Unauthorized",
      "type": "error"
    },
    {
      "anonymous": false,
      "inputs": [
        {
          "indexed": true,
          "internalType": "address",
          "name": "owner",
          "type": "address"
        },
        {
          "indexed": true,
          "internalType": "address",
          "name": "spender",
          "type": "address"
        },
        {
          "indexed": false,
          "internalType": "uint256",
          "name": "amount",
          "type": "uint256"
        }
      ],
      "name": "Approval",
      "type": "event"
    },
    {
      "anonymous": false,
      "inputs": [
        {
          "indexed": true,
          "internalType": "address",
          "name": "pendingOwner",
          "type": "address"
        }
      ],
      "name": "OwnershipHandoverCanceled",
      "type": "event"
    },
    {
      "anonymous": false,
      "inputs": [
        {
          "indexed": true,
          "internalType": "address",
          "name": "pendingOwner",
          "type": "address"
        }
      ],
      "name": "OwnershipHandoverRequested",
      "type": "event"
    },
    {
      "anonymous": false,
      "inputs": [
        {
          "indexed": true,
          "internalType": "address",
          "name": "oldOwner",
          "type": "address"
        },
        {
          "indexed": true,
          "internalType": "address",
          "name": "newOwner",
          "type": "address"
        }
      ],
      "name": "OwnershipTransferred",
      "type": "event"
    },
    {
      "anonymous": false,
      "inputs": [
        {
          "indexed": true,
          "internalType": "address",
          "name": "owner",
          "type": "address"
        },
        {
          "indexed": false,
          "internalType": "bool",
          "name": "status",
          "type": "bool"
        }
      ],
      "name": "SkipNFTSet",
      "type": "event"
    },
    {
      "anonymous": false,
      "inputs": [
        {
          "indexed": true,
          "internalType": "address",
          "name": "from",
          "type": "address"
        },
        {
          "indexed": true,
          "internalType": "address",
          "name": "to",
          "type": "address"
        },
        {
          "indexed": false,
          "internalType": "uint256",
          "name": "amount",
          "type": "uint256"
        }
      ],
      "name": "Transfer",
      "type": "event"
    },
    {
      "stateMutability": "payable",
      "type": "fallback"
    },
    {
      "inputs": [
        {
          "internalType": "uint256",
          "name": "",
          "type": "uint256"
        }
      ],
      "name": "_historicoTransacoes",
      "outputs": [
        {
          "internalType": "enum ImovelRWADN404.TipoTransacao",
          "name": "tipo",
          "type": "uint8"
        },
        {
          "internalType": "contract PessoaFisica",
          "name": "_comprador",
          "type": "address"
        },
        {
          "internalType": "contract PessoaFisica",
          "name": "_vendedor",
          "type": "address"
        },
        {
          "internalType": "uint256",
          "name": "valorBRL",
          "type": "uint256"
        },
        {
          "internalType": "uint256",
          "name": "valorETH",
          "type": "uint256"
        },
        {
          "internalType": "enum ImovelRWADN404.FormaPagamento",
          "name": "formaPagamento",
          "type": "uint8"
        }
      ],
      "stateMutability": "view",
      "type": "function"
    },
    {
      "inputs": [
        {
          "internalType": "address",
          "name": "owner",
          "type": "address"
        },
        {
          "internalType": "address",
          "name": "spender",
          "type": "address"
        }
      ],
      "name": "allowance",
      "outputs": [
        {
          "internalType": "uint256",
          "name": "",
          "type": "uint256"
        }
      ],
      "stateMutability": "view",
      "type": "function"
    },
    {
      "inputs": [
        {
          "internalType": "address",
          "name": "spender",
          "type": "address"
        },
        {
          "internalType": "uint256",
          "name": "amount",
          "type": "uint256"
        }
      ],
      "name": "approve",
      "outputs": [
        {
          "internalType": "bool",
          "name": "",
          "type": "bool"
        }
      ],
      "stateMutability": "nonpayable",
      "type": "function"
    },
    {
      "inputs": [
        {
          "internalType": "address",
          "name": "owner",
          "type": "address"
        }
      ],
      "name": "balanceOf",
      "outputs": [
        {
          "internalType": "uint256",
          "name": "",
          "type": "uint256"
        }
      ],
      "stateMutability": "view",
      "type": "function"
    },
    {
      "inputs": [],
      "name": "cancelOwnershipHandover",
      "outputs": [],
      "stateMutability": "payable",
      "type": "function"
    },
    {
      "inputs": [
        {
          "internalType": "address",
          "name": "pendingOwner",
          "type": "address"
        }
      ],
      "name": "completeOwnershipHandover",
      "outputs": [],
      "stateMutability": "payable",
      "type": "function"
    },
    {
      "inputs": [
        {
          "internalType": "address payable",
          "name": "enderecoComprador_",
          "type": "address"
        },
        {
          "internalType": "address payable",
          "name": "enderecoVendedor_",
          "type": "address"
        }
      ],
      "name": "compraEVendaTerreno",
      "outputs": [],
      "stateMutability": "payable",
      "type": "function"
    },
    {
      "inputs": [
        {
          "internalType": "address",
          "name": "enderecoComprador_",
          "type": "address"
        },
        {
          "internalType": "address",
          "name": "enderecoVendedor_",
          "type": "address"
        }
      ],
      "name": "criaTransacao",
      "outputs": [
        {
          "components": [
            {
              "internalType": "enum ImovelRWADN404.TipoTransacao",
              "name": "tipo",
              "type": "uint8"
            },
            {
              "internalType": "contract PessoaFisica",
              "name": "_comprador",
              "type": "address"
            },
            {
              "internalType": "contract PessoaFisica",
              "name": "_vendedor",
              "type": "address"
            },
            {
              "internalType": "uint256",
              "name": "valorBRL",
              "type": "uint256"
            },
            {
              "internalType": "uint256",
              "name": "valorETH",
              "type": "uint256"
            },
            {
              "internalType": "enum ImovelRWADN404.FormaPagamento",
              "name": "formaPagamento",
              "type": "uint8"
            }
          ],
          "internalType": "struct ImovelRWADN404.Transacao",
          "name": "t",
          "type": "tuple"
        }
      ],
      "stateMutability": "nonpayable",
      "type": "function"
    },
    {
      "inputs": [],
      "name": "decimals",
      "outputs": [
        {
          "internalType": "uint8",
          "name": "",
          "type": "uint8"
        }
      ],
      "stateMutability": "view",
      "type": "function"
    },
    {
      "inputs": [],
      "name": "getCaracterizacaoImovel",
      "outputs": [
        {
          "components": [
            {
              "internalType": "enum ImovelRWADN404.TipoImovel",
              "name": "tipo",
              "type": "uint8"
            },
            {
              "components": [
                {
                  "internalType": "string",
                  "name": "enderecocompleto",
                  "type": "string"
                }
              ],
              "internalType": "struct ImovelRWADN404.EnderecoPostal",
              "name": "enderecoPostal",
              "type": "tuple"
            },
            {
              "internalType": "uint32",
              "name": "areaTerreno",
              "type": "uint32"
            },
            {
              "internalType": "uint32",
              "name": "areaConstruida",
              "type": "uint32"
            },
            {
              "internalType": "string",
              "name": "descricao",
              "type": "string"
            },
            {
              "components": [
                {
                  "internalType": "uint256",
                  "name": "ano",
                  "type": "uint256"
                },
                {
                  "internalType": "uint256",
                  "name": "mes",
                  "type": "uint256"
                },
                {
                  "internalType": "uint256",
                  "name": "dia",
                  "type": "uint256"
                }
              ],
              "internalType": "struct ImovelRWADN404.Data",
              "name": "dataImovel",
              "type": "tuple"
            }
          ],
          "internalType": "struct ImovelRWADN404.CaracterizacaoImovel",
          "name": "c",
          "type": "tuple"
        }
      ],
      "stateMutability": "view",
      "type": "function"
    },
    {
      "inputs": [
        {
          "internalType": "address",
          "name": "owner",
          "type": "address"
        }
      ],
      "name": "getSkipNFT",
      "outputs": [
        {
          "internalType": "bool",
          "name": "",
          "type": "bool"
        }
      ],
      "stateMutability": "view",
      "type": "function"
    },
    {
      "inputs": [],
      "name": "getTitular",
      "outputs": [
        {
          "internalType": "contract PessoaFisica",
          "name": "",
          "type": "address"
        }
      ],
      "stateMutability": "view",
      "type": "function"
    },
    {
      "inputs": [
        {
          "internalType": "address",
          "name": "to",
          "type": "address"
        },
        {
          "internalType": "uint256",
          "name": "amount",
          "type": "uint256"
        }
      ],
      "name": "mint",
      "outputs": [],
      "stateMutability": "nonpayable",
      "type": "function"
    },
    {
      "inputs": [],
      "name": "mirrorERC721",
      "outputs": [
        {
          "internalType": "address",
          "name": "",
          "type": "address"
        }
      ],
      "stateMutability": "view",
      "type": "function"
    },
    {
      "inputs": [],
      "name": "name",
      "outputs": [
        {
          "internalType": "string",
          "name": "",
          "type": "string"
        }
      ],
      "stateMutability": "view",
      "type": "function"
    },
    {
      "inputs": [],
      "name": "owner",
      "outputs": [
        {
          "internalType": "address",
          "name": "result",
          "type": "address"
        }
      ],
      "stateMutability": "view",
      "type": "function"
    },
    {
      "inputs": [
        {
          "internalType": "address",
          "name": "pendingOwner",
          "type": "address"
        }
      ],
      "name": "ownershipHandoverExpiresAt",
      "outputs": [
        {
          "internalType": "uint256",
          "name": "result",
          "type": "uint256"
        }
      ],
      "stateMutability": "view",
      "type": "function"
    },
    {
      "inputs": [],
      "name": "renounceOwnership",
      "outputs": [],
      "stateMutability": "payable",
      "type": "function"
    },
    {
      "inputs": [],
      "name": "requestOwnershipHandover",
      "outputs": [],
      "stateMutability": "payable",
      "type": "function"
    },
    {
      "inputs": [
        {
          "internalType": "string",
          "name": "baseURI_",
          "type": "string"
        }
      ],
      "name": "setBaseURI",
      "outputs": [],
      "stateMutability": "nonpayable",
      "type": "function"
    },
    {
      "inputs": [
        {
          "components": [
            {
              "internalType": "enum ImovelRWADN404.TipoImovel",
              "name": "tipo",
              "type": "uint8"
            },
            {
              "components": [
                {
                  "internalType": "string",
                  "name": "enderecocompleto",
                  "type": "string"
                }
              ],
              "internalType": "struct ImovelRWADN404.EnderecoPostal",
              "name": "enderecoPostal",
              "type": "tuple"
            },
            {
              "internalType": "uint32",
              "name": "areaTerreno",
              "type": "uint32"
            },
            {
              "internalType": "uint32",
              "name": "areaConstruida",
              "type": "uint32"
            },
            {
              "internalType": "string",
              "name": "descricao",
              "type": "string"
            },
            {
              "components": [
                {
                  "internalType": "uint256",
                  "name": "ano",
                  "type": "uint256"
                },
                {
                  "internalType": "uint256",
                  "name": "mes",
                  "type": "uint256"
                },
                {
                  "internalType": "uint256",
                  "name": "dia",
                  "type": "uint256"
                }
              ],
              "internalType": "struct ImovelRWADN404.Data",
              "name": "dataImovel",
              "type": "tuple"
            }
          ],
          "internalType": "struct ImovelRWADN404.CaracterizacaoImovel",
          "name": "descricao_",
          "type": "tuple"
        }
      ],
      "name": "setCaracterizacaoImovel",
      "outputs": [],
      "stateMutability": "nonpayable",
      "type": "function"
    },
    {
      "inputs": [
        {
          "internalType": "address",
          "name": "enderecoComprador_",
          "type": "address"
        },
        {
          "internalType": "address",
          "name": "enderecoVendedor_",
          "type": "address"
        }
      ],
      "name": "setEnderecoPartes",
      "outputs": [],
      "stateMutability": "nonpayable",
      "type": "function"
    },
    {
      "inputs": [
        {
          "internalType": "bool",
          "name": "skipNFT",
          "type": "bool"
        }
      ],
      "name": "setSkipNFT",
      "outputs": [
        {
          "internalType": "bool",
          "name": "",
          "type": "bool"
        }
      ],
      "stateMutability": "nonpayable",
      "type": "function"
    },
    {
      "inputs": [
        {
          "internalType": "contract PessoaFisica",
          "name": "titular_",
          "type": "address"
        }
      ],
      "name": "setTitular",
      "outputs": [],
      "stateMutability": "nonpayable",
      "type": "function"
    },
    {
      "inputs": [],
      "name": "symbol",
      "outputs": [
        {
          "internalType": "string",
          "name": "",
          "type": "string"
        }
      ],
      "stateMutability": "view",
      "type": "function"
    },
    {
      "inputs": [],
      "name": "totalSupply",
      "outputs": [
        {
          "internalType": "uint256",
          "name": "",
          "type": "uint256"
        }
      ],
      "stateMutability": "view",
      "type": "function"
    },
    {
      "inputs": [
        {
          "internalType": "address",
          "name": "to",
          "type": "address"
        },
        {
          "internalType": "uint256",
          "name": "amount",
          "type": "uint256"
        }
      ],
      "name": "transfer",
      "outputs": [
        {
          "internalType": "bool",
          "name": "",
          "type": "bool"
        }
      ],
      "stateMutability": "nonpayable",
      "type": "function"
    },
    {
      "inputs": [
        {
          "internalType": "address",
          "name": "from",
          "type": "address"
        },
        {
          "internalType": "address",
          "name": "to",
          "type": "address"
        },
        {
          "internalType": "uint256",
          "name": "amount",
          "type": "uint256"
        }
      ],
      "name": "transferFrom",
      "outputs": [
        {
          "internalType": "bool",
          "name": "",
          "type": "bool"
        }
      ],
      "stateMutability": "nonpayable",
      "type": "function"
    },
    {
      "inputs": [
        {
          "internalType": "address",
          "name": "newOwner",
          "type": "address"
        }
      ],
      "name": "transferOwnership",
      "outputs": [],
      "stateMutability": "payable",
      "type": "function"
    },
    {
      "inputs": [],
      "name": "withdraw",
      "outputs": [],
      "stateMutability": "nonpayable",
      "type": "function"
    },
    {
      "stateMutability": "payable",
      "type": "receive"
    }
  ],
  "bytecode": "0x60806040523480156200001157600080fd5b5068056bc75e2d63100000336200002881620000f1565b604080518082019091526012815271125b5bdd995b081495d0481113904b4d0c0d60721b60208201526000906200006090826200049b565b50604080518082019091526009815268125495d051138d0c0d60ba1b60208201526001906200009090826200049b565b50600033604051620000a290620003e6565b6001600160a01b039091168152602001604051809103906000f080158015620000cf573d6000803e3d6000fd5b509050620000e86001600160601b03841683836200012d565b50505062000567565b6001600160a01b0316638b78c6d8198190558060007f8be0079c531659141344cd1fd0a4f28419497f9722a3daafe3b4186f6b6457e08180a350565b68a20d6e21d0e52553095468a20d6e21d0e5255308906001600160a01b0316156200016b57604051633ab534b960e21b815260040160405180910390fd5b6001600160a01b03821662000193576040516339a84a7b60e01b815260040160405180910390fd5b630f4599e560005233602052602060006024601c6000865af160016000511416620001c65763d125259c6000526004601cfd5b805463ffffffff60201b19166401000000001781556001810180546001600160a01b0384166001600160a01b03199091161790558315620002e9576001600160a01b0383166200022957604051633a954ecd60e21b815260040160405180910390fd5b606084901c670de0b6b3a7640000850463fffffffe1017156200025f5760405163e5cfe95760e01b815260040160405180910390fd5b80546001600160a01b0316600160a01b6001600160601b0386160217815560006200028a84620002ef565b80546001600160601b038716600160a01b026001600160a01b0391821617825560008781529192508516907fddf252ad1be2c89b69c2b068fc378daa952ba7f163c4a11628f55a4df523b3ef602082a3620002e784600162000355565b505b50505050565b6001600160a01b038116600090815268a20d6e21d0e52553136020526040902080546b01000000000000000000000090046001166200035057805460ff60581b19166b01000000000000000000000060ff843b151560020260011716021781555b919050565b60006200036283620002ef565b80549091506b0100000000000000000000009004600216151582151514620003ae57805460ff6b01000000000000000000000080830482166002189091160260ff60581b199091161781555b8115156000528260601b60601c7fb5a1de456fff688115a4f75380060c23c8532d14ff85f687cc871456d642039360206000a2505050565b610d8b806200463683390190565b634e487b7160e01b600052604160045260246000fd5b600181811c908216806200041f57607f821691505b6020821081036200044057634e487b7160e01b600052602260045260246000fd5b50919050565b601f82111562000496576000816000526020600020601f850160051c81016020861015620004715750805b601f850160051c820191505b8181101562000492578281556001016200047d565b5050505b505050565b81516001600160401b03811115620004b757620004b7620003f4565b620004cf81620004c884546200040a565b8462000446565b602080601f831160018114620005075760008415620004ee5750858301515b600019600386901b1c1916600185901b17855562000492565b600085815260208120601f198616915b82811015620005385788860151825594840194600190910190840162000517565b5085821015620005575787850151600019600388901b60f8161c191681555b5050505050600190811b01905550565b6140bf80620005776000396000f3fe608060405260043610620001ff5760003560e01c806355f804b3116200010f57806399873b6111620000a3578063f04e283e116200006d578063f04e283e14620008c6578063f2fde38b14620008dd578063f5cd84e014620008f4578063fee81cf4146200091b5762000213565b806399873b611462000805578063a9059cbb146200082a578063b719d1fc146200084f578063dd62ed3e14620008835762000213565b8063715018a611620000e5578063715018a614620007a857806382f90ef414620007b25780638da5cb5b14620007d257806395d89b4114620007ed5762000213565b806355f804b314620006f857806357d09b86146200071d57806370a0823114620007565762000213565b80632a6a935d116200019357806340c10f19116200015d57806340c10f19146200066857806340dca4b1146200068d5780634ef41efc14620006b257806354d1f13d14620006ee5762000213565b80632a6a935d14620005f65780632d33f8ad146200061b578063313ce56714620006325780633ccfd60b14620006505762000213565b80631c3a01b311620001d55780631c3a01b3146200057d57806323b872dd14620005a25780632569296214620005c7578063274e430b14620005d15762000213565b806306fdde0314620004de578063095ea7b3146200050e57806318160ddd14620005445762000213565b36620002135734156200021157600080fd5b005b68a20d6e21d0e525530860003560e01c63e5eb36c8819003620002805760018201546001600160a01b031633146200025e5760405163ce5a776b60e01b815260040160405180910390fd5b6200027460043560243560443560643562000952565b62000280600162000d06565b8063813500fc03620002f05760018201546001600160a01b03163314620002ba5760405163ce5a776b60e01b815260040160405180910390fd5b600435602890815260443560145268a20d6e21d0e525530b600090815260488120915260243515159055620002f0600162000d06565b8063e985e9c5036200031f5760006200030e60043560243562000d10565b90506200031d81151562000d06565b505b80636352211e036200034b576200034b6200033c60043562000d39565b6001600160a01b031662000d06565b806324359879036200036857620003686200033c60043562000d6a565b8063d10b6e0c03620003cf5760018201546001600160a01b03163314620003a25760405163ce5a776b60e01b815260040160405180910390fd5b6000620003b760043560243560443562000dc9565b9050620003cd816001600160a01b031662000d06565b505b8063081812fc03620003ec57620003ec6200033c60043562000eb5565b8063f5b100ea0362000433576001600160a01b0360043516600090815268a20d6e21d0e525531360205260409020546200043390600160801b900463ffffffff1662000d06565b8063e2c7928103620004625768a20d6e21d0e5255308546200046290600160801b900463ffffffff1662000d06565b8063c87b56dd03620004ad5760206040510160405260006200048d6200048760043590565b62000f04565b90506020810360408251016000818301526020825280601f01601f191682f35b8063b7a94eb803620004c557620004c5600162000d06565b604051631e085ca760e11b815260040160405180910390fd5b348015620004eb57600080fd5b50620004f662000f54565b60405162000505919062002f40565b60405180910390f35b3480156200051b57600080fd5b50620005336200052d36600462002f6b565b62000fee565b604051901515815260200162000505565b3480156200055157600080fd5b5068a20d6e21d0e525530854600160a01b90046001600160601b03165b60405190815260200162000505565b3480156200058a57600080fd5b50620002116200059c36600462003162565b62001006565b348015620005af57600080fd5b5062000533620005c13660046200324c565b620010cb565b620002116200113d565b348015620005de57600080fd5b5062000533620005f036600462003292565b6200118d565b3480156200060357600080fd5b506200053362000615366004620032c1565b620011db565b620002116200062c366004620032e1565b620011f1565b3480156200063f57600080fd5b506040516012815260200162000505565b3480156200065d57600080fd5b5062000211620013f6565b3480156200067557600080fd5b50620002116200068736600462002f6b565b6200140d565b3480156200069a57600080fd5b5062000211620006ac36600462003292565b62001427565b348015620006bf57600080fd5b5068a20d6e21d0e5255309546001600160a01b03165b6040516001600160a01b03909116815260200162000505565b6200021162001453565b3480156200070557600080fd5b5062000211620007173660046200331f565b6200148f565b3480156200072a57600080fd5b50620007426200073c36600462003396565b620014ad565b6040516200050596959493929190620033ec565b3480156200076357600080fd5b506200056e6200077536600462003292565b6001600160a01b0316600090815268a20d6e21d0e52553136020526040902054600160a01b90046001600160601b031690565b6200021162001508565b348015620007bf57600080fd5b506003546001600160a01b0316620006d5565b348015620007df57600080fd5b50638b78c6d81954620006d5565b348015620007fa57600080fd5b50620004f66200151e565b3480156200081257600080fd5b506200021162000824366004620032e1565b6200152f565b3480156200083757600080fd5b50620005336200084936600462002f6b565b620015ed565b3480156200085c57600080fd5b50620008746200086e366004620032e1565b620015fc565b6040516200050591906200343f565b3480156200089057600080fd5b506200056e620008a2366004620032e1565b602890815260149190915268a20d6e21d0e525530f60009081526048812091525490565b62000211620008d736600462003292565b6200174f565b62000211620008ee36600462003292565b62001794565b3480156200090157600080fd5b506200090c620017c0565b604051620005059190620034a8565b3480156200092857600080fd5b506200056e6200093a36600462003292565b63389a75e1600c908152600091909152602090205490565b6001600160a01b0383166200097a57604051633a954ecd60e21b815260040160405180910390fd5b68a20d6e21d0e52553095468a20d6e21d0e5255308906001600160a01b0316620009b75760405163040739bf60e41b815260040160405180910390fd5b600a810160028201600062000a0283620009de600160201b891089025b6000190160011b90565b60008160031c8360601b0180546007841660051b1c63ffffffff1691505092915050565b63ffffffff1681526020810191909152604001600020546001600160a01b0387811691161462000a445760405162a1148160e81b815260040160405180910390fd5b856001600160a01b0316836001600160a01b03161462000aac5762000a6a868462000d10565b62000aac57826001600160a01b031662000a848562000eb5565b6001600160a01b03161462000aac57604051632ce44b5f60e11b815260040160405180910390fd5b6001600160a01b038681166000908152600b84016020526040808220928816825290208154670de0b6b3a7640000906008860190600160a01b90046001600160601b03168083111562000b1257604051631e9acf1760e31b815260040160405180910390fd5b84546001600160601b03918490038216600160a01b9081026001600160a01b039283161787558554818104841686019093160291161783556005860160601b600889901c015460ff89161c6001161562000b9f576005860160601b600889901c018054600160ff8b161b191690556000888152600487016020526040902080546001600160a01b03191690555b6001600160a01b038a166000908152602082905260408120855460001963ffffffff600160801b80840482169290920180821690920263ffffffff60801b19909316929092178855600381901c631fffffff16606084901b015492939260059190911b60e0161c169050600062000c21886000198d01600190811b01620009de565b905062000c36838263ffffffff1684620019ad565b62000c538860001963ffffffff851601600190811b0183620019ad565b5050835463ffffffff60801b198116600160801b9182900463ffffffff908116600181019091169092021785556001600160a01b038b16600090815260208490526040902090915062000ca890828b620019ad565b62000cc1868a62000cba878e620019d8565b8462001a67565b50816000528860601b60601c8a60601b60601c7fddf252ad1be2c89b69c2b068fc378daa952ba7f163c4a11628f55a4df523b3ef60206000a350505050505050505050565b8060005260206000f35b6028818152601483905268a20d6e21d0e525530b60009081526048812091525415155b92915050565b600062000d468262001aaa565b62000d645760405163677510db60e11b815260040160405180910390fd5b62000d33825b600068a20d6e21d0e525530868a20d6e21d0e525530a8262000da268a20d6e21d0e5255312620009de600160201b88108802620009d4565b63ffffffff1681526020810191909152604001600020546001600160a01b03169392505050565b600068a20d6e21d0e525530868a20d6e21d0e525530a8262000e0168a20d6e21d0e5255312620009de600160201b89108902620009d4565b63ffffffff1681526020810191909152604001600020546001600160a01b0390811692508316821462000e585762000e3a828462000d10565b62000e58576040516367d9dca160e11b815260040160405180910390fd5b6000848152600482016020526040902080546001600160a01b0319166001600160a01b0387169081179091556005820160601b600886901c018054600160ff881690811b1991909116921515901b9190911790555b509392505050565b600062000ec28262001aaa565b62000ee05760405163677510db60e11b815260040160405180910390fd5b50600090815268a20d6e21d0e525530c60205260409020546001600160a01b031690565b60606002805462000f159062003556565b15905062000f4f57600262000f2a8362001ac9565b60405160200162000f3d92919062003592565b60405160208183030381529060405290505b919050565b60606000805462000f659062003556565b80601f016020809104026020016040519081016040528092919081815260200182805462000f939062003556565b801562000fe45780601f1062000fb85761010080835404028352916020019162000fe4565b820191906000526020600020905b81548152906001019060200180831162000fc657829003601f168201915b5050505050905090565b600062000ffd33848462001b0e565b50600192915050565b6200101062001b70565b805160048054839290829060ff19166001836002811115620010365762001036620033b0565b021790555060208201518051600183019081906200105590826200366f565b5050506040820151600282018054606085015163ffffffff908116600160201b0267ffffffffffffffff1990921693169290921791909117905560808201516003820190620010a590826200366f565b5060a0919091015180516004830155602081015160058301556040015160069091015550565b336028908152601484905268a20d6e21d0e525530f60009081526048812091819052815490919060001981146200112457808411156200111e576040516313be252b60e01b815260040160405180910390fd5b83810382555b6200113186868662001b8c565b50600195945050505050565b60006202a30067ffffffffffffffff164201905063389a75e1600c5233600052806020600c2055337fdbf36a107da19e49527a7176a1babf963b4b0ff8cde35ee35d6cd8f1f9ac7e1d600080a250565b6001600160a01b038116600090815268a20d6e21d0e5255313602052604081208054600160581b9004600116620011c857823b5b9392505050565b54600160581b9004600216151592915050565b6000620011e9338362002471565b506001919050565b6000620011ff8383620015fc565b60808101516040516323b872dd60e01b81526001600160a01b038087166004830181905290861660248301526044820183905292935090918591600091906323b872dd906064016020604051808303816000875af115801562001266573d6000803e3d6000fd5b505050506040513d601f19601f820116820180604052508101906200128c91906200373c565b905080620012e05760405162461bcd60e51b815260206004820152601a60248201527f46616c686120616f20656e7669617220706167616d656e746f21000000000000604482015260640160405180910390fd5b8015620013ee57600b805460018181018355600092909252855160059091027f0175b7a638427703f0dbe7bb9bbf987a2551717b34e79f33b5b1008d1fa01db90180548793919291839160ff191690836002811115620013445762001344620033b0565b021790555060208201518154610100600160a81b0319166101006001600160a01b03928316021782556040830151600180840180546001600160a01b031916929093169190911790915560608301516002830155608083015160038084019190915560a08401516004840180549193909260ff19909216918490811115620013d057620013d0620033b0565b021790555050600c54620013ee91506001600160a01b031662001427565b505050505050565b6200140062001b70565b6200140b33620024f2565b565b6200141762001b70565b6200142382826200250f565b5050565b6200143162001b70565b600380546001600160a01b0319166001600160a01b0392909216919091179055565b63389a75e1600c523360005260006020600c2055337ffa7b8eab7da67f412cc9575ed43464468f9bfbae89d1675917346ca6d8fe3c92600080a2565b6200149962001b70565b6002620014a88284836200375c565b505050565b600b8181548110620014be57600080fd5b60009182526020909120600590910201805460018201546002830154600384015460049094015460ff80851696506101009094046001600160a01b03908116959316939192911686565b6200151262001b70565b6200140b600062002912565b60606001805462000f659062003556565b600c54604051630718040d60e51b81526001600160a01b0384811660048301529091169063e30081a090602401600060405180830381600087803b1580156200157757600080fd5b505af11580156200158c573d6000803e3d6000fd5b5050600d54604051630718040d60e51b81526001600160a01b038581166004830152909116925063e30081a09150602401600060405180830381600087803b158015620015d857600080fd5b505af1158015620013ee573d6000803e3d6000fd5b600062000ffd33848462001b8c565b6200160662002e33565b6200161283836200152f565b6200161c62002950565b62001626620029f7565b600c54604051635d82e18760e11b8152600160048201526001600160a01b039091169063bb05c30e90602401600060405180830381600087803b1580156200166d57600080fd5b505af115801562001682573d6000803e3d6000fd5b5050600d54604051635d82e18760e11b8152600160048201526001600160a01b03909116925063bb05c30e9150602401600060405180830381600087803b158015620016cd57600080fd5b505af1158015620016e2573d6000803e3d6000fd5b5050600d54620016fe92506001600160a01b0316905062001427565b50506040805160c08101825260008152600c546001600160a01b039081166020830152600d5416918101919091526305f5e100606082015266de665e4af080006080820152600360a0820152919050565b6200175962001b70565b63389a75e1600c52806000526020600c2080544211156200178257636f5e88186000526004601cfd5b60009055620017918162002912565b50565b6200179e62001b70565b8060601b620017b557637448fbae6000526004601cfd5b620017918162002912565b620017ca62002e69565b6040805160c0810190915260048054829060ff166002811115620017f257620017f2620033b0565b6002811115620018065762001806620033b0565b8152602001600182016040518060200160405290816000820180546200182c9062003556565b80601f01602080910402602001604051908101604052809291908181526020018280546200185a9062003556565b8015620018ab5780601f106200187f57610100808354040283529160200191620018ab565b820191906000526020600020905b8154815290600101906020018083116200188d57829003601f168201915b505050919092525050508152600282015463ffffffff8082166020840152600160201b909104166040820152600382018054606090920191620018ee9062003556565b80601f01602080910402602001604051908101604052809291908181526020018280546200191c9062003556565b80156200196d5780601f1062001941576101008083540402835291602001916200196d565b820191906000526020600020905b8154815290600101906020018083116200194f57829003601f168201915b5050505050815260200160048201604051806060016040529081600082015481526020016001820154815260200160028201548152505081525050905090565b8160031c8360601b016007831660051b815480821c841863ffffffff16821b81188355505050505050565b8154600160601b900463ffffffff1668a20d6e21d0e52553088162001a6057805463ffffffff198116600163ffffffff928316019182169081178355855463ffffffff60601b1916600160601b82021786556000818152600284016020526040902080546001600160a01b0319166001600160a01b03871617905590925062001a6057600080fd5b5092915050565b600183038060021c8560601b0180546003831660061b92508463ffffffff168460201b178082851c1867ffffffffffffffff16841b821883555050505050505050565b60008062001ab88362000d6a565b6001600160a01b0316141592915050565b60606080604051019050602081016040526000815280600019835b928101926030600a8206018453600a90048062001ae4575050819003601f19909101908152919050565b6028828152601484905268a20d6e21d0e525530f600090815260488120915281905560008181526001600160a01b0380841691908516907f8c5be1e5ebec7d5bd14f71427d1e84f3dd0314c0f7b2291e5b200ac8c7c3b92590602090a3505050565b638b78c6d8195433146200140b576382b429006000526004601cfd5b6001600160a01b03821662001bb457604051633a954ecd60e21b815260040160405180910390fd5b6001600160a01b038316600090815268a20d6e21d0e52553136020526040812068a20d6e21d0e52553089162001bea8562002c1d565b60018401549091506001600160a01b031662001c195760405163040739bf60e41b815260040160405180910390fd5b62001c7c60405180610140016040528060008152602001600081526020016000815260200160008152602001600081526020016000815260200160008152602001600063ffffffff16815260200160008152602001600063ffffffff1681525090565b825463ffffffff600160801b808304821660408501528454041660608301526001600160601b03600160a01b909104168086111562001cce57604051631e9acf1760e31b815260040160405180910390fd5b83546001600160601b0391879003828116600160a01b9081026001600160a01b03938416178755855481810485168a019485169091029216919091178455604083015190919062001d449062001d29670de0b6b3a764000090565b848162001d3a5762001d3a6200382a565b0480821191030290565b83528354600160581b900460021662001da257876001600160a01b0316896001600160a01b03160362001d7f57825160408401510360608401525b62001d9c670de0b6b3a76400008204846060015180821191030290565b60208401525b505062001dad600190565b1562001ff257600062001de2826040015162001dd784600001518560200151808218908211021890565b808218908211021890565b90508062001df1575062001ff2565b8151819003825260208201805182900390526001600160a01b038088169089160362001e2857606082018051909101905262001ff2565b600062001e90828a8a6040805180820182526000815260606020808301828152845163144027d381526001600160a01b03978816928101929092529490951685840152848101526080840185815260059590951b840160a09081019092529390915201815290565b6001600160a01b03808b166000908152600889016020526040808220928c16825290209192509062001ec3868b620019d8565b63ffffffff1660e08601526060850151938401935b6040860180516000190190819052600381901c606085901b015460009160051b60e0161c63ffffffff1663ffffffff16905062001f17838383620019ad565b62001f2c8a600a01828960e001518562001a67565b84518181526020018552600881901c60058b0160601b015460ff82161c6001161562001f8b5760058a0160601b600882901c018054600160ff84161b19169055600081815260048b016020526040902080546001600160a01b03191690555b5084816001019150810362001ed85760608601819052865463ffffffff808316600160801b90810263ffffffff60801b19938416178a5560408901518b549216029116178855600189015462001fec9085906001600160a01b031662002c79565b50505050505b80516020820151855463ffffffff600160801b80830482168401859003608087018190529091160263ffffffff60801b19909116178655600a8601916000916200203d910162002caf565b8654600160601b900463ffffffff16610120850152835190915015620021d757606089901b6001176020828101919091526001600160a01b038a166000908152600888019091526040808220908501518551810360a08701819052885463ffffffff909116600160801b0263ffffffff60801b199091161788556101208601515b60001991909101600381901c606084901b0154909190600583901b60e0161c63ffffffff16620020f2878260008062001a67565b8551602080880151600884901b17825201865260068b0160601b600882901c018054600160ff84161b1916905584156200214257620021428b6009018380600101945063ffffffff1683620019ad565b600881901c60058c0160601b015460ff82161c60011615620021975760058b0160601b600882901c018054600160ff84161b19169055600081815260048c016020526040902080546001600160a01b03191690555b508660a001518203620020be578315620021d25763ffffffff811661012088018190528a5463ffffffff60601b1916600160601b909102178a555b505050505b6020830151156200240757606088901b60208201526001600160a01b0388166000908152600887016020526040902062002212858a620019d8565b63ffffffff1660e08501526000670de0b6b3a76400008854600160a01b90046001600160601b0316816200224a576200224a6200382a565b89549190049150600160201b900463ffffffff1681811180159091021761010086015260608501516020860151810160c08701819052875463ffffffff60801b1916600160801b63ffffffff928316021788558954600160401b9004165b600087610120015163ffffffff168263ffffffff1614620022fa5760098b0160601b631fffffff600384901c160154600183019260e060059190911b161c63ffffffff1663ffffffff16905062002360565b506101008701515b6200231587600019830160011b620009de565b63ffffffff16156200234c5762002344620023388c600601836001018762002cf7565b85811180159091021790565b905062002302565b600181018481118015909102176101008901525b600881901c60068c0160601b018054600160ff84161b80199091161790556200238b858483620019ad565b620023a387828a60e001518680600101975062001a67565b8551602080880151600884901b178252018652508660c001518203620022a857895461010088015163ffffffff908116600160201b0267ffffffff000000001991909316600160401b02166bffffffffffffffff0000000019909116171789555050505b604081015151156200242e5760018601546200242e9082906001600160a01b031662002df6565b5050846000528560601b60601c8760601b60601c7fddf252ad1be2c89b69c2b068fc378daa952ba7f163c4a11628f55a4df523b3ef60206000a350505050505050565b60006200247e8362002c1d565b8054909150600160581b9004600216151582151514620024ba57805460ff600160581b80830482166002189091160260ff60581b199091161781555b8115156000528260601b60601c7fb5a1de456fff688115a4f75380060c23c8532d14ff85f687cc871456d642039360206000a2505050565b60003860003847855af1620017915763b12d13eb6000526004601cfd5b6001600160a01b0382166200253757604051633a954ecd60e21b815260040160405180910390fd5b6000620025448362002c1d565b68a20d6e21d0e52553095490915068a20d6e21d0e5255308906001600160a01b0316620025845760405163040739bf60e41b815260040160405180910390fd5b60408051608081018252600080825260208201819052918101829052606081019190915282546001600160601b03600160a01b80830482168701918216026001600160a01b03909216919091178455670de0b6b3a7640000810460408301525081546001600160a01b038116600160a01b918290046001600160601b0390811687019081169092021783556000908162002635606083901c670de0b6b3a7640000840463fffffffe10171515151590565b90508682108117156200265b5760405163e5cfe95760e01b815260040160405180910390fd5b508454670de0b6b3a76400009091049150600160581b9004600216620028d5576001600160a01b03861660009081526008840160205260408082208654918501519092600a870192600160801b900463ffffffff1691620026c3908381039084100262002caf565b9050806040015151600014620028d05760608a901b602082015260408082015151885463ffffffff600160801b80830482169093018116830263ffffffff60801b19928316178b55928901518b549316909102911617885562002727888b620019d8565b63ffffffff90811660608801528754600160601b810482166020890152600160201b810482168781118015909102178852600160401b9004165b6000876020015163ffffffff168263ffffffff1614620027b2576009890160601b631fffffff600384901c160154600183019260e060059190911b161c63ffffffff1663ffffffff16905062002810565b5086515b620027c985600019830160011b620009de565b63ffffffff16156200280057620027f8620027ec8a600601836001018a62002cf7565b88811180159091021790565b9050620027b6565b6001810187811180159091021788525b600881901c60068a0160601b018054600160ff84161b80199091161790556200283b868583620019ad565b6200285385828a606001518780600101985062001a67565b8251602080850151600884901b178252018352508660400151830362002761578651885463ffffffff838116600160401b026bffffffff00000000000000001991909316600160201b02166bffffffffffffffff0000000019909116171788556001880154620028ce9083906001600160a01b031662002df6565b505b505050505b60008581526001600160a01b038716907fddf252ad1be2c89b69c2b068fc378daa952ba7f163c4a11628f55a4df523b3ef602082a3505050505050565b638b78c6d81980546001600160a01b039092169182907f8be0079c531659141344cd1fd0a4f28419497f9722a3daafe3b4186f6b6457e0600080a355565b60408051608081018252603760208201818152600093839290620040539084013990526040805160608101825261079e815260076020820152600181830152815160c0810190925291925060009080600281526020018481526020016298968063ffffffff168152602001600063ffffffff1681526020016040518060600160405280602881526020016200402b6028913981526020018390529050620014a88162001006565b60006040518060400160405280600d81526020016c5a652064617320436f7576657360981b8152509050600060405180606001604052806107b28152602001600481526020016001815250905060006040518060400160405280601681526020017503737372e3737372e3737372d37372c205353502f53560541b815250905060006040518060400160405280600e81526020016d3130382e3833322e3436332d303960901b81525090506000848484848460405162002ab79062002ede565b62002ac795949392919062003840565b604051809103906000f08015801562002ae4573d6000803e3d6000fd5b50600c60006101000a8154816001600160a01b0302191690836001600160a01b031602179055506040518060400160405280600d81526020016c5a652064612045737175696e6160981b8152509450600060405180606001604052806107b7815260200160048152602001600181525090506040518060400160405280601681526020017503838382e3838382e3838382d38382c204f41422f53560541b81525093506040518060400160405280600e81526020016d06462665c64706e5c70666a5a70760931b815250925060019150858185858560405162002bc79062002ede565b62002bd795949392919062003840565b604051809103906000f08015801562002bf4573d6000803e3d6000fd5b50600d80546001600160a01b0319166001600160a01b0392909216919091179055505050505050565b6001600160a01b038116600090815268a20d6e21d0e5255313602052604090208054600160581b900460011662000f4f57805460ff60581b1916600160581b60ff933b1515600202600117939093169290920291909117815590565b6020820151805160051b60840160808203915060208282601c85016000875af160018351141662002ca957600082fd5b50505050565b62002cd460405180606001604052806000815260200160008152602001606081525090565b604051828152806020018360051b81016040528183604001528083525050919050565b6000801990508360601b8360081c81018054198560ff161c8560ff161b8062002d4f578460081c83015b600183019250825419915080831182171562002d21578083111562002d4d5760ff86191691821b90911c905b505b801562002dec5782820360081b7e1f0d1e100c1d070f090b19131c1706010e11080a1a141802121b1503160405821960010183166101e07a1412563212c14164235266736f7425221143267a4524367526767760fc7b2aaaaaaaba69a69a6db6db6db2cb2cb2ce739ce73def7bdeffffffff840260f81c161b60f71c1690811c63d76453e004601f169190911a1717858111878210176000031793505b5050509392505050565b60408201516040810363263c69d68152602080820152815160051b604401915060208183601c84016000875af160018251141662002ca957600081fd5b6040805160c08101825260008082526020820181905291810182905260608101829052608081018290529060a08201905b905290565b6040805160c08101909152806000815260200162002e936040518060200160405280606081525090565b8152602001600063ffffffff168152602001600063ffffffff1681526020016060815260200162002e6460405180606001604052806000815260200160008152602001600081525090565b61076b80620038c083390190565b60005b8381101562002f0957818101518382015260200162002eef565b50506000910152565b6000815180845262002f2c81602086016020860162002eec565b601f01601f19169290920160200192915050565b602081526000620011c1602083018462002f12565b6001600160a01b03811681146200179157600080fd5b6000806040838503121562002f7f57600080fd5b823562002f8c8162002f55565b946020939093013593505050565b634e487b7160e01b600052604160045260246000fd5b60405160c0810167ffffffffffffffff8111828210171562002fd65762002fd662002f9a565b60405290565b80356003811062000f4f57600080fd5b600082601f83011262002ffe57600080fd5b813567ffffffffffffffff808211156200301c576200301c62002f9a565b604051601f8301601f19908116603f0116810190828211818310171562003047576200304762002f9a565b816040528381528660208588010111156200306157600080fd5b836020870160208301376000602085830101528094505050505092915050565b6000602082840312156200309457600080fd5b6040516020810167ffffffffffffffff8282108183111715620030bb57620030bb62002f9a565b816040528293508435915080821115620030d457600080fd5b50620030e38582860162002fec565b8252505092915050565b803563ffffffff8116811462000f4f57600080fd5b6000606082840312156200311557600080fd5b6040516060810181811067ffffffffffffffff821117156200313b576200313b62002f9a565b80604052508091508235815260208301356020820152604083013560408201525092915050565b6000602082840312156200317557600080fd5b813567ffffffffffffffff808211156200318e57600080fd5b908301906101008286031215620031a457600080fd5b620031ae62002fb0565b620031b98362002fdc565b8152602083013582811115620031ce57600080fd5b620031dc8782860162003081565b602083015250620031f060408401620030ed565b60408201526200320360608401620030ed565b60608201526080830135828111156200321b57600080fd5b620032298782860162002fec565b6080830152506200323e8660a0850162003102565b60a082015295945050505050565b6000806000606084860312156200326257600080fd5b83356200326f8162002f55565b92506020840135620032818162002f55565b929592945050506040919091013590565b600060208284031215620032a557600080fd5b8135620011c18162002f55565b80151581146200179157600080fd5b600060208284031215620032d457600080fd5b8135620011c181620032b2565b60008060408385031215620032f557600080fd5b8235620033028162002f55565b91506020830135620033148162002f55565b809150509250929050565b600080602083850312156200333357600080fd5b823567ffffffffffffffff808211156200334c57600080fd5b818501915085601f8301126200336157600080fd5b8135818111156200337157600080fd5b8660208285010111156200338457600080fd5b60209290920196919550909350505050565b600060208284031215620033a957600080fd5b5035919050565b634e487b7160e01b600052602160045260246000fd5b60038110620017915762001791620033b0565b60048110620017915762001791620033b0565b60c08101620033fb88620033c6565b8782526001600160a01b0387811660208401528616604083015260608201859052608082018490526200342e83620033d9565b8260a0830152979650505050505050565b815160c08201906200345181620033c6565b80835250602083015160018060a01b0380821660208501528060408601511660408501525050606083015160608301526080830151608083015260a08301516200349b81620033d9565b8060a08401525092915050565b6020815260008251620034bb81620033c6565b8060208401525060208301516101006040840152805190506020610120840152620034eb61014084018262002f12565b9050604084015163ffffffff808216606086015280606087015116608086015250506080840151601f198483030160a08501526200352a828262002f12565b60a0860151805160c0870152602081015160e08701526040810151610100870152909250905062000ead565b600181811c908216806200356b57607f821691505b6020821081036200358c57634e487b7160e01b600052602260045260246000fd5b50919050565b6000808454620035a28162003556565b60018281168015620035bd5760018114620035d35762003604565b60ff198416875282151583028701945062003604565b8860005260208060002060005b85811015620035fb5781548a820152908401908201620035e0565b50505082870194505b5050505083516200361a81836020880162002eec565b01949350505050565b601f821115620014a8576000816000526020600020601f850160051c810160208610156200364e5750805b601f850160051c820191505b81811015620013ee578281556001016200365a565b815167ffffffffffffffff8111156200368c576200368c62002f9a565b620036a4816200369d845462003556565b8462003623565b602080601f831160018114620036dc5760008415620036c35750858301515b600019600386901b1c1916600185901b178555620013ee565b600085815260208120601f198616915b828110156200370d57888601518255948401946001909101908401620036ec565b50858210156200372c5787850151600019600388901b60f8161c191681555b5050505050600190811b01905550565b6000602082840312156200374f57600080fd5b8151620011c181620032b2565b67ffffffffffffffff83111562003777576200377762002f9a565b6200378f8362003788835462003556565b8362003623565b6000601f841160018114620037c65760008515620037ad5750838201355b600019600387901b1c1916600186901b17835562003823565b600083815260209020601f19861690835b82811015620037f95786850135825560209485019460019092019101620037d7565b5086821015620038175760001960f88860031b161c19848701351681555b505060018560011b0183555b5050505050565b634e487b7160e01b600052601260045260246000fd5b60e0815260006200385560e083018862002f12565b6200387760208401888051825260208082015190830152604090810151910152565b82810360808401526200388b818762002f12565b905082810360a0840152620038a1818662002f12565b915050620038af83620033d9565b8260c0830152969550505050505056fe608060405234801561001057600080fd5b5060405161076b38038061076b83398101604081905261002f9161019f565b600161003b8682610301565b50835160025560208401516003556040840151600455600561005d8482610301565b50600661006a8382610301565b506007805482919060ff1916600183600381111561008a5761008a6103c0565b021790555050505050506103d6565b634e487b7160e01b600052604160045260246000fd5b604051606081016001600160401b03811182821017156100d1576100d1610099565b60405290565b604051601f8201601f191681016001600160401b03811182821017156100ff576100ff610099565b604052919050565b600082601f83011261011857600080fd5b81516001600160401b0381111561013157610131610099565b6020610145601f8301601f191682016100d7565b828152858284870101111561015957600080fd5b60005b8381101561017757858101830151828201840152820161015c565b506000928101909101919091529392505050565b80516004811061019a57600080fd5b919050565b600080600080600085870360e08112156101b857600080fd5b86516001600160401b03808211156101cf57600080fd5b6101db8a838b01610107565b97506060601f19840112156101ef57600080fd5b6101f76100af565b9250602089015183526040890151602084015260608901516040840152829650608089015192508083111561022b57600080fd5b6102378a848b01610107565b955060a089015192508083111561024d57600080fd5b505061025b88828901610107565b92505061026a60c0870161018b565b90509295509295909350565b600181811c9082168061028a57607f821691505b6020821081036102aa57634e487b7160e01b600052602260045260246000fd5b50919050565b601f8211156102fc576000816000526020600020601f850160051c810160208610156102d95750805b601f850160051c820191505b818110156102f8578281556001016102e5565b5050505b505050565b81516001600160401b0381111561031a5761031a610099565b61032e816103288454610276565b846102b0565b602080601f831160018114610363576000841561034b5750858301515b600019600386901b1c1916600185901b1785556102f8565b600085815260208120601f198616915b8281101561039257888601518255948401946001909101908401610373565b50858210156103b05787850151600019600388901b60f8161c191681555b5050505050600190811b01905550565b634e487b7160e01b600052602160045260246000fd5b610386806103e56000396000f3fe608060405234801561001057600080fd5b50600436106100935760003560e01c8063aa9f262b11610066578063aa9f262b14610101578063bb05c30e1461012e578063d1d3c97c14610151578063e30081a014610167578063f8cd32b21461019d57600080fd5b80630663f2411461009857806337863fcb146100b65780638d6e0e12146100be5780638e3d5599146100e7575b600080fd5b6100a06101a5565b6040516100ad919061024d565b60405180910390f35b6100a0610233565b60005461010090046001600160a01b03166040516001600160a01b0390911681526020016100ad565b6007546100f49060ff1681565b6040516100ad919061029c565b60025460035460045461011392919083565b604080519384526020840192909252908201526060016100ad565b61014f61013c3660046102c4565b6000805460ff1916911515919091179055565b005b60005460ff1660405190151581526020016100ad565b61014f6101753660046102ed565b600080546001600160a01b0390921661010002610100600160a81b0319909216919091179055565b6100a0610240565b600680546101b290610316565b80601f01602080910402602001604051908101604052809291908181526020018280546101de90610316565b801561022b5780601f106102005761010080835404028352916020019161022b565b820191906000526020600020905b81548152906001019060200180831161020e57829003601f168201915b505050505081565b600180546101b290610316565b600580546101b290610316565b60006020808352835180602085015260005b8181101561027b5785810183015185820160400152820161025f565b506000604082860101526040601f19601f8301168501019250505092915050565b60208101600483106102be57634e487b7160e01b600052602160045260246000fd5b91905290565b6000602082840312156102d657600080fd5b813580151581146102e657600080fd5b9392505050565b6000602082840312156102ff57600080fd5b81356001600160a01b03811681146102e657600080fd5b600181811c9082168061032a57607f821691505b60208210810361034a57634e487b7160e01b600052602260045260246000fd5b5091905056fea264697066735822122027ee8b178f4ce50c04f259011e551785368bc500217f10f9ebd1d4d098c11fdd64736f6c6343000818003374657272656e6f2061206265697261206d6172206e6120507261696120646520537572666973746152756120412c2031302c2050726169612064652053757266697374612c20556261747562612028535029204345502031303737372d3737a26469706673582212206e05d1b65e208c2bc22390905a65725156e7780abd2ab0050adf4a362760860664736f6c63430008180033608060405234801561001057600080fd5b50604051610d8b380380610d8b83398101604081905261002f9161005c565b683602298b8c10b0123180546001600160a01b0319166001600160a01b039290921691909117905561008c565b60006020828403121561006e57600080fd5b81516001600160a01b038116811461008557600080fd5b9392505050565b610cf08061009b6000396000f3fe60806040526004361061010d5760003560e01c80636cef16e61161009557806397e5311c1161006457806397e5311c146104d7578063a22cb465146104ec578063b88d4fde1461050c578063c87b56dd1461051f578063e985e9c51461053f5761011f565b80636cef16e61461046757806370a082311461047c5780638da5cb5b1461049c57806395d89b41146104c25761011f565b806318160ddd116100dc57806318160ddd146103de57806323b872dd14610401578063243598791461041457806342842e0e146104345780636352211e146104475761011f565b806301ffc9a71461031f57806306fdde0314610371578063081812fc14610393578063095ea7b3146103cb5761011f565b3661011f57341561011d57600080fd5b005b683602298b8c10b0123060003560e01c63263c69d68190036101d55781546001600160a01b0316331461016557604051631b1e598960e11b815260040160405180910390fd5b600435602401602081033560051b81015b8082146101c85781358060601c816001168260a01b60a81c811583028284027fddf252ad1be2c89b69c2b068fc378daa952ba7f163c4a11628f55a4df523b3ef600038a4505050816020019150610176565b5050600160005260206000f35b8063144027d30361026b5781546001600160a01b0316331461020a57604051631b1e598960e11b815260040160405180910390fd5b600435602435604435602401602081033560051b81015b80821461025c57813583857fddf252ad1be2c89b69c2b068fc378daa952ba7f163c4a11628f55a4df523b3ef600038a4816020019150610221565b50505050600160005260206000f35b80630f4599e5036103065760018201546001600160a01b0316156102c15760018201546001600160a01b03166004356001600160a01b0316146102c1576040516362cf623d60e11b815260040160405180910390fd5b81546001600160a01b0316156102ea57604051635fb2b52360e11b815260040160405180910390fd5b81546001600160a01b0319163317825560016000908152602090f35b604051631e085ca760e11b815260040160405180910390fd5b34801561032b57600080fd5b5061035c61033a366004610a7a565b6301ffc9a760e09190911c9081146380ac58cd821417635b5e139f9091141790565b60405190151581526020015b60405180910390f35b34801561037d57600080fd5b5061038661055f565b6040516103689190610aab565b34801561039f57600080fd5b506103b36103ae366004610afa565b610575565b6040516001600160a01b039091168152602001610368565b61011d6103d9366004610b2f565b61058d565b3480156103ea57600080fd5b506103f3610613565b604051908152602001610368565b61011d61040f366004610b59565b610625565b34801561042057600080fd5b506103b361042f366004610afa565b6106b4565b61011d610442366004610b59565b6106c6565b34801561045357600080fd5b506103b3610462366004610afa565b6106f8565b34801561047357600080fd5b5061035c61070a565b34801561048857600080fd5b506103f3610497366004610b95565b6107c5565b3480156104a857600080fd5b50683602298b8c10b01232546001600160a01b03166103b3565b3480156104ce57600080fd5b506103866107e0565b3480156104e357600080fd5b506103b36107f1565b3480156104f857600080fd5b5061011d610507366004610bb0565b610826565b61011d61051a366004610bec565b6108a9565b34801561052b57600080fd5b5061038661053a366004610afa565b610904565b34801561054b57600080fd5b5061035c61055a366004610c87565b610914565b60606105706306fdde036000610940565b905090565b600061058763081812fc8360006109a6565b92915050565b60006105976107f1565b90508260601b60601c925060405163d10b6e0c600052836020528260405233606052602060006064601c34865af1601f3d11166105d7573d6000823e3d81fd5b806040525060006060528183600c5160601c7f8c5be1e5ebec7d5bd14f71427d1e84f3dd0314c0f7b2291e5b200ac8c7c3b925600038a4505050565b600061057063e2c792816000806109a6565b600061062f6107f1565b90508360601b60601c93508260601b60601c925060405163e5eb36c881528460208201528360408201528260608201523360808201526020816084601c840134865af1600182511416610685573d6000823e3d81fd5b508183857fddf252ad1be2c89b69c2b068fc378daa952ba7f163c4a11628f55a4df523b3ef600038a450505050565b600061058763243598798360006109a6565b6106d1838383610625565b813b156106f3576106f3838383604051806020016040528060008152506109ee565b505050565b6000610587636352211e8360006109a6565b60008060006107176107f1565b9050638da5cb5b600052602060006004601c845afa600c51683602298b8c10b0123254601f3d119290921660609190911c029250683602298b8c10b01230906001600160a01b0390811690841681146107ba576002820180546001600160a01b0319166001600160a01b0386811691821790925560405190918316907f8be0079c531659141344cd1fd0a4f28419497f9722a3daafe3b4186f6b6457e090600090a35b600194505050505090565b600061058763f5b100ea836001600160a01b031660006109a6565b60606105706395d89b416000610940565b683602298b8c10b01230546001600160a01b03168061082357604051632d9523d760e11b815260040160405180910390fd5b90565b60006108306107f1565b90508260601b60601c925060405163813500fc6000528360205282151560405233606052602060006064601c34865af160016000511416610874573d6000823e3d81fd5b83337f17307eab39ab6107e8899845ad3d59bd9653f200f220920489ca2b5937696c3160206040a36040525050600060605250565b6108b4858585610625565b833b156108fd576108fd85858585858080601f0160208091040260200160405190810160405280939291908181526020018383808284376000920191909152506109ee92505050565b5050505050565b606061058763c87b56dd83610940565b600061093763e985e9c5846001600160a01b0316846001600160a01b03166109a6565b15159392505050565b6060600061094c6107f1565b9050604051915083600052826020526000806024601c845afa610972573d6000833e3d82fd5b60206000803e6020600051833e8151602060005101602084013e815160208301016000815260208101604052505092915050565b6000806109b16107f1565b9050604051856000528460205283604052602060006044601c855afa601f3d11166109df573d6000823e3d81fd5b60405250506000519392505050565b60405163150b7a028082523360208301528560601b60601c604083015283606083015260808083015282518060a08401528015610a35578060c08401826020870160045afa505b60208360a48301601c860160008a5af1610a58573d15610a58573d6000843e3d83fd5b508060e01b825114610a725763d1a57ed66000526004601cfd5b505050505050565b600060208284031215610a8c57600080fd5b81356001600160e01b031981168114610aa457600080fd5b9392505050565b60006020808352835180602085015260005b81811015610ad957858101830151858201604001528201610abd565b506000604082860101526040601f19601f8301168501019250505092915050565b600060208284031215610b0c57600080fd5b5035919050565b80356001600160a01b0381168114610b2a57600080fd5b919050565b60008060408385031215610b4257600080fd5b610b4b83610b13565b946020939093013593505050565b600080600060608486031215610b6e57600080fd5b610b7784610b13565b9250610b8560208501610b13565b9150604084013590509250925092565b600060208284031215610ba757600080fd5b610aa482610b13565b60008060408385031215610bc357600080fd5b610bcc83610b13565b915060208301358015158114610be157600080fd5b809150509250929050565b600080600080600060808688031215610c0457600080fd5b610c0d86610b13565b9450610c1b60208701610b13565b935060408601359250606086013567ffffffffffffffff80821115610c3f57600080fd5b818801915088601f830112610c5357600080fd5b813581811115610c6257600080fd5b896020828501011115610c7457600080fd5b9699959850939650602001949392505050565b60008060408385031215610c9a57600080fd5b610ca383610b13565b9150610cb160208401610b13565b9050925092905056fea2646970667358221220fd349dd2cb973eda00856317e75dec29f4b30016b699d5de88099002a3428a4a64736f6c63430008180033",
  "linkReferences": {},
  "deployedLinkReferences": {}
}