{
  "_format": "hh-sol-artifact-1",
  "contractName": "ImovelSP",
  "sourceName": "contracts/ImovelSP.sol",
  "abi": [
    {
      "inputs": [],
      "stateMutability": "nonpayable",
      "type": "constructor"
    },
    {
      "inputs": [],
      "name": "AlreadyInitialized",
      "type": "error"
    },
    {
      "inputs": [],
      "name": "ApprovalCallerNotOwnerNorApproved",
      "type": "error"
    },
    {
      "inputs": [],
      "name": "DNAlreadyInitialized",
      "type": "error"
    },
    {
      "inputs": [],
      "name": "DNNotInitialized",
      "type": "error"
    },
    {
      "inputs": [],
      "name": "FnSelectorNotRecognized",
      "type": "error"
    },
    {
      "inputs": [],
      "name": "InsufficientAllowance",
      "type": "error"
    },
    {
      "inputs": [],
      "name": "InsufficientBalance",
      "type": "error"
    },
    {
      "inputs": [],
      "name": "InvalidUnit",
      "type": "error"
    },
    {
      "inputs": [],
      "name": "LinkMirrorContractFailed",
      "type": "error"
    },
    {
      "inputs": [],
      "name": "MirrorAddressIsZero",
      "type": "error"
    },
    {
      "inputs": [],
      "name": "NewOwnerIsZeroAddress",
      "type": "error"
    },
    {
      "inputs": [],
      "name": "NoHandoverRequest",
      "type": "error"
    },
    {
      "inputs": [],
      "name": "SenderNotMirror",
      "type": "error"
    },
    {
      "inputs": [],
      "name": "TokenDoesNotExist",
      "type": "error"
    },
    {
      "inputs": [],
      "name": "TotalSupplyOverflow",
      "type": "error"
    },
    {
      "inputs": [],
      "name": "TransferCallerNotOwnerNorApproved",
      "type": "error"
    },
    {
      "inputs": [],
      "name": "TransferFromIncorrectOwner",
      "type": "error"
    },
    {
      "inputs": [],
      "name": "TransferToZeroAddress",
      "type": "error"
    },
    {
      "inputs": [],
      "name": "Unauthorized",
      "type": "error"
    },
    {
      "anonymous": false,
      "inputs": [
        {
          "indexed": true,
          "internalType": "address",
          "name": "owner",
          "type": "address"
        },
        {
          "indexed": true,
          "internalType": "address",
          "name": "spender",
          "type": "address"
        },
        {
          "indexed": false,
          "internalType": "uint256",
          "name": "amount",
          "type": "uint256"
        }
      ],
      "name": "Approval",
      "type": "event"
    },
    {
      "anonymous": false,
      "inputs": [
        {
          "indexed": true,
          "internalType": "address",
          "name": "pendingOwner",
          "type": "address"
        }
      ],
      "name": "OwnershipHandoverCanceled",
      "type": "event"
    },
    {
      "anonymous": false,
      "inputs": [
        {
          "indexed": true,
          "internalType": "address",
          "name": "pendingOwner",
          "type": "address"
        }
      ],
      "name": "OwnershipHandoverRequested",
      "type": "event"
    },
    {
      "anonymous": false,
      "inputs": [
        {
          "indexed": true,
          "internalType": "address",
          "name": "oldOwner",
          "type": "address"
        },
        {
          "indexed": true,
          "internalType": "address",
          "name": "newOwner",
          "type": "address"
        }
      ],
      "name": "OwnershipTransferred",
      "type": "event"
    },
    {
      "anonymous": false,
      "inputs": [
        {
          "indexed": true,
          "internalType": "address",
          "name": "owner",
          "type": "address"
        },
        {
          "indexed": false,
          "internalType": "bool",
          "name": "status",
          "type": "bool"
        }
      ],
      "name": "SkipNFTSet",
      "type": "event"
    },
    {
      "anonymous": false,
      "inputs": [
        {
          "indexed": true,
          "internalType": "address",
          "name": "from",
          "type": "address"
        },
        {
          "indexed": true,
          "internalType": "address",
          "name": "to",
          "type": "address"
        },
        {
          "indexed": false,
          "internalType": "uint256",
          "name": "amount",
          "type": "uint256"
        }
      ],
      "name": "Transfer",
      "type": "event"
    },
    {
      "stateMutability": "payable",
      "type": "fallback"
    },
    {
      "inputs": [
        {
          "internalType": "uint256",
          "name": "",
          "type": "uint256"
        }
      ],
      "name": "_historicoTransacoes",
      "outputs": [
        {
          "internalType": "string",
          "name": "tipo",
          "type": "string"
        },
        {
          "internalType": "uint256",
          "name": "valorBRL",
          "type": "uint256"
        },
        {
          "internalType": "uint256",
          "name": "valorETH",
          "type": "uint256"
        },
        {
          "internalType": "string",
          "name": "formaPagamento",
          "type": "string"
        },
        {
          "internalType": "string",
          "name": "condicoesTransacao",
          "type": "string"
        }
      ],
      "stateMutability": "view",
      "type": "function"
    },
    {
      "inputs": [
        {
          "internalType": "address",
          "name": "owner",
          "type": "address"
        },
        {
          "internalType": "address",
          "name": "spender",
          "type": "address"
        }
      ],
      "name": "allowance",
      "outputs": [
        {
          "internalType": "uint256",
          "name": "",
          "type": "uint256"
        }
      ],
      "stateMutability": "view",
      "type": "function"
    },
    {
      "inputs": [
        {
          "internalType": "address",
          "name": "spender",
          "type": "address"
        },
        {
          "internalType": "uint256",
          "name": "amount",
          "type": "uint256"
        }
      ],
      "name": "approve",
      "outputs": [
        {
          "internalType": "bool",
          "name": "",
          "type": "bool"
        }
      ],
      "stateMutability": "nonpayable",
      "type": "function"
    },
    {
      "inputs": [
        {
          "internalType": "address",
          "name": "owner",
          "type": "address"
        }
      ],
      "name": "balanceOf",
      "outputs": [
        {
          "internalType": "uint256",
          "name": "",
          "type": "uint256"
        }
      ],
      "stateMutability": "view",
      "type": "function"
    },
    {
      "inputs": [],
      "name": "cancelOwnershipHandover",
      "outputs": [],
      "stateMutability": "payable",
      "type": "function"
    },
    {
      "inputs": [
        {
          "internalType": "address",
          "name": "pendingOwner",
          "type": "address"
        }
      ],
      "name": "completeOwnershipHandover",
      "outputs": [],
      "stateMutability": "payable",
      "type": "function"
    },
    {
      "inputs": [
        {
          "internalType": "address",
          "name": "enderecoComprador_",
          "type": "address"
        },
        {
          "internalType": "address",
          "name": "enderecoVendedor_",
          "type": "address"
        }
      ],
      "name": "criaTransacao",
      "outputs": [
        {
          "components": [
            {
              "internalType": "string",
              "name": "tipo",
              "type": "string"
            },
            {
              "components": [
                {
                  "internalType": "bool",
                  "name": "KYC",
                  "type": "bool"
                },
                {
                  "internalType": "address",
                  "name": "enderecoPessoa",
                  "type": "address"
                },
                {
                  "internalType": "string",
                  "name": "nomeCompleto",
                  "type": "string"
                },
                {
                  "components": [
                    {
                      "internalType": "uint256",
                      "name": "ano",
                      "type": "uint256"
                    },
                    {
                      "internalType": "uint256",
                      "name": "mes",
                      "type": "uint256"
                    },
                    {
                      "internalType": "uint256",
                      "name": "dia",
                      "type": "uint256"
                    }
                  ],
                  "internalType": "struct ImovelRWADN404.Data",
                  "name": "dataNascimento",
                  "type": "tuple"
                },
                {
                  "internalType": "string",
                  "name": "numeroIdentidade",
                  "type": "string"
                },
                {
                  "internalType": "string",
                  "name": "emissorRG",
                  "type": "string"
                },
                {
                  "components": [
                    {
                      "internalType": "uint256",
                      "name": "ano",
                      "type": "uint256"
                    },
                    {
                      "internalType": "uint256",
                      "name": "mes",
                      "type": "uint256"
                    },
                    {
                      "internalType": "uint256",
                      "name": "dia",
                      "type": "uint256"
                    }
                  ],
                  "internalType": "struct ImovelRWADN404.Data",
                  "name": "dataEmissao",
                  "type": "tuple"
                },
                {
                  "internalType": "string",
                  "name": "numeroCPF",
                  "type": "string"
                },
                {
                  "internalType": "string",
                  "name": "statusCPF",
                  "type": "string"
                },
                {
                  "internalType": "string",
                  "name": "estadoCivil",
                  "type": "string"
                },
                {
                  "components": [
                    {
                      "internalType": "string",
                      "name": "tipo",
                      "type": "string"
                    },
                    {
                      "internalType": "string",
                      "name": "rua",
                      "type": "string"
                    },
                    {
                      "internalType": "uint16",
                      "name": "numero",
                      "type": "uint16"
                    },
                    {
                      "internalType": "string",
                      "name": "complemento",
                      "type": "string"
                    },
                    {
                      "internalType": "string",
                      "name": "bairro",
                      "type": "string"
                    },
                    {
                      "internalType": "string",
                      "name": "cidade",
                      "type": "string"
                    },
                    {
                      "internalType": "string",
                      "name": "estado",
                      "type": "string"
                    },
                    {
                      "internalType": "string",
                      "name": "pais",
                      "type": "string"
                    },
                    {
                      "internalType": "string",
                      "name": "cep",
                      "type": "string"
                    }
                  ],
                  "internalType": "struct ImovelRWADN404.EnderecoPostal",
                  "name": "enderecoPostal",
                  "type": "tuple"
                },
                {
                  "components": [
                    {
                      "internalType": "uint256",
                      "name": "codigoInternacional",
                      "type": "uint256"
                    },
                    {
                      "internalType": "uint256",
                      "name": "codigoLocal",
                      "type": "uint256"
                    },
                    {
                      "internalType": "uint256",
                      "name": "numeroTelefone",
                      "type": "uint256"
                    }
                  ],
                  "internalType": "struct ImovelRWADN404.Telefone",
                  "name": "telefone",
                  "type": "tuple"
                }
              ],
              "internalType": "struct ImovelRWADN404.PessoaFisica[]",
              "name": "partes",
              "type": "tuple[]"
            },
            {
              "internalType": "uint256",
              "name": "valorBRL",
              "type": "uint256"
            },
            {
              "internalType": "uint256",
              "name": "valorETH",
              "type": "uint256"
            },
            {
              "internalType": "string",
              "name": "formaPagamento",
              "type": "string"
            },
            {
              "internalType": "string",
              "name": "condicoesTransacao",
              "type": "string"
            },
            {
              "components": [
                {
                  "internalType": "string",
                  "name": "descricao",
                  "type": "string"
                },
                {
                  "internalType": "string",
                  "name": "orgaoCertidao",
                  "type": "string"
                },
                {
                  "components": [
                    {
                      "internalType": "bool",
                      "name": "KYC",
                      "type": "bool"
                    },
                    {
                      "internalType": "address",
                      "name": "enderecoPessoa",
                      "type": "address"
                    },
                    {
                      "internalType": "string",
                      "name": "nomeCompleto",
                      "type": "string"
                    },
                    {
                      "components": [
                        {
                          "internalType": "uint256",
                          "name": "ano",
                          "type": "uint256"
                        },
                        {
                          "internalType": "uint256",
                          "name": "mes",
                          "type": "uint256"
                        },
                        {
                          "internalType": "uint256",
                          "name": "dia",
                          "type": "uint256"
                        }
                      ],
                      "internalType": "struct ImovelRWADN404.Data",
                      "name": "dataNascimento",
                      "type": "tuple"
                    },
                    {
                      "internalType": "string",
                      "name": "numeroIdentidade",
                      "type": "string"
                    },
                    {
                      "internalType": "string",
                      "name": "emissorRG",
                      "type": "string"
                    },
                    {
                      "components": [
                        {
                          "internalType": "uint256",
                          "name": "ano",
                          "type": "uint256"
                        },
                        {
                          "internalType": "uint256",
                          "name": "mes",
                          "type": "uint256"
                        },
                        {
                          "internalType": "uint256",
                          "name": "dia",
                          "type": "uint256"
                        }
                      ],
                      "internalType": "struct ImovelRWADN404.Data",
                      "name": "dataEmissao",
                      "type": "tuple"
                    },
                    {
                      "internalType": "string",
                      "name": "numeroCPF",
                      "type": "string"
                    },
                    {
                      "internalType": "string",
                      "name": "statusCPF",
                      "type": "string"
                    },
                    {
                      "internalType": "string",
                      "name": "estadoCivil",
                      "type": "string"
                    },
                    {
                      "components": [
                        {
                          "internalType": "string",
                          "name": "tipo",
                          "type": "string"
                        },
                        {
                          "internalType": "string",
                          "name": "rua",
                          "type": "string"
                        },
                        {
                          "internalType": "uint16",
                          "name": "numero",
                          "type": "uint16"
                        },
                        {
                          "internalType": "string",
                          "name": "complemento",
                          "type": "string"
                        },
                        {
                          "internalType": "string",
                          "name": "bairro",
                          "type": "string"
                        },
                        {
                          "internalType": "string",
                          "name": "cidade",
                          "type": "string"
                        },
                        {
                          "internalType": "string",
                          "name": "estado",
                          "type": "string"
                        },
                        {
                          "internalType": "string",
                          "name": "pais",
                          "type": "string"
                        },
                        {
                          "internalType": "string",
                          "name": "cep",
                          "type": "string"
                        }
                      ],
                      "internalType": "struct ImovelRWADN404.EnderecoPostal",
                      "name": "enderecoPostal",
                      "type": "tuple"
                    },
                    {
                      "components": [
                        {
                          "internalType": "uint256",
                          "name": "codigoInternacional",
                          "type": "uint256"
                        },
                        {
                          "internalType": "uint256",
                          "name": "codigoLocal",
                          "type": "uint256"
                        },
                        {
                          "internalType": "uint256",
                          "name": "numeroTelefone",
                          "type": "uint256"
                        }
                      ],
                      "internalType": "struct ImovelRWADN404.Telefone",
                      "name": "telefone",
                      "type": "tuple"
                    }
                  ],
                  "internalType": "struct ImovelRWADN404.PessoaFisica",
                  "name": "titularCertidao",
                  "type": "tuple"
                },
                {
                  "internalType": "string",
                  "name": "statusCertidao",
                  "type": "string"
                },
                {
                  "internalType": "string",
                  "name": "pendenciasCertidao",
                  "type": "string"
                },
                {
                  "components": [
                    {
                      "internalType": "uint256",
                      "name": "ano",
                      "type": "uint256"
                    },
                    {
                      "internalType": "uint256",
                      "name": "mes",
                      "type": "uint256"
                    },
                    {
                      "internalType": "uint256",
                      "name": "dia",
                      "type": "uint256"
                    }
                  ],
                  "internalType": "struct ImovelRWADN404.Data",
                  "name": "emissaoCertidao",
                  "type": "tuple"
                },
                {
                  "components": [
                    {
                      "internalType": "uint256",
                      "name": "ano",
                      "type": "uint256"
                    },
                    {
                      "internalType": "uint256",
                      "name": "mes",
                      "type": "uint256"
                    },
                    {
                      "internalType": "uint256",
                      "name": "dia",
                      "type": "uint256"
                    }
                  ],
                  "internalType": "struct ImovelRWADN404.Data",
                  "name": "validadeCertidao",
                  "type": "tuple"
                },
                {
                  "internalType": "string",
                  "name": "certidaoURI",
                  "type": "string"
                }
              ],
              "internalType": "struct ImovelRWADN404.Certidao[]",
              "name": "certidoes",
              "type": "tuple[]"
            }
          ],
          "internalType": "struct ImovelRWADN404.Transacao",
          "name": "t",
          "type": "tuple"
        }
      ],
      "stateMutability": "nonpayable",
      "type": "function"
    },
    {
      "inputs": [],
      "name": "decimals",
      "outputs": [
        {
          "internalType": "uint8",
          "name": "",
          "type": "uint8"
        }
      ],
      "stateMutability": "view",
      "type": "function"
    },
    {
      "inputs": [],
      "name": "getCaracterizacaoImovel",
      "outputs": [
        {
          "components": [
            {
              "internalType": "string",
              "name": "tipo",
              "type": "string"
            },
            {
              "components": [
                {
                  "internalType": "string",
                  "name": "tipo",
                  "type": "string"
                },
                {
                  "internalType": "string",
                  "name": "rua",
                  "type": "string"
                },
                {
                  "internalType": "uint16",
                  "name": "numero",
                  "type": "uint16"
                },
                {
                  "internalType": "string",
                  "name": "complemento",
                  "type": "string"
                },
                {
                  "internalType": "string",
                  "name": "bairro",
                  "type": "string"
                },
                {
                  "internalType": "string",
                  "name": "cidade",
                  "type": "string"
                },
                {
                  "internalType": "string",
                  "name": "estado",
                  "type": "string"
                },
                {
                  "internalType": "string",
                  "name": "pais",
                  "type": "string"
                },
                {
                  "internalType": "string",
                  "name": "cep",
                  "type": "string"
                }
              ],
              "internalType": "struct ImovelRWADN404.EnderecoPostal",
              "name": "enderecoPostal",
              "type": "tuple"
            },
            {
              "internalType": "uint256",
              "name": "areaTerreno",
              "type": "uint256"
            },
            {
              "internalType": "uint256",
              "name": "areaConstruida",
              "type": "uint256"
            },
            {
              "internalType": "string",
              "name": "distribuicao",
              "type": "string"
            },
            {
              "internalType": "string",
              "name": "descricaoDetalhada",
              "type": "string"
            },
            {
              "components": [
                {
                  "internalType": "uint256",
                  "name": "ano",
                  "type": "uint256"
                },
                {
                  "internalType": "uint256",
                  "name": "mes",
                  "type": "uint256"
                },
                {
                  "internalType": "uint256",
                  "name": "dia",
                  "type": "uint256"
                }
              ],
              "internalType": "struct ImovelRWADN404.Data",
              "name": "dataImovel",
              "type": "tuple"
            }
          ],
          "internalType": "struct ImovelRWADN404.CaracterizacaoImovel",
          "name": "c",
          "type": "tuple"
        }
      ],
      "stateMutability": "view",
      "type": "function"
    },
    {
      "inputs": [
        {
          "components": [
            {
              "internalType": "bool",
              "name": "KYC",
              "type": "bool"
            },
            {
              "internalType": "address",
              "name": "enderecoPessoa",
              "type": "address"
            },
            {
              "internalType": "string",
              "name": "nomeCompleto",
              "type": "string"
            },
            {
              "components": [
                {
                  "internalType": "uint256",
                  "name": "ano",
                  "type": "uint256"
                },
                {
                  "internalType": "uint256",
                  "name": "mes",
                  "type": "uint256"
                },
                {
                  "internalType": "uint256",
                  "name": "dia",
                  "type": "uint256"
                }
              ],
              "internalType": "struct ImovelRWADN404.Data",
              "name": "dataNascimento",
              "type": "tuple"
            },
            {
              "internalType": "string",
              "name": "numeroIdentidade",
              "type": "string"
            },
            {
              "internalType": "string",
              "name": "emissorRG",
              "type": "string"
            },
            {
              "components": [
                {
                  "internalType": "uint256",
                  "name": "ano",
                  "type": "uint256"
                },
                {
                  "internalType": "uint256",
                  "name": "mes",
                  "type": "uint256"
                },
                {
                  "internalType": "uint256",
                  "name": "dia",
                  "type": "uint256"
                }
              ],
              "internalType": "struct ImovelRWADN404.Data",
              "name": "dataEmissao",
              "type": "tuple"
            },
            {
              "internalType": "string",
              "name": "numeroCPF",
              "type": "string"
            },
            {
              "internalType": "string",
              "name": "statusCPF",
              "type": "string"
            },
            {
              "internalType": "string",
              "name": "estadoCivil",
              "type": "string"
            },
            {
              "components": [
                {
                  "internalType": "string",
                  "name": "tipo",
                  "type": "string"
                },
                {
                  "internalType": "string",
                  "name": "rua",
                  "type": "string"
                },
                {
                  "internalType": "uint16",
                  "name": "numero",
                  "type": "uint16"
                },
                {
                  "internalType": "string",
                  "name": "complemento",
                  "type": "string"
                },
                {
                  "internalType": "string",
                  "name": "bairro",
                  "type": "string"
                },
                {
                  "internalType": "string",
                  "name": "cidade",
                  "type": "string"
                },
                {
                  "internalType": "string",
                  "name": "estado",
                  "type": "string"
                },
                {
                  "internalType": "string",
                  "name": "pais",
                  "type": "string"
                },
                {
                  "internalType": "string",
                  "name": "cep",
                  "type": "string"
                }
              ],
              "internalType": "struct ImovelRWADN404.EnderecoPostal",
              "name": "enderecoPostal",
              "type": "tuple"
            },
            {
              "components": [
                {
                  "internalType": "uint256",
                  "name": "codigoInternacional",
                  "type": "uint256"
                },
                {
                  "internalType": "uint256",
                  "name": "codigoLocal",
                  "type": "uint256"
                },
                {
                  "internalType": "uint256",
                  "name": "numeroTelefone",
                  "type": "uint256"
                }
              ],
              "internalType": "struct ImovelRWADN404.Telefone",
              "name": "telefone",
              "type": "tuple"
            }
          ],
          "internalType": "struct ImovelRWADN404.PessoaFisica",
          "name": "pessoaFisica_",
          "type": "tuple"
        }
      ],
      "name": "getKYC",
      "outputs": [
        {
          "internalType": "bool",
          "name": "",
          "type": "bool"
        }
      ],
      "stateMutability": "pure",
      "type": "function"
    },
    {
      "inputs": [],
      "name": "getRWAType",
      "outputs": [
        {
          "internalType": "string",
          "name": "",
          "type": "string"
        }
      ],
      "stateMutability": "pure",
      "type": "function"
    },
    {
      "inputs": [
        {
          "internalType": "address",
          "name": "owner",
          "type": "address"
        }
      ],
      "name": "getSkipNFT",
      "outputs": [
        {
          "internalType": "bool",
          "name": "",
          "type": "bool"
        }
      ],
      "stateMutability": "view",
      "type": "function"
    },
    {
      "inputs": [],
      "name": "getTitultar",
      "outputs": [
        {
          "components": [
            {
              "internalType": "bool",
              "name": "KYC",
              "type": "bool"
            },
            {
              "internalType": "address",
              "name": "enderecoPessoa",
              "type": "address"
            },
            {
              "internalType": "string",
              "name": "nomeCompleto",
              "type": "string"
            },
            {
              "components": [
                {
                  "internalType": "uint256",
                  "name": "ano",
                  "type": "uint256"
                },
                {
                  "internalType": "uint256",
                  "name": "mes",
                  "type": "uint256"
                },
                {
                  "internalType": "uint256",
                  "name": "dia",
                  "type": "uint256"
                }
              ],
              "internalType": "struct ImovelRWADN404.Data",
              "name": "dataNascimento",
              "type": "tuple"
            },
            {
              "internalType": "string",
              "name": "numeroIdentidade",
              "type": "string"
            },
            {
              "internalType": "string",
              "name": "emissorRG",
              "type": "string"
            },
            {
              "components": [
                {
                  "internalType": "uint256",
                  "name": "ano",
                  "type": "uint256"
                },
                {
                  "internalType": "uint256",
                  "name": "mes",
                  "type": "uint256"
                },
                {
                  "internalType": "uint256",
                  "name": "dia",
                  "type": "uint256"
                }
              ],
              "internalType": "struct ImovelRWADN404.Data",
              "name": "dataEmissao",
              "type": "tuple"
            },
            {
              "internalType": "string",
              "name": "numeroCPF",
              "type": "string"
            },
            {
              "internalType": "string",
              "name": "statusCPF",
              "type": "string"
            },
            {
              "internalType": "string",
              "name": "estadoCivil",
              "type": "string"
            },
            {
              "components": [
                {
                  "internalType": "string",
                  "name": "tipo",
                  "type": "string"
                },
                {
                  "internalType": "string",
                  "name": "rua",
                  "type": "string"
                },
                {
                  "internalType": "uint16",
                  "name": "numero",
                  "type": "uint16"
                },
                {
                  "internalType": "string",
                  "name": "complemento",
                  "type": "string"
                },
                {
                  "internalType": "string",
                  "name": "bairro",
                  "type": "string"
                },
                {
                  "internalType": "string",
                  "name": "cidade",
                  "type": "string"
                },
                {
                  "internalType": "string",
                  "name": "estado",
                  "type": "string"
                },
                {
                  "internalType": "string",
                  "name": "pais",
                  "type": "string"
                },
                {
                  "internalType": "string",
                  "name": "cep",
                  "type": "string"
                }
              ],
              "internalType": "struct ImovelRWADN404.EnderecoPostal",
              "name": "enderecoPostal",
              "type": "tuple"
            },
            {
              "components": [
                {
                  "internalType": "uint256",
                  "name": "codigoInternacional",
                  "type": "uint256"
                },
                {
                  "internalType": "uint256",
                  "name": "codigoLocal",
                  "type": "uint256"
                },
                {
                  "internalType": "uint256",
                  "name": "numeroTelefone",
                  "type": "uint256"
                }
              ],
              "internalType": "struct ImovelRWADN404.Telefone",
              "name": "telefone",
              "type": "tuple"
            }
          ],
          "internalType": "struct ImovelRWADN404.PessoaFisica",
          "name": "t",
          "type": "tuple"
        }
      ],
      "stateMutability": "view",
      "type": "function"
    },
    {
      "inputs": [
        {
          "internalType": "address",
          "name": "to",
          "type": "address"
        },
        {
          "internalType": "uint256",
          "name": "amount",
          "type": "uint256"
        }
      ],
      "name": "mint",
      "outputs": [],
      "stateMutability": "nonpayable",
      "type": "function"
    },
    {
      "inputs": [],
      "name": "mirrorERC721",
      "outputs": [
        {
          "internalType": "address",
          "name": "",
          "type": "address"
        }
      ],
      "stateMutability": "view",
      "type": "function"
    },
    {
      "inputs": [],
      "name": "name",
      "outputs": [
        {
          "internalType": "string",
          "name": "",
          "type": "string"
        }
      ],
      "stateMutability": "view",
      "type": "function"
    },
    {
      "inputs": [],
      "name": "owner",
      "outputs": [
        {
          "internalType": "address",
          "name": "result",
          "type": "address"
        }
      ],
      "stateMutability": "view",
      "type": "function"
    },
    {
      "inputs": [
        {
          "internalType": "address",
          "name": "pendingOwner",
          "type": "address"
        }
      ],
      "name": "ownershipHandoverExpiresAt",
      "outputs": [
        {
          "internalType": "uint256",
          "name": "result",
          "type": "uint256"
        }
      ],
      "stateMutability": "view",
      "type": "function"
    },
    {
      "inputs": [],
      "name": "renounceOwnership",
      "outputs": [],
      "stateMutability": "payable",
      "type": "function"
    },
    {
      "inputs": [],
      "name": "requestOwnershipHandover",
      "outputs": [],
      "stateMutability": "payable",
      "type": "function"
    },
    {
      "inputs": [
        {
          "internalType": "string",
          "name": "baseURI_",
          "type": "string"
        }
      ],
      "name": "setBaseURI",
      "outputs": [],
      "stateMutability": "nonpayable",
      "type": "function"
    },
    {
      "inputs": [
        {
          "components": [
            {
              "internalType": "string",
              "name": "tipo",
              "type": "string"
            },
            {
              "components": [
                {
                  "internalType": "string",
                  "name": "tipo",
                  "type": "string"
                },
                {
                  "internalType": "string",
                  "name": "rua",
                  "type": "string"
                },
                {
                  "internalType": "uint16",
                  "name": "numero",
                  "type": "uint16"
                },
                {
                  "internalType": "string",
                  "name": "complemento",
                  "type": "string"
                },
                {
                  "internalType": "string",
                  "name": "bairro",
                  "type": "string"
                },
                {
                  "internalType": "string",
                  "name": "cidade",
                  "type": "string"
                },
                {
                  "internalType": "string",
                  "name": "estado",
                  "type": "string"
                },
                {
                  "internalType": "string",
                  "name": "pais",
                  "type": "string"
                },
                {
                  "internalType": "string",
                  "name": "cep",
                  "type": "string"
                }
              ],
              "internalType": "struct ImovelRWADN404.EnderecoPostal",
              "name": "enderecoPostal",
              "type": "tuple"
            },
            {
              "internalType": "uint256",
              "name": "areaTerreno",
              "type": "uint256"
            },
            {
              "internalType": "uint256",
              "name": "areaConstruida",
              "type": "uint256"
            },
            {
              "internalType": "string",
              "name": "distribuicao",
              "type": "string"
            },
            {
              "internalType": "string",
              "name": "descricaoDetalhada",
              "type": "string"
            },
            {
              "components": [
                {
                  "internalType": "uint256",
                  "name": "ano",
                  "type": "uint256"
                },
                {
                  "internalType": "uint256",
                  "name": "mes",
                  "type": "uint256"
                },
                {
                  "internalType": "uint256",
                  "name": "dia",
                  "type": "uint256"
                }
              ],
              "internalType": "struct ImovelRWADN404.Data",
              "name": "dataImovel",
              "type": "tuple"
            }
          ],
          "internalType": "struct ImovelRWADN404.CaracterizacaoImovel",
          "name": "descricao_",
          "type": "tuple"
        }
      ],
      "name": "setCaracterizacaoImovel",
      "outputs": [],
      "stateMutability": "nonpayable",
      "type": "function"
    },
    {
      "inputs": [
        {
          "internalType": "address",
          "name": "enderecoComprador_",
          "type": "address"
        },
        {
          "internalType": "address",
          "name": "enderecoVendedor_",
          "type": "address"
        }
      ],
      "name": "setEnderecoPartes",
      "outputs": [],
      "stateMutability": "nonpayable",
      "type": "function"
    },
    {
      "inputs": [
        {
          "components": [
            {
              "internalType": "bool",
              "name": "KYC",
              "type": "bool"
            },
            {
              "internalType": "address",
              "name": "enderecoPessoa",
              "type": "address"
            },
            {
              "internalType": "string",
              "name": "nomeCompleto",
              "type": "string"
            },
            {
              "components": [
                {
                  "internalType": "uint256",
                  "name": "ano",
                  "type": "uint256"
                },
                {
                  "internalType": "uint256",
                  "name": "mes",
                  "type": "uint256"
                },
                {
                  "internalType": "uint256",
                  "name": "dia",
                  "type": "uint256"
                }
              ],
              "internalType": "struct ImovelRWADN404.Data",
              "name": "dataNascimento",
              "type": "tuple"
            },
            {
              "internalType": "string",
              "name": "numeroIdentidade",
              "type": "string"
            },
            {
              "internalType": "string",
              "name": "emissorRG",
              "type": "string"
            },
            {
              "components": [
                {
                  "internalType": "uint256",
                  "name": "ano",
                  "type": "uint256"
                },
                {
                  "internalType": "uint256",
                  "name": "mes",
                  "type": "uint256"
                },
                {
                  "internalType": "uint256",
                  "name": "dia",
                  "type": "uint256"
                }
              ],
              "internalType": "struct ImovelRWADN404.Data",
              "name": "dataEmissao",
              "type": "tuple"
            },
            {
              "internalType": "string",
              "name": "numeroCPF",
              "type": "string"
            },
            {
              "internalType": "string",
              "name": "statusCPF",
              "type": "string"
            },
            {
              "internalType": "string",
              "name": "estadoCivil",
              "type": "string"
            },
            {
              "components": [
                {
                  "internalType": "string",
                  "name": "tipo",
                  "type": "string"
                },
                {
                  "internalType": "string",
                  "name": "rua",
                  "type": "string"
                },
                {
                  "internalType": "uint16",
                  "name": "numero",
                  "type": "uint16"
                },
                {
                  "internalType": "string",
                  "name": "complemento",
                  "type": "string"
                },
                {
                  "internalType": "string",
                  "name": "bairro",
                  "type": "string"
                },
                {
                  "internalType": "string",
                  "name": "cidade",
                  "type": "string"
                },
                {
                  "internalType": "string",
                  "name": "estado",
                  "type": "string"
                },
                {
                  "internalType": "string",
                  "name": "pais",
                  "type": "string"
                },
                {
                  "internalType": "string",
                  "name": "cep",
                  "type": "string"
                }
              ],
              "internalType": "struct ImovelRWADN404.EnderecoPostal",
              "name": "enderecoPostal",
              "type": "tuple"
            },
            {
              "components": [
                {
                  "internalType": "uint256",
                  "name": "codigoInternacional",
                  "type": "uint256"
                },
                {
                  "internalType": "uint256",
                  "name": "codigoLocal",
                  "type": "uint256"
                },
                {
                  "internalType": "uint256",
                  "name": "numeroTelefone",
                  "type": "uint256"
                }
              ],
              "internalType": "struct ImovelRWADN404.Telefone",
              "name": "telefone",
              "type": "tuple"
            }
          ],
          "internalType": "struct ImovelRWADN404.PessoaFisica",
          "name": "pessoaFisica_",
          "type": "tuple"
        },
        {
          "internalType": "bool",
          "name": "kyc_",
          "type": "bool"
        }
      ],
      "name": "setKYC",
      "outputs": [],
      "stateMutability": "pure",
      "type": "function"
    },
    {
      "inputs": [
        {
          "internalType": "bool",
          "name": "skipNFT",
          "type": "bool"
        }
      ],
      "name": "setSkipNFT",
      "outputs": [
        {
          "internalType": "bool",
          "name": "",
          "type": "bool"
        }
      ],
      "stateMutability": "nonpayable",
      "type": "function"
    },
    {
      "inputs": [
        {
          "components": [
            {
              "internalType": "bool",
              "name": "KYC",
              "type": "bool"
            },
            {
              "internalType": "address",
              "name": "enderecoPessoa",
              "type": "address"
            },
            {
              "internalType": "string",
              "name": "nomeCompleto",
              "type": "string"
            },
            {
              "components": [
                {
                  "internalType": "uint256",
                  "name": "ano",
                  "type": "uint256"
                },
                {
                  "internalType": "uint256",
                  "name": "mes",
                  "type": "uint256"
                },
                {
                  "internalType": "uint256",
                  "name": "dia",
                  "type": "uint256"
                }
              ],
              "internalType": "struct ImovelRWADN404.Data",
              "name": "dataNascimento",
              "type": "tuple"
            },
            {
              "internalType": "string",
              "name": "numeroIdentidade",
              "type": "string"
            },
            {
              "internalType": "string",
              "name": "emissorRG",
              "type": "string"
            },
            {
              "components": [
                {
                  "internalType": "uint256",
                  "name": "ano",
                  "type": "uint256"
                },
                {
                  "internalType": "uint256",
                  "name": "mes",
                  "type": "uint256"
                },
                {
                  "internalType": "uint256",
                  "name": "dia",
                  "type": "uint256"
                }
              ],
              "internalType": "struct ImovelRWADN404.Data",
              "name": "dataEmissao",
              "type": "tuple"
            },
            {
              "internalType": "string",
              "name": "numeroCPF",
              "type": "string"
            },
            {
              "internalType": "string",
              "name": "statusCPF",
              "type": "string"
            },
            {
              "internalType": "string",
              "name": "estadoCivil",
              "type": "string"
            },
            {
              "components": [
                {
                  "internalType": "string",
                  "name": "tipo",
                  "type": "string"
                },
                {
                  "internalType": "string",
                  "name": "rua",
                  "type": "string"
                },
                {
                  "internalType": "uint16",
                  "name": "numero",
                  "type": "uint16"
                },
                {
                  "internalType": "string",
                  "name": "complemento",
                  "type": "string"
                },
                {
                  "internalType": "string",
                  "name": "bairro",
                  "type": "string"
                },
                {
                  "internalType": "string",
                  "name": "cidade",
                  "type": "string"
                },
                {
                  "internalType": "string",
                  "name": "estado",
                  "type": "string"
                },
                {
                  "internalType": "string",
                  "name": "pais",
                  "type": "string"
                },
                {
                  "internalType": "string",
                  "name": "cep",
                  "type": "string"
                }
              ],
              "internalType": "struct ImovelRWADN404.EnderecoPostal",
              "name": "enderecoPostal",
              "type": "tuple"
            },
            {
              "components": [
                {
                  "internalType": "uint256",
                  "name": "codigoInternacional",
                  "type": "uint256"
                },
                {
                  "internalType": "uint256",
                  "name": "codigoLocal",
                  "type": "uint256"
                },
                {
                  "internalType": "uint256",
                  "name": "numeroTelefone",
                  "type": "uint256"
                }
              ],
              "internalType": "struct ImovelRWADN404.Telefone",
              "name": "telefone",
              "type": "tuple"
            }
          ],
          "internalType": "struct ImovelRWADN404.PessoaFisica",
          "name": "titular_",
          "type": "tuple"
        }
      ],
      "name": "setTitular",
      "outputs": [],
      "stateMutability": "nonpayable",
      "type": "function"
    },
    {
      "inputs": [],
      "name": "symbol",
      "outputs": [
        {
          "internalType": "string",
          "name": "",
          "type": "string"
        }
      ],
      "stateMutability": "view",
      "type": "function"
    },
    {
      "inputs": [],
      "name": "totalSupply",
      "outputs": [
        {
          "internalType": "uint256",
          "name": "",
          "type": "uint256"
        }
      ],
      "stateMutability": "view",
      "type": "function"
    },
    {
      "inputs": [
        {
          "internalType": "address",
          "name": "to",
          "type": "address"
        },
        {
          "internalType": "uint256",
          "name": "amount",
          "type": "uint256"
        }
      ],
      "name": "transfer",
      "outputs": [
        {
          "internalType": "bool",
          "name": "",
          "type": "bool"
        }
      ],
      "stateMutability": "nonpayable",
      "type": "function"
    },
    {
      "inputs": [
        {
          "internalType": "address",
          "name": "from",
          "type": "address"
        },
        {
          "internalType": "address",
          "name": "to",
          "type": "address"
        },
        {
          "internalType": "uint256",
          "name": "amount",
          "type": "uint256"
        }
      ],
      "name": "transferFrom",
      "outputs": [
        {
          "internalType": "bool",
          "name": "",
          "type": "bool"
        }
      ],
      "stateMutability": "nonpayable",
      "type": "function"
    },
    {
      "inputs": [
        {
          "internalType": "address",
          "name": "newOwner",
          "type": "address"
        }
      ],
      "name": "transferOwnership",
      "outputs": [],
      "stateMutability": "payable",
      "type": "function"
    },
    {
      "inputs": [],
      "name": "withdraw",
      "outputs": [],
      "stateMutability": "nonpayable",
      "type": "function"
    },
    {
      "stateMutability": "payable",
      "type": "receive"
    }
  ],
  "bytecode": "0x60806040523480156200001157600080fd5b5068056bc75e2d63100000336200002e336200012360201b60201c565b6040518060400160405280601281526020017f496d6f76656c2052574120444e412d343034000000000000000000000000000081525060009081620000749190620009fc565b506040518060400160405280600981526020017f49525741444e343034000000000000000000000000000000000000000000000081525060019081620000bb9190620009fc565b50600033604051620000cd9062000774565b620000d9919062000b28565b604051809103906000f080158015620000f6573d6000803e3d6000fd5b5090506200011a836bffffffffffffffffffffffff1683836200020960201b60201c565b50505062000b45565b620001336200058360201b60201c565b15620001b1577fffffffffffffffffffffffffffffffffffffffffffffffffffffffff748739278054156200017057630dc149f06000526004601cfd5b8160601b60601c9150811560ff1b821781558160007f8be0079c531659141344cd1fd0a4f28419497f9722a3daafe3b4186f6b6457e0600080a35062000206565b8060601b60601c9050807fffffffffffffffffffffffffffffffffffffffffffffffffffffffff74873927558060007f8be0079c531659141344cd1fd0a4f28419497f9722a3daafe3b4186f6b6457e0600080a35b50565b60006200021b6200058860201b60201c565b90506bffffffffffffffffffffffff60016200023c6200059960201b60201c565b031062000275576040517f997c4ef400000000000000000000000000000000000000000000000000000000815260040160405180910390fd5b600073ffffffffffffffffffffffffffffffffffffffff168160010160009054906101000a900473ffffffffffffffffffffffffffffffffffffffff1673ffffffffffffffffffffffffffffffffffffffff161462000300576040517fead4d2e400000000000000000000000000000000000000000000000000000000815260040160405180910390fd5b600073ffffffffffffffffffffffffffffffffffffffff168273ffffffffffffffffffffffffffffffffffffffff160362000367576040517f39a84a7b00000000000000000000000000000000000000000000000000000000815260040160405180910390fd5b630f4599e560005233602052602060006024601c6000865af1600160005114166200039a5763d125259c6000526004601cfd5b60018160000160046101000a81548163ffffffff021916908363ffffffff160217905550818160010160006101000a81548173ffffffffffffffffffffffffffffffffffffffff021916908373ffffffffffffffffffffffffffffffffffffffff160217905550600084146200057d57600073ffffffffffffffffffffffffffffffffffffffff168373ffffffffffffffffffffffffffffffffffffffff160362000471576040517fea553b3400000000000000000000000000000000000000000000000000000000815260040160405180910390fd5b6200048284620005a960201b60201c565b15620004ba576040517fe5cfe95700000000000000000000000000000000000000000000000000000000815260040160405180910390fd5b838160000160146101000a8154816bffffffffffffffffffffffff02191690836bffffffffffffffffffffffff16021790555060006200050084620005d660201b60201c565b9050848160000160146101000a8154816bffffffffffffffffffffffff02191690836bffffffffffffffffffffffff160217905550846000528360601b60601c60007fddf252ad1be2c89b69c2b068fc378daa952ba7f163c4a11628f55a4df523b3ef60206000a36200057b846001620006ad60201b60201c565b505b50505050565b600090565b600068a20d6e21d0e5255308905090565b6000670de0b6b3a7640000905090565b600080620005bc6200059960201b60201c565b905080830463fffffffe108360601c171515915050919050565b6000620005e86200058860201b60201c565b600b0160008373ffffffffffffffffffffffffffffffffffffffff1673ffffffffffffffffffffffffffffffffffffffff168152602001908152602001600020905062000652600182600001600b9054906101000a900460ff161660ff166200075260201b60201c565b15620006a8576000600260ff166200068062000674856200075d60201b60201c565b6200076860201b60201c565b029050600160ff16811782600001600b6101000a81548160ff021916908360ff160217905550505b919050565b6000620006c083620005d660201b60201c565b90508115156000600283600001600b9054906101000a900460ff161660ff1614151515146200071a57600281600001600b8282829054906101000a900460ff161892506101000a81548160ff021916908360ff1602179055505b8115156000528260601b60601c7fb5a1de456fff688115a4f75380060c23c8532d14ff85f687cc871456d642039360206000a2505050565b600081159050919050565b6000813b9050919050565b60008115159050919050565b6115da806200b1aa83390190565b600081519050919050565b7f4e487b7100000000000000000000000000000000000000000000000000000000600052604160045260246000fd5b7f4e487b7100000000000000000000000000000000000000000000000000000000600052602260045260246000fd5b600060028204905060018216806200080457607f821691505b6020821081036200081a5762000819620007bc565b5b50919050565b60008190508160005260206000209050919050565b60006020601f8301049050919050565b600082821b905092915050565b600060088302620008847fffffffffffffffffffffffffffffffffffffffffffffffffffffffffffffffff8262000845565b62000890868362000845565b95508019841693508086168417925050509392505050565b6000819050919050565b6000819050919050565b6000620008dd620008d7620008d184620008a8565b620008b2565b620008a8565b9050919050565b6000819050919050565b620008f983620008bc565b620009116200090882620008e4565b84845462000852565b825550505050565b600090565b6200092862000919565b62000935818484620008ee565b505050565b5b818110156200095d57620009516000826200091e565b6001810190506200093b565b5050565b601f821115620009ac57620009768162000820565b620009818462000835565b8101602085101562000991578190505b620009a9620009a08562000835565b8301826200093a565b50505b505050565b600082821c905092915050565b6000620009d160001984600802620009b1565b1980831691505092915050565b6000620009ec8383620009be565b9150826002028217905092915050565b62000a078262000782565b67ffffffffffffffff81111562000a235762000a226200078d565b5b62000a2f8254620007eb565b62000a3c82828562000961565b600060209050601f83116001811462000a74576000841562000a5f578287015190505b62000a6b8582620009de565b86555062000adb565b601f19841662000a848662000820565b60005b8281101562000aae5784890151825560018201915060208501945060208101905062000a87565b8683101562000ace578489015162000aca601f891682620009be565b8355505b6001600288020188555050505b505050505050565b600073ffffffffffffffffffffffffffffffffffffffff82169050919050565b600062000b108262000ae3565b9050919050565b62000b228162000b03565b82525050565b600060208201905062000b3f600083018462000b17565b92915050565b61a6558062000b556000396000f3fe6080604052600436106101e75760003560e01c806370a0823111610102578063b719d1fc11610095578063f04e283e11610064578063f04e283e14610b3d578063f2fde38b14610b59578063f5cd84e014610b75578063fee81cf414610ba0576101fb565b8063b719d1fc14610a6f578063c026585814610aac578063dd62ed3e14610ad7578063df00a93614610b14576101fb565b806399873b61116100d157806399873b61146109b75780639d455d55146109e0578063a9059cbb14610a09578063a9a61d1d14610a46576101fb565b806370a082311461091a578063715018a6146109575780638da5cb5b1461096157806395d89b411461098c576101fb565b8063313ce5671161017a5780634ef41efc116101495780634ef41efc1461087b57806354d1f13d146108a657806355f804b3146108b057806357d09b86146108d9576101fb565b8063313ce567146107d35780633c79bbc4146107fe5780633ccfd60b1461083b57806340c10f1914610852576101fb565b806323b872dd116101b657806323b872dd14610712578063256929621461074f578063274e430b146107595780632a6a935d14610796576101fb565b806306fdde0314610654578063095ea7b31461067f57806314b19753146106bc57806318160ddd146106e7576101fb565b366101fb57600034146101f957600080fd5b005b6000610205610bdd565b9050600060e06102156000610bee565b901c905063e5eb36c881036102e8578160010160009054906101000a900473ffffffffffffffffffffffffffffffffffffffff1673ffffffffffffffffffffffffffffffffffffffff163373ffffffffffffffffffffffffffffffffffffffff16146102ad576040517fce5a776b00000000000000000000000000000000000000000000000000000000815260040160405180910390fd5b6102dd6102ba6004610bee565b6102c46024610bee565b6102ce6044610bee565b6102d86064610bee565b610bf9565b6102e76001611216565b5b63813500fc81036103b1578160010160009054906101000a900473ffffffffffffffffffffffffffffffffffffffff1673ffffffffffffffffffffffffffffffffffffffff163373ffffffffffffffffffffffffffffffffffffffff161461037c576040517fce5a776b00000000000000000000000000000000000000000000000000000000815260040160405180910390fd5b6103a66103896004610bee565b60006103956024610bee565b14156103a16044610bee565b611220565b6103b06001611216565b5b63e985e9c581036103ef5760006103da6103cb6004610bee565b6103d56024610bee565b61124a565b90506103ed6103e882611276565b611216565b505b636352211e810361042b5761042a61040f61040a6004610bee565b611282565b73ffffffffffffffffffffffffffffffffffffffff16611216565b5b632435987981036104675761046661044b6104466004610bee565b6112d3565b73ffffffffffffffffffffffffffffffffffffffff16611216565b5b63d10b6e0c8103610546578160010160009054906101000a900473ffffffffffffffffffffffffffffffffffffffff1673ffffffffffffffffffffffffffffffffffffffff163373ffffffffffffffffffffffffffffffffffffffff16146104fb576040517fce5a776b00000000000000000000000000000000000000000000000000000000815260040160405180910390fd5b600061052361050a6004610bee565b6105146024610bee565b61051e6044610bee565b611346565b90506105448173ffffffffffffffffffffffffffffffffffffffff16611216565b505b63081812fc8103610582576105816105666105616004610bee565b6114c1565b73ffffffffffffffffffffffffffffffffffffffff16611216565b5b63f5b100ea81036105a8576105a76105a261059d6004610bee565b611546565b611216565b5b63e2c7928181036105c4576105c36105be6115b1565b611216565b5b63c87b56dd810361060c5760206040510160405260006105ec6105e76004610bee565b6115da565b90506020810360408251016000818301526020825280601f01601f191682f35b63b7a94eb88103610622576106216001611216565b5b6040517f3c10b94e00000000000000000000000000000000000000000000000000000000815260040160405180910390fd5b34801561066057600080fd5b50610669611625565b6040516106769190618b77565b60405180910390f35b34801561068b57600080fd5b506106a660048036038101906106a19190618c41565b6116b7565b6040516106b39190618c9c565b60405180910390f35b3480156106c857600080fd5b506106d16116ce565b6040516106de9190618b77565b60405180910390f35b3480156106f357600080fd5b506106fc61170b565b6040516107099190618cc6565b60405180910390f35b34801561071e57600080fd5b5061073960048036038101906107349190618ce1565b611744565b6040516107469190618c9c565b60405180910390f35b6107576118d4565b005b34801561076557600080fd5b50610780600480360381019061077b9190618d34565b611928565b60405161078d9190618c9c565b60405180910390f35b3480156107a257600080fd5b506107bd60048036038101906107b89190618d8d565b6119d0565b6040516107ca9190618c9c565b60405180910390f35b3480156107df57600080fd5b506107e86119e5565b6040516107f59190618dd6565b60405180910390f35b34801561080a57600080fd5b50610825600480360381019061082091906193da565b6119ee565b6040516108329190618c9c565b60405180910390f35b34801561084757600080fd5b506108506119fc565b005b34801561085e57600080fd5b5061087960048036038101906108749190618c41565b611a0f565b005b34801561088757600080fd5b50610890611a25565b60405161089d9190619432565b60405180910390f35b6108ae611a58565b005b3480156108bc57600080fd5b506108d760048036038101906108d291906194ad565b611a94565b005b3480156108e557600080fd5b5061090060048036038101906108fb91906194fa565b611ab2565b604051610911959493929190619527565b60405180910390f35b34801561092657600080fd5b50610941600480360381019061093c9190618d34565b611c90565b60405161094e9190618cc6565b60405180910390f35b61095f611d0b565b005b34801561096d57600080fd5b50610976611d1f565b6040516109839190619432565b60405180910390f35b34801561099857600080fd5b506109a1611d48565b6040516109ae9190618b77565b60405180910390f35b3480156109c357600080fd5b506109de60048036038101906109d9919061958f565b611dda565b005b3480156109ec57600080fd5b50610a076004803603810190610a0291906196f4565b611e66565b005b348015610a1557600080fd5b50610a306004803603810190610a2b9190618c41565b611fd5565b604051610a3d9190618c9c565b60405180910390f35b348015610a5257600080fd5b50610a6d6004803603810190610a6891906193da565b611fec565b005b348015610a7b57600080fd5b50610a966004803603810190610a91919061958f565b612246565b604051610aa39190619d7e565b60405180910390f35b348015610ab857600080fd5b50610ac1614e0e565b604051610ace9190619ed0565b60405180910390f35b348015610ae357600080fd5b50610afe6004803603810190610af9919061958f565b615761565b604051610b0b9190618cc6565b60405180910390f35b348015610b2057600080fd5b50610b3b6004803603810190610b369190619ef2565b615874565b005b610b576004803603810190610b529190618d34565b615888565b005b610b736004803603810190610b6e9190618d34565b6158c9565b005b348015610b8157600080fd5b50610b8a6158f3565b604051610b97919061a000565b60405180910390f35b348015610bac57600080fd5b50610bc76004803603810190610bc29190618d34565b615fce565b604051610bd49190618cc6565b60405180910390f35b600068a20d6e21d0e5255308905090565b600081359050919050565b600073ffffffffffffffffffffffffffffffffffffffff168373ffffffffffffffffffffffffffffffffffffffff1603610c5f576040517fea553b3400000000000000000000000000000000000000000000000000000000815260040160405180910390fd5b6000610c69610bdd565b9050600073ffffffffffffffffffffffffffffffffffffffff168160010160009054906101000a900473ffffffffffffffffffffffffffffffffffffffff1673ffffffffffffffffffffffffffffffffffffffff1603610cf5576040517f40739bf000000000000000000000000000000000000000000000000000000000815260040160405180910390fd5b600081600a019050816002016000610d1d83610d18610d1389615fe9565b615ffc565b61600c565b63ffffffff1663ffffffff16815260200190815260200160002060009054906101000a900473ffffffffffffffffffffffffffffffffffffffff1673ffffffffffffffffffffffffffffffffffffffff168673ffffffffffffffffffffffffffffffffffffffff1614610dbc576040517fa114810000000000000000000000000000000000000000000000000000000000815260040160405180910390fd5b8573ffffffffffffffffffffffffffffffffffffffff168373ffffffffffffffffffffffffffffffffffffffff1614610e6c57610df9868461124a565b610e6b578273ffffffffffffffffffffffffffffffffffffffff16610e1d856114c1565b73ffffffffffffffffffffffffffffffffffffffff1614610e6a576040517f59c896be00000000000000000000000000000000000000000000000000000000815260040160405180910390fd5b5b5b600082600b0160008873ffffffffffffffffffffffffffffffffffffffff1673ffffffffffffffffffffffffffffffffffffffff1681526020019081526020016000209050600083600b0160008873ffffffffffffffffffffffffffffffffffffffff1673ffffffffffffffffffffffffffffffffffffffff16815260200190815260200160002090506000610f00616030565b9050600085600801905060008460000160149054906101000a90046bffffffffffffffffffffffff166bffffffffffffffffffffffff16905080831115610f73576040517ff4d678b800000000000000000000000000000000000000000000000000000000815260040160405180910390fd5b8281038560000160146101000a8154816bffffffffffffffffffffffff02191690836bffffffffffffffffffffffff160217905550828460000160148282829054906101000a90046bffffffffffffffffffffffff160192506101000a8154816bffffffffffffffffffffffff02191690836bffffffffffffffffffffffff160217905550506110068660050189616040565b156110535761101a8660050189600061605e565b85600401600089815260200190815260200160002060006101000a81549073ffffffffffffffffffffffffffffffffffffffff02191690555b60008160008c73ffffffffffffffffffffffffffffffffffffffff1673ffffffffffffffffffffffffffffffffffffffff168152602001908152602001600020905060006110de8287600001601081819054906101000a900463ffffffff166001900391906101000a81548163ffffffff021916908363ffffffff160217905563ffffffff1661600c565b905060006110f4886110ef8d616082565b61600c565b9050611107838263ffffffff1684616095565b6111208861111a8463ffffffff16616082565b83616095565b505050600083600001601081819054906101000a900463ffffffff168092919060010191906101000a81548163ffffffff021916908363ffffffff16021790555090506111b18260008c73ffffffffffffffffffffffffffffffffffffffff1673ffffffffffffffffffffffffffffffffffffffff1681526020019081526020016000208263ffffffff168b616095565b6111c6868a6111c0878e6160c0565b846161d5565b506111d28a8a8a616217565b816000528860601b60601c8a60601b60601c7fddf252ad1be2c89b69c2b068fc378daa952ba7f163c4a11628f55a4df523b3ef60206000a350505050505050505050565b8060005260206000f35b61122982611276565b61123e611234610bdd565b600301838661621c565b60000181905550505050565b600061126d61126461125a610bdd565b600301858561621c565b6000015461623d565b15905092915050565b60008115159050919050565b600061128d82616248565b6112c3576040517fceea21b600000000000000000000000000000000000000000000000000000000815260040160405180910390fd5b6112cc826112d3565b9050919050565b6000806112de610bdd565b905080600201600061130383600a016112fe6112f988615fe9565b615ffc565b61600c565b63ffffffff1663ffffffff16815260200190815260200160002060009054906101000a900473ffffffffffffffffffffffffffffffffffffffff16915050919050565b600080611351610bdd565b905080600201600061137683600a0161137161136c89615fe9565b615ffc565b61600c565b63ffffffff1663ffffffff16815260200190815260200160002060009054906101000a900473ffffffffffffffffffffffffffffffffffffffff1691508173ffffffffffffffffffffffffffffffffffffffff168373ffffffffffffffffffffffffffffffffffffffff1614611427576113f0828461124a565b611426576040517fcfb3b94200000000000000000000000000000000000000000000000000000000815260040160405180910390fd5b5b8481600401600086815260200190815260200160002060006101000a81548173ffffffffffffffffffffffffffffffffffffffff021916908373ffffffffffffffffffffffffffffffffffffffff1602179055506114b98160050185600073ffffffffffffffffffffffffffffffffffffffff168873ffffffffffffffffffffffffffffffffffffffff16141561605e565b509392505050565b60006114cc82616248565b611502576040517fceea21b600000000000000000000000000000000000000000000000000000000815260040160405180910390fd5b61150a610bdd565b600401600083815260200190815260200160002060009054906101000a900473ffffffffffffffffffffffffffffffffffffffff169050919050565b6000611550610bdd565b600b0160008373ffffffffffffffffffffffffffffffffffffffff1673ffffffffffffffffffffffffffffffffffffffff16815260200190815260200160002060000160109054906101000a900463ffffffff1663ffffffff169050919050565b60006115bb610bdd565b60000160109054906101000a900463ffffffff1663ffffffff16905090565b60606000600280546115eb9061a051565b9050146116205760026115fd83616289565b60405160200161160e92919061a156565b60405160208183030381529060405290505b919050565b6060600080546116349061a051565b80601f01602080910402602001604051908101604052809291908181526020018280546116609061a051565b80156116ad5780601f10611682576101008083540402835291602001916116ad565b820191906000526020600020905b81548152906001019060200180831161169057829003601f168201915b5050505050905090565b60006116c43384846162da565b6001905092915050565b60606040518060400160405280600b81526020017f5265616c20457374617465000000000000000000000000000000000000000000815250905090565b6000611715610bdd565b60000160149054906101000a90046bffffffffffffffffffffffff166bffffffffffffffffffffffff16905090565b60008061175c611752610bdd565b600701863361621c565b905060006117686163ff565b80156117ae57506e22d473030f116ddee9f6b43ac78ba373ffffffffffffffffffffffffffffffffffffffff163373ffffffffffffffffffffffffffffffffffffffff16145b801561181d575061181c60046117c2610bdd565b600b0160008973ffffffffffffffffffffffffffffffffffffffff1673ffffffffffffffffffffffffffffffffffffffff168152602001908152602001600020600001600b9054906101000a900460ff161660ff1661623d565b5b61182b57816000015461184d565b7fffffffffffffffffffffffffffffffffffffffffffffffffffffffffffffffff5b90507fffffffffffffffffffffffffffffffffffffffffffffffffffffffffffffffff81146118bc57808411156118b0576040517f13be252b00000000000000000000000000000000000000000000000000000000815260040160405180910390fd5b83810382600001819055505b6118c7868686616404565b6001925050509392505050565b60006118de61700a565b67ffffffffffffffff164201905063389a75e1600c5233600052806020600c2055337fdbf36a107da19e49527a7176a1babf963b4b0ff8cde35ee35d6cd8f1f9ac7e1d600080a250565b600080611933610bdd565b600b0160008473ffffffffffffffffffffffffffffffffffffffff1673ffffffffffffffffffffffffffffffffffffffff1681526020019081526020016000209050611995600182600001600b9054906101000a900460ff161660ff1661623d565b156119ab576119a383617015565b9150506119cb565b6000600282600001600b9054906101000a900460ff161660ff1614159150505b919050565b60006119dc3383617020565b60019050919050565b60006012905090565b600081600001519050919050565b611a046170bc565b611a0d336170f4565b565b611a176170bc565b611a218282617113565b5050565b6000611a2f610bdd565b60010160009054906101000a900473ffffffffffffffffffffffffffffffffffffffff16905090565b63389a75e1600c523360005260006020600c2055337ffa7b8eab7da67f412cc9575ed43464468f9bfbae89d1675917346ca6d8fe3c92600080a2565b611a9c6170bc565b818160029182611aad92919061a31c565b505050565b602d8181548110611ac257600080fd5b9060005260206000209060070201600091509050806000018054611ae59061a051565b80601f0160208091040260200160405190810160405280929190818152602001828054611b119061a051565b8015611b5e5780601f10611b3357610100808354040283529160200191611b5e565b820191906000526020600020905b815481529060010190602001808311611b4157829003601f168201915b505050505090806002015490806003015490806004018054611b7f9061a051565b80601f0160208091040260200160405190810160405280929190818152602001828054611bab9061a051565b8015611bf85780601f10611bcd57610100808354040283529160200191611bf8565b820191906000526020600020905b815481529060010190602001808311611bdb57829003601f168201915b505050505090806005018054611c0d9061a051565b80601f0160208091040260200160405190810160405280929190818152602001828054611c399061a051565b8015611c865780601f10611c5b57610100808354040283529160200191611c86565b820191906000526020600020905b815481529060010190602001808311611c6957829003601f168201915b5050505050905085565b6000611c9a610bdd565b600b0160008373ffffffffffffffffffffffffffffffffffffffff1673ffffffffffffffffffffffffffffffffffffffff16815260200190815260200160002060000160149054906101000a90046bffffffffffffffffffffffff166bffffffffffffffffffffffff169050919050565b611d136170bc565b611d1d6000617719565b565b60007fffffffffffffffffffffffffffffffffffffffffffffffffffffffff7487392754905090565b606060018054611d579061a051565b80601f0160208091040260200160405190810160405280929190818152602001828054611d839061a051565b8015611dd05780601f10611da557610100808354040283529160200191611dd0565b820191906000526020600020905b815481529060010190602001808311611db357829003601f168201915b5050505050905090565b81603060000160016101000a81548173ffffffffffffffffffffffffffffffffffffffff021916908373ffffffffffffffffffffffffffffffffffffffff16021790555080604960000160016101000a81548173ffffffffffffffffffffffffffffffffffffffff021916908373ffffffffffffffffffffffffffffffffffffffff1602179055505050565b611e6e6170bc565b80601c6000820151816000019081611e86919061a3ec565b506020820151816001016000820151816000019081611ea5919061a3ec565b506020820151816001019081611ebb919061a3ec565b5060408201518160020160006101000a81548161ffff021916908361ffff1602179055506060820151816003019081611ef4919061a3ec565b506080820151816004019081611f0a919061a3ec565b5060a0820151816005019081611f20919061a3ec565b5060c0820151816006019081611f36919061a3ec565b5060e0820151816007019081611f4c919061a3ec565b50610100820151816008019081611f63919061a3ec565b505050604082015181600a0155606082015181600b0155608082015181600c019081611f8f919061a3ec565b5060a082015181600d019081611fa5919061a3ec565b5060c082015181600e01600082015181600001556020820151816001015560408201518160020155505090505050565b6000611fe2338484616404565b6001905092915050565b611ff46170bc565b80600360008201518160000160006101000a81548160ff02191690831515021790555060208201518160000160016101000a81548173ffffffffffffffffffffffffffffffffffffffff021916908373ffffffffffffffffffffffffffffffffffffffff1602179055506040820151816001019081612073919061a3ec565b50606082015181600201600082015181600001556020820151816001015560408201518160020155505060808201518160050190816120b2919061a3ec565b5060a08201518160060190816120c8919061a3ec565b5060c082015181600701600082015181600001556020820151816001015560408201518160020155505060e082015181600a019081612107919061a3ec565b5061010082015181600b01908161211e919061a3ec565b5061012082015181600c019081612135919061a3ec565b5061014082015181600d016000820151816000019081612155919061a3ec565b50602082015181600101908161216b919061a3ec565b5060408201518160020160006101000a81548161ffff021916908361ffff16021790555060608201518160030190816121a4919061a3ec565b5060808201518160040190816121ba919061a3ec565b5060a08201518160050190816121d0919061a3ec565b5060c08201518160060190816121e6919061a3ec565b5060e08201518160070190816121fc919061a3ec565b50610100820151816008019081612213919061a3ec565b50505061016082015181601601600082015181600001556020820151816001015560408201518160020155505090505050565b61224e618870565b6122588383611dda565b6122606177e1565b612268617a9a565b612bb86030604051806101800160405290816000820160009054906101000a900460ff161515151581526020016000820160019054906101000a900473ffffffffffffffffffffffffffffffffffffffff1673ffffffffffffffffffffffffffffffffffffffff1673ffffffffffffffffffffffffffffffffffffffff1681526020016001820180546122fa9061a051565b80601f01602080910402602001604051908101604052809291908181526020018280546123269061a051565b80156123735780601f1061234857610100808354040283529160200191612373565b820191906000526020600020905b81548152906001019060200180831161235657829003601f168201915b5050505050815260200160028201604051806060016040529081600082015481526020016001820154815260200160028201548152505081526020016005820180546123be9061a051565b80601f01602080910402602001604051908101604052809291908181526020018280546123ea9061a051565b80156124375780601f1061240c57610100808354040283529160200191612437565b820191906000526020600020905b81548152906001019060200180831161241a57829003601f168201915b505050505081526020016006820180546124509061a051565b80601f016020809104026020016040519081016040528092919081815260200182805461247c9061a051565b80156124c95780601f1061249e576101008083540402835291602001916124c9565b820191906000526020600020905b8154815290600101906020018083116124ac57829003601f168201915b505050505081526020016007820160405180606001604052908160008201548152602001600182015481526020016002820154815250508152602001600a820180546125149061a051565b80601f01602080910402602001604051908101604052809291908181526020018280546125409061a051565b801561258d5780601f106125625761010080835404028352916020019161258d565b820191906000526020600020905b81548152906001019060200180831161257057829003601f168201915b50505050508152602001600b820180546125a69061a051565b80601f01602080910402602001604051908101604052809291908181526020018280546125d29061a051565b801561261f5780601f106125f45761010080835404028352916020019161261f565b820191906000526020600020905b81548152906001019060200180831161260257829003601f168201915b50505050508152602001600c820180546126389061a051565b80601f01602080910402602001604051908101604052809291908181526020018280546126649061a051565b80156126b15780601f10612686576101008083540402835291602001916126b1565b820191906000526020600020905b81548152906001019060200180831161269457829003601f168201915b50505050508152602001600d8201604051806101200160405290816000820180546126db9061a051565b80601f01602080910402602001604051908101604052809291908181526020018280546127079061a051565b80156127545780601f1061272957610100808354040283529160200191612754565b820191906000526020600020905b81548152906001019060200180831161273757829003601f168201915b5050505050815260200160018201805461276d9061a051565b80601f01602080910402602001604051908101604052809291908181526020018280546127999061a051565b80156127e65780601f106127bb576101008083540402835291602001916127e6565b820191906000526020600020905b8154815290600101906020018083116127c957829003601f168201915b505050505081526020016002820160009054906101000a900461ffff1661ffff1661ffff16815260200160038201805461281f9061a051565b80601f016020809104026020016040519081016040528092919081815260200182805461284b9061a051565b80156128985780601f1061286d57610100808354040283529160200191612898565b820191906000526020600020905b81548152906001019060200180831161287b57829003601f168201915b505050505081526020016004820180546128b19061a051565b80601f01602080910402602001604051908101604052809291908181526020018280546128dd9061a051565b801561292a5780601f106128ff5761010080835404028352916020019161292a565b820191906000526020600020905b81548152906001019060200180831161290d57829003601f168201915b505050505081526020016005820180546129439061a051565b80601f016020809104026020016040519081016040528092919081815260200182805461296f9061a051565b80156129bc5780601f10612991576101008083540402835291602001916129bc565b820191906000526020600020905b81548152906001019060200180831161299f57829003601f168201915b505050505081526020016006820180546129d59061a051565b80601f0160208091040260200160405190810160405280929190818152602001828054612a019061a051565b8015612a4e5780601f10612a2357610100808354040283529160200191612a4e565b820191906000526020600020905b815481529060010190602001808311612a3157829003601f168201915b50505050508152602001600782018054612a679061a051565b80601f0160208091040260200160405190810160405280929190818152602001828054612a939061a051565b8015612ae05780601f10612ab557610100808354040283529160200191612ae0565b820191906000526020600020905b815481529060010190602001808311612ac357829003601f168201915b50505050508152602001600882018054612af99061a051565b80601f0160208091040260200160405190810160405280929190818152602001828054612b259061a051565b8015612b725780601f10612b4757610100808354040283529160200191612b72565b820191906000526020600020905b815481529060010190602001808311612b5557829003601f168201915b5050505050815250508152602001601682016040518060600160405290816000820154815260200160018201548152602001600282015481525050815250506001615874565b6135086049604051806101800160405290816000820160009054906101000a900460ff161515151581526020016000820160019054906101000a900473ffffffffffffffffffffffffffffffffffffffff1673ffffffffffffffffffffffffffffffffffffffff1673ffffffffffffffffffffffffffffffffffffffff168152602001600182018054612c4a9061a051565b80601f0160208091040260200160405190810160405280929190818152602001828054612c769061a051565b8015612cc35780601f10612c9857610100808354040283529160200191612cc3565b820191906000526020600020905b815481529060010190602001808311612ca657829003601f168201915b505050505081526020016002820160405180606001604052908160008201548152602001600182015481526020016002820154815250508152602001600582018054612d0e9061a051565b80601f0160208091040260200160405190810160405280929190818152602001828054612d3a9061a051565b8015612d875780601f10612d5c57610100808354040283529160200191612d87565b820191906000526020600020905b815481529060010190602001808311612d6a57829003601f168201915b50505050508152602001600682018054612da09061a051565b80601f0160208091040260200160405190810160405280929190818152602001828054612dcc9061a051565b8015612e195780601f10612dee57610100808354040283529160200191612e19565b820191906000526020600020905b815481529060010190602001808311612dfc57829003601f168201915b505050505081526020016007820160405180606001604052908160008201548152602001600182015481526020016002820154815250508152602001600a82018054612e649061a051565b80601f0160208091040260200160405190810160405280929190818152602001828054612e909061a051565b8015612edd5780601f10612eb257610100808354040283529160200191612edd565b820191906000526020600020905b815481529060010190602001808311612ec057829003601f168201915b50505050508152602001600b82018054612ef69061a051565b80601f0160208091040260200160405190810160405280929190818152602001828054612f229061a051565b8015612f6f5780601f10612f4457610100808354040283529160200191612f6f565b820191906000526020600020905b815481529060010190602001808311612f5257829003601f168201915b50505050508152602001600c82018054612f889061a051565b80601f0160208091040260200160405190810160405280929190818152602001828054612fb49061a051565b80156130015780601f10612fd657610100808354040283529160200191613001565b820191906000526020600020905b815481529060010190602001808311612fe457829003601f168201915b50505050508152602001600d82016040518061012001604052908160008201805461302b9061a051565b80601f01602080910402602001604051908101604052809291908181526020018280546130579061a051565b80156130a45780601f10613079576101008083540402835291602001916130a4565b820191906000526020600020905b81548152906001019060200180831161308757829003601f168201915b505050505081526020016001820180546130bd9061a051565b80601f01602080910402602001604051908101604052809291908181526020018280546130e99061a051565b80156131365780601f1061310b57610100808354040283529160200191613136565b820191906000526020600020905b81548152906001019060200180831161311957829003601f168201915b505050505081526020016002820160009054906101000a900461ffff1661ffff1661ffff16815260200160038201805461316f9061a051565b80601f016020809104026020016040519081016040528092919081815260200182805461319b9061a051565b80156131e85780601f106131bd576101008083540402835291602001916131e8565b820191906000526020600020905b8154815290600101906020018083116131cb57829003601f168201915b505050505081526020016004820180546132019061a051565b80601f016020809104026020016040519081016040528092919081815260200182805461322d9061a051565b801561327a5780601f1061324f5761010080835404028352916020019161327a565b820191906000526020600020905b81548152906001019060200180831161325d57829003601f168201915b505050505081526020016005820180546132939061a051565b80601f01602080910402602001604051908101604052809291908181526020018280546132bf9061a051565b801561330c5780601f106132e15761010080835404028352916020019161330c565b820191906000526020600020905b8154815290600101906020018083116132ef57829003601f168201915b505050505081526020016006820180546133259061a051565b80601f01602080910402602001604051908101604052809291908181526020018280546133519061a051565b801561339e5780601f106133735761010080835404028352916020019161339e565b820191906000526020600020905b81548152906001019060200180831161338157829003601f168201915b505050505081526020016007820180546133b79061a051565b80601f01602080910402602001604051908101604052809291908181526020018280546133e39061a051565b80156134305780601f1061340557610100808354040283529160200191613430565b820191906000526020600020905b81548152906001019060200180831161341357829003601f168201915b505050505081526020016008820180546134499061a051565b80601f01602080910402602001604051908101604052809291908181526020018280546134759061a051565b80156134c25780601f10613497576101008083540402835291602001916134c2565b820191906000526020600020905b8154815290600101906020018083116134a557829003601f168201915b5050505050815250508152602001601682016040518060600160405290816000820154815260200160018201548152602001600282015481525050815250506001615874565b613e566049604051806101800160405290816000820160009054906101000a900460ff161515151581526020016000820160019054906101000a900473ffffffffffffffffffffffffffffffffffffffff1673ffffffffffffffffffffffffffffffffffffffff1673ffffffffffffffffffffffffffffffffffffffff16815260200160018201805461359a9061a051565b80601f01602080910402602001604051908101604052809291908181526020018280546135c69061a051565b80156136135780601f106135e857610100808354040283529160200191613613565b820191906000526020600020905b8154815290600101906020018083116135f657829003601f168201915b50505050508152602001600282016040518060600160405290816000820154815260200160018201548152602001600282015481525050815260200160058201805461365e9061a051565b80601f016020809104026020016040519081016040528092919081815260200182805461368a9061a051565b80156136d75780601f106136ac576101008083540402835291602001916136d7565b820191906000526020600020905b8154815290600101906020018083116136ba57829003601f168201915b505050505081526020016006820180546136f09061a051565b80601f016020809104026020016040519081016040528092919081815260200182805461371c9061a051565b80156137695780601f1061373e57610100808354040283529160200191613769565b820191906000526020600020905b81548152906001019060200180831161374c57829003601f168201915b505050505081526020016007820160405180606001604052908160008201548152602001600182015481526020016002820154815250508152602001600a820180546137b49061a051565b80601f01602080910402602001604051908101604052809291908181526020018280546137e09061a051565b801561382d5780601f106138025761010080835404028352916020019161382d565b820191906000526020600020905b81548152906001019060200180831161381057829003601f168201915b50505050508152602001600b820180546138469061a051565b80601f01602080910402602001604051908101604052809291908181526020018280546138729061a051565b80156138bf5780601f10613894576101008083540402835291602001916138bf565b820191906000526020600020905b8154815290600101906020018083116138a257829003601f168201915b50505050508152602001600c820180546138d89061a051565b80601f01602080910402602001604051908101604052809291908181526020018280546139049061a051565b80156139515780601f1061392657610100808354040283529160200191613951565b820191906000526020600020905b81548152906001019060200180831161393457829003601f168201915b50505050508152602001600d82016040518061012001604052908160008201805461397b9061a051565b80601f01602080910402602001604051908101604052809291908181526020018280546139a79061a051565b80156139f45780601f106139c9576101008083540402835291602001916139f4565b820191906000526020600020905b8154815290600101906020018083116139d757829003601f168201915b50505050508152602001600182018054613a0d9061a051565b80601f0160208091040260200160405190810160405280929190818152602001828054613a399061a051565b8015613a865780601f10613a5b57610100808354040283529160200191613a86565b820191906000526020600020905b815481529060010190602001808311613a6957829003601f168201915b505050505081526020016002820160009054906101000a900461ffff1661ffff1661ffff168152602001600382018054613abf9061a051565b80601f0160208091040260200160405190810160405280929190818152602001828054613aeb9061a051565b8015613b385780601f10613b0d57610100808354040283529160200191613b38565b820191906000526020600020905b815481529060010190602001808311613b1b57829003601f168201915b50505050508152602001600482018054613b519061a051565b80601f0160208091040260200160405190810160405280929190818152602001828054613b7d9061a051565b8015613bca5780601f10613b9f57610100808354040283529160200191613bca565b820191906000526020600020905b815481529060010190602001808311613bad57829003601f168201915b50505050508152602001600582018054613be39061a051565b80601f0160208091040260200160405190810160405280929190818152602001828054613c0f9061a051565b8015613c5c5780601f10613c3157610100808354040283529160200191613c5c565b820191906000526020600020905b815481529060010190602001808311613c3f57829003601f168201915b50505050508152602001600682018054613c759061a051565b80601f0160208091040260200160405190810160405280929190818152602001828054613ca19061a051565b8015613cee5780601f10613cc357610100808354040283529160200191613cee565b820191906000526020600020905b815481529060010190602001808311613cd157829003601f168201915b50505050508152602001600782018054613d079061a051565b80601f0160208091040260200160405190810160405280929190818152602001828054613d339061a051565b8015613d805780601f10613d5557610100808354040283529160200191613d80565b820191906000526020600020905b815481529060010190602001808311613d6357829003601f168201915b50505050508152602001600882018054613d999061a051565b80601f0160208091040260200160405190810160405280929190818152602001828054613dc59061a051565b8015613e125780601f10613de757610100808354040283529160200191613e12565b820191906000526020600020905b815481529060010190602001808311613df557829003601f168201915b505050505081525050815260200160168201604051806060016040529081600082015481526020016001820154815260200160028201548152505081525050611fec565b602f603090806001815401808255809150506001900390600052602060002090601902016000909190919091506000820160009054906101000a900460ff168160000160006101000a81548160ff0219169083151502179055506000820160019054906101000a900473ffffffffffffffffffffffffffffffffffffffff168160000160016101000a81548173ffffffffffffffffffffffffffffffffffffffff021916908373ffffffffffffffffffffffffffffffffffffffff16021790555060018201816001019081613f2b919061a4d4565b506002820181600201600082015481600001556001820154816001015560028201548160020155505060058201816005019081613f68919061a4d4565b5060068201816006019081613f7d919061a4d4565b5060078201816007016000820154816000015560018201548160010155600282015481600201555050600a820181600a019081613fba919061a4d4565b50600b820181600b019081613fcf919061a4d4565b50600c820181600c019081613fe4919061a4d4565b50600d820181600d0160008201816000019081614001919061a4d4565b5060018201816001019081614016919061a4d4565b506002820160009054906101000a900461ffff168160020160006101000a81548161ffff021916908361ffff1602179055506003820181600301908161405c919061a4d4565b5060048201816004019081614071919061a4d4565b5060058201816005019081614086919061a4d4565b506006820181600601908161409b919061a4d4565b50600782018160070190816140b0919061a4d4565b50600882018160080190816140c5919061a4d4565b505050601682018160160160008201548160000155600182015481600101556002820154816002015550505050602f604990806001815401808255809150506001900390600052602060002090601902016000909190919091506000820160009054906101000a900460ff168160000160006101000a81548160ff0219169083151502179055506000820160019054906101000a900473ffffffffffffffffffffffffffffffffffffffff168160000160016101000a81548173ffffffffffffffffffffffffffffffffffffffff021916908373ffffffffffffffffffffffffffffffffffffffff160217905550600182018160010190816141c7919061a4d4565b506002820181600201600082015481600001556001820154816001015560028201548160020155505060058201816005019081614204919061a4d4565b5060068201816006019081614219919061a4d4565b5060078201816007016000820154816000015560018201548160010155600282015481600201555050600a820181600a019081614256919061a4d4565b50600b820181600b01908161426b919061a4d4565b50600c820181600c019081614280919061a4d4565b50600d820181600d016000820181600001908161429d919061a4d4565b50600182018160010190816142b2919061a4d4565b506002820160009054906101000a900461ffff168160020160006101000a81548161ffff021916908361ffff160217905550600382018160030190816142f8919061a4d4565b506004820181600401908161430d919061a4d4565b5060058201816005019081614322919061a4d4565b5060068201816006019081614337919061a4d4565b506007820181600701908161434c919061a4d4565b5060088201816008019081614361919061a4d4565b505050601682018160160160008201548160000155600182015481600101556002820154816002015550505050606060006040518060e001604052806040518060400160405280600e81526020017f636f6d70726120652076656e64610000000000000000000000000000000000008152508152602001602f805480602002602001604051908101604052809291908181526020016000905b82821015614d655783829060005260206000209060190201604051806101800160405290816000820160009054906101000a900460ff161515151581526020016000820160019054906101000a900473ffffffffffffffffffffffffffffffffffffffff1673ffffffffffffffffffffffffffffffffffffffff1673ffffffffffffffffffffffffffffffffffffffff16815260200160018201805461449f9061a051565b80601f01602080910402602001604051908101604052809291908181526020018280546144cb9061a051565b80156145185780601f106144ed57610100808354040283529160200191614518565b820191906000526020600020905b8154815290600101906020018083116144fb57829003601f168201915b5050505050815260200160028201604051806060016040529081600082015481526020016001820154815260200160028201548152505081526020016005820180546145639061a051565b80601f016020809104026020016040519081016040528092919081815260200182805461458f9061a051565b80156145dc5780601f106145b1576101008083540402835291602001916145dc565b820191906000526020600020905b8154815290600101906020018083116145bf57829003601f168201915b505050505081526020016006820180546145f59061a051565b80601f01602080910402602001604051908101604052809291908181526020018280546146219061a051565b801561466e5780601f106146435761010080835404028352916020019161466e565b820191906000526020600020905b81548152906001019060200180831161465157829003601f168201915b505050505081526020016007820160405180606001604052908160008201548152602001600182015481526020016002820154815250508152602001600a820180546146b99061a051565b80601f01602080910402602001604051908101604052809291908181526020018280546146e59061a051565b80156147325780601f1061470757610100808354040283529160200191614732565b820191906000526020600020905b81548152906001019060200180831161471557829003601f168201915b50505050508152602001600b8201805461474b9061a051565b80601f01602080910402602001604051908101604052809291908181526020018280546147779061a051565b80156147c45780601f10614799576101008083540402835291602001916147c4565b820191906000526020600020905b8154815290600101906020018083116147a757829003601f168201915b50505050508152602001600c820180546147dd9061a051565b80601f01602080910402602001604051908101604052809291908181526020018280546148099061a051565b80156148565780601f1061482b57610100808354040283529160200191614856565b820191906000526020600020905b81548152906001019060200180831161483957829003601f168201915b50505050508152602001600d8201604051806101200160405290816000820180546148809061a051565b80601f01602080910402602001604051908101604052809291908181526020018280546148ac9061a051565b80156148f95780601f106148ce576101008083540402835291602001916148f9565b820191906000526020600020905b8154815290600101906020018083116148dc57829003601f168201915b505050505081526020016001820180546149129061a051565b80601f016020809104026020016040519081016040528092919081815260200182805461493e9061a051565b801561498b5780601f106149605761010080835404028352916020019161498b565b820191906000526020600020905b81548152906001019060200180831161496e57829003601f168201915b505050505081526020016002820160009054906101000a900461ffff1661ffff1661ffff1681526020016003820180546149c49061a051565b80601f01602080910402602001604051908101604052809291908181526020018280546149f09061a051565b8015614a3d5780601f10614a1257610100808354040283529160200191614a3d565b820191906000526020600020905b815481529060010190602001808311614a2057829003601f168201915b50505050508152602001600482018054614a569061a051565b80601f0160208091040260200160405190810160405280929190818152602001828054614a829061a051565b8015614acf5780601f10614aa457610100808354040283529160200191614acf565b820191906000526020600020905b815481529060010190602001808311614ab257829003601f168201915b50505050508152602001600582018054614ae89061a051565b80601f0160208091040260200160405190810160405280929190818152602001828054614b149061a051565b8015614b615780601f10614b3657610100808354040283529160200191614b61565b820191906000526020600020905b815481529060010190602001808311614b4457829003601f168201915b50505050508152602001600682018054614b7a9061a051565b80601f0160208091040260200160405190810160405280929190818152602001828054614ba69061a051565b8015614bf35780601f10614bc857610100808354040283529160200191614bf3565b820191906000526020600020905b815481529060010190602001808311614bd657829003601f168201915b50505050508152602001600782018054614c0c9061a051565b80601f0160208091040260200160405190810160405280929190818152602001828054614c389061a051565b8015614c855780601f10614c5a57610100808354040283529160200191614c85565b820191906000526020600020905b815481529060010190602001808311614c6857829003601f168201915b50505050508152602001600882018054614c9e9061a051565b80601f0160208091040260200160405190810160405280929190818152602001828054614cca9061a051565b8015614d175780601f10614cec57610100808354040283529160200191614d17565b820191906000526020600020905b815481529060010190602001808311614cfa57829003601f168201915b505050505081525050815260200160168201604051806060016040529081600082015481526020016001820154815260200160028201548152505081525050815260200190600101906143fa565b5050505081526020016305f5e1008152602001680364bfe054bb74000081526020016040518060400160405280600781526020017f612076697374610000000000000000000000000000000000000000000000000081525081526020016040518060400160405280600881526020017f6f6e20636861696e0000000000000000000000000000000000000000000000008152508152602001838152509050809250505092915050565b614e166188ad565b6003604051806101800160405290816000820160009054906101000a900460ff161515151581526020016000820160019054906101000a900473ffffffffffffffffffffffffffffffffffffffff1673ffffffffffffffffffffffffffffffffffffffff1673ffffffffffffffffffffffffffffffffffffffff168152602001600182018054614ea59061a051565b80601f0160208091040260200160405190810160405280929190818152602001828054614ed19061a051565b8015614f1e5780601f10614ef357610100808354040283529160200191614f1e565b820191906000526020600020905b815481529060010190602001808311614f0157829003601f168201915b505050505081526020016002820160405180606001604052908160008201548152602001600182015481526020016002820154815250508152602001600582018054614f699061a051565b80601f0160208091040260200160405190810160405280929190818152602001828054614f959061a051565b8015614fe25780601f10614fb757610100808354040283529160200191614fe2565b820191906000526020600020905b815481529060010190602001808311614fc557829003601f168201915b50505050508152602001600682018054614ffb9061a051565b80601f01602080910402602001604051908101604052809291908181526020018280546150279061a051565b80156150745780601f1061504957610100808354040283529160200191615074565b820191906000526020600020905b81548152906001019060200180831161505757829003601f168201915b505050505081526020016007820160405180606001604052908160008201548152602001600182015481526020016002820154815250508152602001600a820180546150bf9061a051565b80601f01602080910402602001604051908101604052809291908181526020018280546150eb9061a051565b80156151385780601f1061510d57610100808354040283529160200191615138565b820191906000526020600020905b81548152906001019060200180831161511b57829003601f168201915b50505050508152602001600b820180546151519061a051565b80601f016020809104026020016040519081016040528092919081815260200182805461517d9061a051565b80156151ca5780601f1061519f576101008083540402835291602001916151ca565b820191906000526020600020905b8154815290600101906020018083116151ad57829003601f168201915b50505050508152602001600c820180546151e39061a051565b80601f016020809104026020016040519081016040528092919081815260200182805461520f9061a051565b801561525c5780601f106152315761010080835404028352916020019161525c565b820191906000526020600020905b81548152906001019060200180831161523f57829003601f168201915b50505050508152602001600d8201604051806101200160405290816000820180546152869061a051565b80601f01602080910402602001604051908101604052809291908181526020018280546152b29061a051565b80156152ff5780601f106152d4576101008083540402835291602001916152ff565b820191906000526020600020905b8154815290600101906020018083116152e257829003601f168201915b505050505081526020016001820180546153189061a051565b80601f01602080910402602001604051908101604052809291908181526020018280546153449061a051565b80156153915780601f1061536657610100808354040283529160200191615391565b820191906000526020600020905b81548152906001019060200180831161537457829003601f168201915b505050505081526020016002820160009054906101000a900461ffff1661ffff1661ffff1681526020016003820180546153ca9061a051565b80601f01602080910402602001604051908101604052809291908181526020018280546153f69061a051565b80156154435780601f1061541857610100808354040283529160200191615443565b820191906000526020600020905b81548152906001019060200180831161542657829003601f168201915b5050505050815260200160048201805461545c9061a051565b80601f01602080910402602001604051908101604052809291908181526020018280546154889061a051565b80156154d55780601f106154aa576101008083540402835291602001916154d5565b820191906000526020600020905b8154815290600101906020018083116154b857829003601f168201915b505050505081526020016005820180546154ee9061a051565b80601f016020809104026020016040519081016040528092919081815260200182805461551a9061a051565b80156155675780601f1061553c57610100808354040283529160200191615567565b820191906000526020600020905b81548152906001019060200180831161554a57829003601f168201915b505050505081526020016006820180546155809061a051565b80601f01602080910402602001604051908101604052809291908181526020018280546155ac9061a051565b80156155f95780601f106155ce576101008083540402835291602001916155f9565b820191906000526020600020905b8154815290600101906020018083116155dc57829003601f168201915b505050505081526020016007820180546156129061a051565b80601f016020809104026020016040519081016040528092919081815260200182805461563e9061a051565b801561568b5780601f106156605761010080835404028352916020019161568b565b820191906000526020600020905b81548152906001019060200180831161566e57829003601f168201915b505050505081526020016008820180546156a49061a051565b80601f01602080910402602001604051908101604052809291908181526020018280546156d09061a051565b801561571d5780601f106156f25761010080835404028352916020019161571d565b820191906000526020600020905b81548152906001019060200180831161570057829003601f168201915b505050505081525050815260200160168201604051806060016040529081600082015481526020016001820154815260200160028201548152505081525050905090565b600061576b6163ff565b80156157b157506e22d473030f116ddee9f6b43ac78ba373ffffffffffffffffffffffffffffffffffffffff168273ffffffffffffffffffffffffffffffffffffffff16145b156158525760006157c0610bdd565b600b0160008573ffffffffffffffffffffffffffffffffffffffff1673ffffffffffffffffffffffffffffffffffffffff168152602001908152602001600020600001600b9054906101000a900460ff1690506158226004821660ff1661623d565b15615850577fffffffffffffffffffffffffffffffffffffffffffffffffffffffffffffffff91505061586e565b505b61586761585d610bdd565b600701848461621c565b6000015490505b92915050565b808260000190151590811515815250505050565b6158906170bc565b63389a75e1600c52806000526020600c2080544211156158b857636f5e88186000526004601cfd5b60008155506158c681617719565b50565b6158d16170bc565b8060601b6158e757637448fbae6000526004601cfd5b6158f081617719565b50565b6158fb61893e565b601c6040518060e00160405290816000820180546159189061a051565b80601f01602080910402602001604051908101604052809291908181526020018280546159449061a051565b80156159915780601f1061596657610100808354040283529160200191615991565b820191906000526020600020905b81548152906001019060200180831161597457829003601f168201915b5050505050815260200160018201604051806101200160405290816000820180546159bb9061a051565b80601f01602080910402602001604051908101604052809291908181526020018280546159e79061a051565b8015615a345780601f10615a0957610100808354040283529160200191615a34565b820191906000526020600020905b815481529060010190602001808311615a1757829003601f168201915b50505050508152602001600182018054615a4d9061a051565b80601f0160208091040260200160405190810160405280929190818152602001828054615a799061a051565b8015615ac65780601f10615a9b57610100808354040283529160200191615ac6565b820191906000526020600020905b815481529060010190602001808311615aa957829003601f168201915b505050505081526020016002820160009054906101000a900461ffff1661ffff1661ffff168152602001600382018054615aff9061a051565b80601f0160208091040260200160405190810160405280929190818152602001828054615b2b9061a051565b8015615b785780601f10615b4d57610100808354040283529160200191615b78565b820191906000526020600020905b815481529060010190602001808311615b5b57829003601f168201915b50505050508152602001600482018054615b919061a051565b80601f0160208091040260200160405190810160405280929190818152602001828054615bbd9061a051565b8015615c0a5780601f10615bdf57610100808354040283529160200191615c0a565b820191906000526020600020905b815481529060010190602001808311615bed57829003601f168201915b50505050508152602001600582018054615c239061a051565b80601f0160208091040260200160405190810160405280929190818152602001828054615c4f9061a051565b8015615c9c5780601f10615c7157610100808354040283529160200191615c9c565b820191906000526020600020905b815481529060010190602001808311615c7f57829003601f168201915b50505050508152602001600682018054615cb59061a051565b80601f0160208091040260200160405190810160405280929190818152602001828054615ce19061a051565b8015615d2e5780601f10615d0357610100808354040283529160200191615d2e565b820191906000526020600020905b815481529060010190602001808311615d1157829003601f168201915b50505050508152602001600782018054615d479061a051565b80601f0160208091040260200160405190810160405280929190818152602001828054615d739061a051565b8015615dc05780601f10615d9557610100808354040283529160200191615dc0565b820191906000526020600020905b815481529060010190602001808311615da357829003601f168201915b50505050508152602001600882018054615dd99061a051565b80601f0160208091040260200160405190810160405280929190818152602001828054615e059061a051565b8015615e525780601f10615e2757610100808354040283529160200191615e52565b820191906000526020600020905b815481529060010190602001808311615e3557829003601f168201915b5050505050815250508152602001600a8201548152602001600b8201548152602001600c82018054615e839061a051565b80601f0160208091040260200160405190810160405280929190818152602001828054615eaf9061a051565b8015615efc5780601f10615ed157610100808354040283529160200191615efc565b820191906000526020600020905b815481529060010190602001808311615edf57829003601f168201915b50505050508152602001600d82018054615f159061a051565b80601f0160208091040260200160405190810160405280929190818152602001828054615f419061a051565b8015615f8e5780601f10615f6357610100808354040283529160200191615f8e565b820191906000526020600020905b815481529060010190602001808311615f7157829003601f168201915b50505050508152602001600e8201604051806060016040529081600082015481526020016001820154815260200160028201548152505081525050905090565b600063389a75e1600c52816000526020600c20549050919050565b6000640100000000821082029050919050565b60006001808303901b9050919050565b60008160031c8360601b0180546007841660051b1c63ffffffff1691505092915050565b6000670de0b6b3a7640000905090565b60008160081c8360601b0180548360ff161c60011691505092915050565b8160081c8360601b018260ff16821515811b6001821b198354161782555050505050565b600060018060018403901b019050919050565b8160031c8360601b016007831660051b815480821c841863ffffffff16821b81188355505050505050565b6000806160cb610bdd565b905083600001600c9054906101000a900463ffffffff1691506160f38263ffffffff1661623d565b156161ce5780600001600081819054906101000a900463ffffffff1660010191906101000a81548163ffffffff021916908363ffffffff160217905591508184600001600c6101000a81548163ffffffff021916908363ffffffff160217905550828160020160008463ffffffff1663ffffffff16815260200190815260200160002060006101000a81548173ffffffffffffffffffffffffffffffffffffffff021916908373ffffffffffffffffffffffffffffffffffffffff1602179055506161c38263ffffffff1661623d565b156161cd57600080fd5b5b5092915050565b600183038060021c8560601b0180546003831660061b8563ffffffff168560201b178083831c1867ffffffffffffffff16821b83188455505050505050505050565b505050565b60008160285282601452836000526048600020905060006028529392505050565b600081159050919050565b60008073ffffffffffffffffffffffffffffffffffffffff1661626a836112d3565b73ffffffffffffffffffffffffffffffffffffffff1614159050919050565b60606080604051019050602081016040526000815280600019835b6001156162c5578184019350600a81066030018453600a81049050806162a4575b50828203602084039350808452505050919050565b6162e26163ff565b801561632857506e22d473030f116ddee9f6b43ac78ba373ffffffffffffffffffffffffffffffffffffffff168273ffffffffffffffffffffffffffffffffffffffff16145b156163a5576004616337610bdd565b600b0160008573ffffffffffffffffffffffffffffffffffffffff1673ffffffffffffffffffffffffffffffffffffffff168152602001908152602001600020600001600b8282829054906101000a900460ff161792506101000a81548160ff021916908360ff1602179055505b806163bb6163b1610bdd565b600701858561621c565b60000181905550806000528160601b60601c8360601b60601c7f8c5be1e5ebec7d5bd14f71427d1e84f3dd0314c0f7b2291e5b200ac8c7c3b92560206000a3505050565b600090565b600073ffffffffffffffffffffffffffffffffffffffff168273ffffffffffffffffffffffffffffffffffffffff160361646a576040517fea553b3400000000000000000000000000000000000000000000000000000000815260040160405180910390fd5b6000616474610bdd565b9050600081600b0160008673ffffffffffffffffffffffffffffffffffffffff1673ffffffffffffffffffffffffffffffffffffffff168152602001908152602001600020905060006164c6856184fc565b9050600073ffffffffffffffffffffffffffffffffffffffff168360010160009054906101000a900473ffffffffffffffffffffffffffffffffffffffff1673ffffffffffffffffffffffffffffffffffffffff1603616552576040517f40739bf000000000000000000000000000000000000000000000000000000000815260040160405180910390fd5b61655a618987565b8260000160109054906101000a900463ffffffff1663ffffffff168160400181815250508160000160109054906101000a900463ffffffff1663ffffffff1681606001818152505060008360000160149054906101000a90046bffffffffffffffffffffffff166bffffffffffffffffffffffff1690508086111561660b576040517ff4d678b800000000000000000000000000000000000000000000000000000000815260040160405180910390fd5b8581039050808460000160146101000a8154816bffffffffffffffffffffffff02191690836bffffffffffffffffffffffff1602179055506000868460000160149054906101000a90046bffffffffffffffffffffffff166bffffffffffffffffffffffff16019050808460000160146101000a8154816bffffffffffffffffffffffff02191690836bffffffffffffffffffffffff1602179055506166cc83604001516166b7616030565b84816166c6576166c561a5bc565b5b046185b2565b8360000181815250506166f5600285600001600b9054906101000a900460ff161660ff1661623d565b15616771578773ffffffffffffffffffffffffffffffffffffffff168973ffffffffffffffffffffffffffffffffffffffff16036167425782600001518360400151038360600181815250505b61676761674d616030565b828161675c5761675b61a5bc565b5b0484606001516185b2565b8360200181815250505b505061677b6185c3565b15616a2c5760006167a1826040015161679c846000015185602001516185cc565b6185cc565b90506167ac8161623d565b156167b75750616a2c565b80826000018181510391508181525050808260200181815103915081815250508673ffffffffffffffffffffffffffffffffffffffff168873ffffffffffffffffffffffffffffffffffffffff1603616820578082606001818151019150818152505050616a2c565b600061682d828a8a6185df565b905060008660080160008b73ffffffffffffffffffffffffffffffffffffffff1673ffffffffffffffffffffffffffffffffffffffff168152602001908152602001600020905060008760080160008b73ffffffffffffffffffffffffffffffffffffffff1673ffffffffffffffffffffffffffffffffffffffff16815260200190815260200160002090506168c3868b6160c0565b8560e0019063ffffffff16908163ffffffff168152505060008560600151905084810194505b60006169038488604001805160019003908181525061600c565b63ffffffff169050616916838383616095565b6169298a600a01828960e00151856161d5565b6169338582618636565b6169408a60050182616040565b1561698d576169548a60050182600061605e565b89600401600082815260200190815260200160002060006101000a81549073ffffffffffffffffffffffffffffffffffffffff02191690555b6169988d8d83616217565b508481600101915081036168e9578086606001818152508760000160106101000a81548163ffffffff021916908363ffffffff16021790555085604001518860000160106101000a81548163ffffffff021916908363ffffffff160217905550616a26848a60010160009054906101000a900473ffffffffffffffffffffffffffffffffffffffff16618646565b50505050505b806000015181602001518560000160109054906101000a900463ffffffff1663ffffffff16010381608001818152505080608001518460000160106101000a81548163ffffffff021916908363ffffffff160217905550600084600a0190506000616aa0836020015184600001510161867a565b905085600001600c9054906101000a900463ffffffff1683610120019063ffffffff16908163ffffffff16815250506000836000015114616cd557616ae7818a60016186a5565b6000616b2184608001518860000160149054906101000a90046bffffffffffffffffffffffff166bffffffffffffffffffffffff166186b5565b905060008760080160008c73ffffffffffffffffffffffffffffffffffffffff1673ffffffffffffffffffffffffffffffffffffffff1681526020019081526020016000209050600085604001519050856000015181038660a001818152508860000160106101000a81548163ffffffff021916908363ffffffff160217905550600086610120015190505b6000616bc084846001900394508461600c565b63ffffffff169050616bd587826000806161d5565b616bdf86826186c4565b616be76186dd565b15616bfc57616bfb8b60060182600061605e565b5b8415616c1d57616c1c8b6009018380600101945063ffffffff1683616095565b5b616c2a8b60050182616040565b15616c7757616c3e8b60050182600061605e565b8a600401600082815260200190815260200160002060006101000a81549073ffffffffffffffffffffffffffffffffffffffff02191690555b616c838e600083616217565b508660a001518203616bad578315616cd0578087610120019063ffffffff16908163ffffffff168152508a600001600c6101000a81548163ffffffff021916908363ffffffff1602179055505b505050505b6000836020015114616f8b57616ced818960006186a5565b60008660080160008a73ffffffffffffffffffffffffffffffffffffffff1673ffffffffffffffffffffffffffffffffffffffff1681526020019081526020016000209050616d3c858a6160c0565b8460e0019063ffffffff16908163ffffffff16815250506000616d5d616030565b8860000160149054906101000a90046bffffffffffffffffffffffff166bffffffffffffffffffffffff1681616d9657616d9561a5bc565b5b049050616dbd8860000160049054906101000a900463ffffffff1663ffffffff16826186e6565b85610100018181525050600085606001519050856020015181018660c001818152508760000160106101000a81548163ffffffff021916908363ffffffff16021790555060008960000160089054906101000a900463ffffffff1690505b600087610120015163ffffffff168263ffffffff1614616e5b57616e4e8b6009018380600101945063ffffffff1661600c565b63ffffffff169050616edb565b87610100015190505b6000616e7888616e7384615ffc565b61600c565b63ffffffff1614616ec357616e8b6186dd565b616ea157616e9c60018201856186e6565b616ebc565b616ebb616eb58c60060160018401876186fa565b856186e6565b5b9050616e64565b616ed060018201856186e6565b886101000181815250505b616ee36186dd565b15616ef857616ef78b60060182600161605e565b5b616f03858483616095565b616f1987828a60e00151868060010197506161d5565b616f2386826186c4565b616f2f60008e83616217565b508660c001518203616e1b57808a60000160086101000a81548163ffffffff021916908363ffffffff1602179055508661010001518a60000160046101000a81548163ffffffff021916908363ffffffff160217905550505050505b600081604001515114616fc757616fc6818760010160009054906101000a900473ffffffffffffffffffffffffffffffffffffffff16618805565b5b5050846000528560601b60601c8760601b60601c7fddf252ad1be2c89b69c2b068fc378daa952ba7f163c4a11628f55a4df523b3ef60206000a350505050505050565b60006202a300905090565b6000813b9050919050565b600061702b836184fc565b90508115156000600283600001600b9054906101000a900460ff161660ff16141515151461708457600281600001600b8282829054906101000a900460ff161892506101000a81548160ff021916908360ff1602179055505b8115156000528260601b60601c7fb5a1de456fff688115a4f75380060c23c8532d14ff85f687cc871456d642039360206000a2505050565b7fffffffffffffffffffffffffffffffffffffffffffffffffffffffff748739275433146170f2576382b429006000526004601cfd5b565b60003860003847855af16171105763b12d13eb6000526004601cfd5b50565b600073ffffffffffffffffffffffffffffffffffffffff168273ffffffffffffffffffffffffffffffffffffffff1603617179576040517fea553b3400000000000000000000000000000000000000000000000000000000815260040160405180910390fd5b6000617184836184fc565b90506000617190610bdd565b9050600073ffffffffffffffffffffffffffffffffffffffff168160010160009054906101000a900473ffffffffffffffffffffffffffffffffffffffff1673ffffffffffffffffffffffffffffffffffffffff160361721c576040517f40739bf000000000000000000000000000000000000000000000000000000000815260040160405180910390fd5b6172246189e6565b6000848460000160149054906101000a90046bffffffffffffffffffffffff166bffffffffffffffffffffffff16019050808460000160146101000a8154816bffffffffffffffffffffffff02191690836bffffffffffffffffffffffff160217905550617290616030565b818161729f5761729e61a5bc565b5b0482604001818152505050600080858460000160149054906101000a90046bffffffffffffffffffffffff166bffffffffffffffffffffffff16019050808460000160146101000a8154816bffffffffffffffffffffffff02191690836bffffffffffffffffffffffff160217905550600061732261731d83618846565b611276565b90506000617331888410611276565b82171461736a576040517fe5cfe95700000000000000000000000000000000000000000000000000000000815260040160405180910390fd5b617372616030565b82816173815761738061a5bc565b5b04925050506173a6600285600001600b9054906101000a900460ff161660ff1661623d565b156176de5760008360080160008873ffffffffffffffffffffffffffffffffffffffff1673ffffffffffffffffffffffffffffffffffffffff1681526020019081526020016000209050600084600a01905060008660000160109054906101000a900463ffffffff1663ffffffff169050600061742f61742a8760400151846185b2565b61867a565b90506000816040015151146176d95761744a818b60006186a5565b8060400151518760000160108282829054906101000a900463ffffffff160192506101000a81548163ffffffff021916908363ffffffff16021790555085604001518860000160106101000a81548163ffffffff021916908363ffffffff1602179055506174b8888b6160c0565b866060019063ffffffff16908163ffffffff168152505060008760000160089054906101000a900463ffffffff16905087600001600c9054906101000a900463ffffffff16876020019063ffffffff16908163ffffffff16815250506175388860000160049054906101000a900463ffffffff1663ffffffff16876186e6565b8760000181815250505b6000876020015163ffffffff168263ffffffff161461758157617574896009018380600101945063ffffffff1661600c565b63ffffffff1690506175ff565b876000015190505b600061759d8661759884615ffc565b61600c565b63ffffffff16146175e8576175b06186dd565b6175c6576175c160018201886186e6565b6175e1565b6175e06175da8a600601600184018a6186fa565b886186e6565b5b9050617589565b6175f560018201886186e6565b8860000181815250505b6176076186dd565b1561761c5761761b8960060182600161605e565b5b617627868583616095565b61763d85828a60600151878060010198506161d5565b61764783826186c4565b61765360008d83616217565b50866040015183036175425786600001518860000160046101000a81548163ffffffff021916908363ffffffff160217905550808860000160086101000a81548163ffffffff021916908363ffffffff1602179055506176d7828960010160009054906101000a900473ffffffffffffffffffffffffffffffffffffffff16618805565b505b505050505b846000528560601b60601c60007fddf252ad1be2c89b69c2b068fc378daa952ba7f163c4a11628f55a4df523b3ef60206000a3505050505050565b61772161886b565b15617787577fffffffffffffffffffffffffffffffffffffffffffffffffffffffff748739278160601b60601c91508181547f8be0079c531659141344cd1fd0a4f28419497f9722a3daafe3b4186f6b6457e0600080a3811560ff1b82178155506177de565b7fffffffffffffffffffffffffffffffffffffffffffffffffffffffff748739278160601b60601c91508181547f8be0079c531659141344cd1fd0a4f28419497f9722a3daafe3b4186f6b6457e0600080a3818155505b50565b60006040518061012001604052806040518060400160405280600381526020017f727561000000000000000000000000000000000000000000000000000000000081525081526020016040518060400160405280600581526020017f52756120410000000000000000000000000000000000000000000000000000008152508152602001600a61ffff1681526020016040518060200160405280600081525081526020016040518060400160405280601181526020017f507261696120646520537572666973746100000000000000000000000000000081525081526020016040518060400160405280600781526020017f556261747562610000000000000000000000000000000000000000000000000081525081526020016040518060400160405280600281526020017f535000000000000000000000000000000000000000000000000000000000000081525081526020016040518060400160405280600681526020017f42726173696c000000000000000000000000000000000000000000000000000081525081526020016040518060400160405280600881526020017f31303737372d373700000000000000000000000000000000000000000000000081525081525090506000604051806060016040528061079e8152602001600781526020016001815250905060006040518060e001604052806040518060400160405280600781526020017f74657272656e6f000000000000000000000000000000000000000000000000008152508152602001848152602001629896808152602001600081526020016040518060400160405280601381526020017f74657272656e6f2061206265697261206d617200000000000000000000000000815250815260200160405180606001604052806034815260200161a5ec603491398152602001838152509050617a9581611e66565b505050565b6040518060400160405280600d81526020017f5a652064617320436f757665730000000000000000000000000000000000000081525060306001019081617ae1919061a3ec565b50600060405180606001604052806107b2815260200160048152602001600181525090508060306002016000820151816000015560208201518160010155604082015181600201559050506040518060400160405280600e81526020017f3737372e3737372e3737372d373700000000000000000000000000000000000081525060306005019081617b73919061a3ec565b506040518060400160405280600681526020017f5353502f5350000000000000000000000000000000000000000000000000000081525060306006019081617bbb919061a3ec565b50600060405180606001604052806107bc815260200160018152602001600181525090508060306007016000820151816000015560208201518160010155604082015181600201559050506040518060400160405280600e81526020017f3130382e3833322e3436332d30390000000000000000000000000000000000008152506030600a019081617c4d919061a3ec565b506040518060400160405280600781526020017f524547554c4152000000000000000000000000000000000000000000000000008152506030600b019081617c95919061a3ec565b506040518060400160405280600881526020017f736f6c746569726f0000000000000000000000000000000000000000000000008152506030600c019081617cdd919061a3ec565b506040518061012001604052806040518060400160405280600381526020017f525541000000000000000000000000000000000000000000000000000000000081525081526020016040518060400160405280600d81526020017f52756120646f7320426f626f73000000000000000000000000000000000000008152508152602001600061ffff1681526020016040518060200160405280600081525081526020016040518060400160405280601081526020017f53616e74612046656c696369646164650000000000000000000000000000000081525081526020016040518060400160405280600981526020017f53616f205061756c6f000000000000000000000000000000000000000000000081525081526020016040518060400160405280600281526020017f535000000000000000000000000000000000000000000000000000000000000081525081526020016040518060400160405280600681526020017f42726173696c000000000000000000000000000000000000000000000000000081525081526020016040518060400160405280600881526020017f30313030312d30310000000000000000000000000000000000000000000000008152508152506030600d016000820151816000019081617ebf919061a3ec565b506020820151816001019081617ed5919061a3ec565b5060408201518160020160006101000a81548161ffff021916908361ffff1602179055506060820151816003019081617f0e919061a3ec565b506080820151816004019081617f24919061a3ec565b5060a0820151816005019081617f3a919061a3ec565b5060c0820151816006019081617f50919061a3ec565b5060e0820151816007019081617f66919061a3ec565b50610100820151816008019081617f7d919061a3ec565b50905050604051806060016040528060378152602001600b8152602001633b9ac15181525060306016016000820151816000015560208201518160010155604082015181600201559050506040518060400160405280600d81526020017f5a652064612045737175696e61000000000000000000000000000000000000008152506049600101908161800f919061a3ec565b50600060405180606001604052806107b7815260200160048152602001600181525090508060496002016000820151816000015560208201518160010155604082015181600201559050506040518060400160405280600e81526020017f3838382e3838382e3838382d3838000000000000000000000000000000000000815250604960050190816180a1919061a3ec565b506040518060400160405280600681526020017f4f41422f53500000000000000000000000000000000000000000000000000000815250604960060190816180e9919061a3ec565b50600060405180606001604052806107c1815260200160018152602001600181525090508060496007016000820151816000015560208201518160010155604082015181600201559050506040518060400160405280600e81526020017f3231332e3238372e3833352d38380000000000000000000000000000000000008152506049600a01908161817b919061a3ec565b506040518060400160405280600781526020017f524547554c4152000000000000000000000000000000000000000000000000008152506049600b0190816181c3919061a3ec565b506040518060400160405280600681526020017f63617361646f00000000000000000000000000000000000000000000000000008152506049600c01908161820b919061a3ec565b506040518061012001604052806040518060400160405280600381526020017f525541000000000000000000000000000000000000000000000000000000000081525081526020016040518060400160405280601081526020017f52756120646f73204573706572746f73000000000000000000000000000000008152508152602001600a61ffff1681526020016040518060200160405280600081525081526020016040518060400160405280601081526020017f53616e7461204566696369656e6369610000000000000000000000000000000081525081526020016040518060400160405280600981526020017f47756172756c686f73000000000000000000000000000000000000000000000081525081526020016040518060400160405280600281526020017f535000000000000000000000000000000000000000000000000000000000000081525081526020016040518060400160405280600681526020017f42726173696c000000000000000000000000000000000000000000000000000081525081526020016040518060400160405280600881526020017f30313232312d33310000000000000000000000000000000000000000000000008152508152506049600d0160008201518160000190816183ed919061a3ec565b506020820151816001019081618403919061a3ec565b5060408201518160020160006101000a81548161ffff021916908361ffff160217905550606082015181600301908161843c919061a3ec565b506080820151816004019081618452919061a3ec565b5060a0820151816005019081618468919061a3ec565b5060c082015181600601908161847e919061a3ec565b5060e0820151816007019081618494919061a3ec565b506101008201518160080190816184ab919061a3ec565b50905050604051806060016040528060378152602001600b8152602001633b9ac5a8815250604960160160008201518160000155602082015181600101556040820151816002015590505050505050565b6000618506610bdd565b600b0160008373ffffffffffffffffffffffffffffffffffffffff1673ffffffffffffffffffffffffffffffffffffffff1681526020019081526020016000209050618568600182600001600b9054906101000a900460ff161660ff1661623d565b156185ad576000600260ff1661858561858085617015565b611276565b029050600160ff16811782600001600b6101000a81548160ff021916908360ff160217905550505b919050565b600081830382841102905092915050565b60006001905090565b6000828210828418028318905092915050565b6185e7618a1a565b60405163144027d381528360601b60601c60208201528260601b60601c604082015260608082015280608001858152806020018660051b81016040528184602001528084525050509392505050565b8151818152602081018352505050565b6020820151805160051b6084016080820360208183601c84016000885af160018251141661867357600081fd5b5050505050565b618682618a34565b604051828152806020018360051b81016040528183604001528083525050919050565b808260601b176020840152505050565b60008291506000905092915050565b81518160081b6020840151178152602081018352505050565b60006001905090565b600081831183838511150217905092915050565b6000801990508360601b8360081c81018054198560ff161c8560ff161b8061875a578460081c83015b600115618740576001830192508254199150808311821715618723575b808311156187585781861960ff161b861960ff161c91505b505b80156187fb57600181190181167a1412563212c14164235266736f7425221143267a452436752676777b2aaaaaaaba69a69a6db6db6db2cb2cb2ce739ce73def7bdeffffffff820260fa1c60021b1b60fc1c60051b7e1f0d1e100c1d070f090b19131c1706010e11080a1a141802121b1503160405601f83831c63d76453e004161a811790508085850360081b179050878110878211176000038117955050505b5050509392505050565b60408201516040810363263c69d68152602080820152815160051b60440160208282601c85016000885af160018351141661883f57600082fd5b5050505050565b600080618851616030565b905080830463fffffffe108360601c171515915050919050565b600090565b6040518060e00160405280606081526020016060815260200160008152602001600081526020016060815260200160608152602001606081525090565b604051806101800160405280600015158152602001600073ffffffffffffffffffffffffffffffffffffffff168152602001606081526020016188ee618a55565b81526020016060815260200160608152602001618909618a55565b815260200160608152602001606081526020016060815260200161892b618a76565b8152602001618938618ac6565b81525090565b6040518060e0016040528060608152602001618958618a76565b815260200160008152602001600081526020016060815260200160608152602001618981618a55565b81525090565b60405180610140016040528060008152602001600081526020016000815260200160008152602001600081526020016000815260200160008152602001600063ffffffff16815260200160008152602001600063ffffffff1681525090565b604051806080016040528060008152602001600063ffffffff16815260200160008152602001600063ffffffff1681525090565b604051806040016040528060008152602001606081525090565b60405180606001604052806000815260200160008152602001606081525090565b60405180606001604052806000815260200160008152602001600081525090565b6040518061012001604052806060815260200160608152602001600061ffff1681526020016060815260200160608152602001606081526020016060815260200160608152602001606081525090565b60405180606001604052806000815260200160008152602001600081525090565b600081519050919050565b600082825260208201905092915050565b60005b83811015618b21578082015181840152602081019050618b06565b60008484015250505050565b6000601f19601f8301169050919050565b6000618b4982618ae7565b618b538185618af2565b9350618b63818560208601618b03565b618b6c81618b2d565b840191505092915050565b60006020820190508181036000830152618b918184618b3e565b905092915050565b6000604051905090565b600080fd5b600080fd5b600073ffffffffffffffffffffffffffffffffffffffff82169050919050565b6000618bd882618bad565b9050919050565b618be881618bcd565b8114618bf357600080fd5b50565b600081359050618c0581618bdf565b92915050565b6000819050919050565b618c1e81618c0b565b8114618c2957600080fd5b50565b600081359050618c3b81618c15565b92915050565b60008060408385031215618c5857618c57618ba3565b5b6000618c6685828601618bf6565b9250506020618c7785828601618c2c565b9150509250929050565b60008115159050919050565b618c9681618c81565b82525050565b6000602082019050618cb16000830184618c8d565b92915050565b618cc081618c0b565b82525050565b6000602082019050618cdb6000830184618cb7565b92915050565b600080600060608486031215618cfa57618cf9618ba3565b5b6000618d0886828701618bf6565b9350506020618d1986828701618bf6565b9250506040618d2a86828701618c2c565b9150509250925092565b600060208284031215618d4a57618d49618ba3565b5b6000618d5884828501618bf6565b91505092915050565b618d6a81618c81565b8114618d7557600080fd5b50565b600081359050618d8781618d61565b92915050565b600060208284031215618da357618da2618ba3565b5b6000618db184828501618d78565b91505092915050565b600060ff82169050919050565b618dd081618dba565b82525050565b6000602082019050618deb6000830184618dc7565b92915050565b600080fd5b7f4e487b7100000000000000000000000000000000000000000000000000000000600052604160045260246000fd5b618e2e82618b2d565b810181811067ffffffffffffffff82111715618e4d57618e4c618df6565b5b80604052505050565b6000618e60618b99565b9050618e6c8282618e25565b919050565b600080fd5b600080fd5b600080fd5b600067ffffffffffffffff821115618e9b57618e9a618df6565b5b618ea482618b2d565b9050602081019050919050565b82818337600083830152505050565b6000618ed3618ece84618e80565b618e56565b905082815260208101848484011115618eef57618eee618e7b565b5b618efa848285618eb1565b509392505050565b600082601f830112618f1757618f16618e76565b5b8135618f27848260208601618ec0565b91505092915050565b600060608284031215618f4657618f45618df1565b5b618f506060618e56565b90506000618f6084828501618c2c565b6000830152506020618f7484828501618c2c565b6020830152506040618f8884828501618c2c565b60408301525092915050565b600061ffff82169050919050565b618fab81618f94565b8114618fb657600080fd5b50565b600081359050618fc881618fa2565b92915050565b60006101208284031215618fe557618fe4618df1565b5b618ff0610120618e56565b9050600082013567ffffffffffffffff8111156190105761900f618e71565b5b61901c84828501618f02565b600083015250602082013567ffffffffffffffff8111156190405761903f618e71565b5b61904c84828501618f02565b602083015250604061906084828501618fb9565b604083015250606082013567ffffffffffffffff81111561908457619083618e71565b5b61909084828501618f02565b606083015250608082013567ffffffffffffffff8111156190b4576190b3618e71565b5b6190c084828501618f02565b60808301525060a082013567ffffffffffffffff8111156190e4576190e3618e71565b5b6190f084828501618f02565b60a08301525060c082013567ffffffffffffffff81111561911457619113618e71565b5b61912084828501618f02565b60c08301525060e082013567ffffffffffffffff81111561914457619143618e71565b5b61915084828501618f02565b60e08301525061010082013567ffffffffffffffff81111561917557619174618e71565b5b61918184828501618f02565b6101008301525092915050565b6000606082840312156191a4576191a3618df1565b5b6191ae6060618e56565b905060006191be84828501618c2c565b60008301525060206191d284828501618c2c565b60208301525060406191e684828501618c2c565b60408301525092915050565b6000610240828403121561920957619208618df1565b5b619214610180618e56565b9050600061922484828501618d78565b600083015250602061923884828501618bf6565b602083015250604082013567ffffffffffffffff81111561925c5761925b618e71565b5b61926884828501618f02565b604083015250606061927c84828501618f30565b60608301525060c082013567ffffffffffffffff8111156192a05761929f618e71565b5b6192ac84828501618f02565b60808301525060e082013567ffffffffffffffff8111156192d0576192cf618e71565b5b6192dc84828501618f02565b60a0830152506101006192f184828501618f30565b60c08301525061016082013567ffffffffffffffff81111561931657619315618e71565b5b61932284828501618f02565b60e08301525061018082013567ffffffffffffffff81111561934757619346618e71565b5b61935384828501618f02565b610100830152506101a082013567ffffffffffffffff81111561937957619378618e71565b5b61938584828501618f02565b610120830152506101c082013567ffffffffffffffff8111156193ab576193aa618e71565b5b6193b784828501618fce565b610140830152506101e06193cd8482850161918e565b6101608301525092915050565b6000602082840312156193f0576193ef618ba3565b5b600082013567ffffffffffffffff81111561940e5761940d618ba8565b5b61941a848285016191f2565b91505092915050565b61942c81618bcd565b82525050565b60006020820190506194476000830184619423565b92915050565b600080fd5b600080fd5b60008083601f84011261946d5761946c618e76565b5b8235905067ffffffffffffffff81111561948a5761948961944d565b5b6020830191508360018202830111156194a6576194a5619452565b5b9250929050565b600080602083850312156194c4576194c3618ba3565b5b600083013567ffffffffffffffff8111156194e2576194e1618ba8565b5b6194ee85828601619457565b92509250509250929050565b6000602082840312156195105761950f618ba3565b5b600061951e84828501618c2c565b91505092915050565b600060a08201905081810360008301526195418188618b3e565b90506195506020830187618cb7565b61955d6040830186618cb7565b818103606083015261956f8185618b3e565b905081810360808301526195838184618b3e565b90509695505050505050565b600080604083850312156195a6576195a5618ba3565b5b60006195b485828601618bf6565b92505060206195c585828601618bf6565b9150509250929050565b600061012082840312156195e6576195e5618df1565b5b6195f060e0618e56565b9050600082013567ffffffffffffffff8111156196105761960f618e71565b5b61961c84828501618f02565b600083015250602082013567ffffffffffffffff8111156196405761963f618e71565b5b61964c84828501618fce565b602083015250604061966084828501618c2c565b604083015250606061967484828501618c2c565b606083015250608082013567ffffffffffffffff81111561969857619697618e71565b5b6196a484828501618f02565b60808301525060a082013567ffffffffffffffff8111156196c8576196c7618e71565b5b6196d484828501618f02565b60a08301525060c06196e884828501618f30565b60c08301525092915050565b60006020828403121561970a57619709618ba3565b5b600082013567ffffffffffffffff81111561972857619727618ba8565b5b619734848285016195cf565b91505092915050565b600082825260208201905092915050565b600061975982618ae7565b619763818561973d565b9350619773818560208601618b03565b61977c81618b2d565b840191505092915050565b600081519050919050565b600082825260208201905092915050565b6000819050602082019050919050565b6197bc81618c81565b82525050565b6197cb81618bcd565b82525050565b6197da81618c0b565b82525050565b6060820160008201516197f660008501826197d1565b50602082015161980960208501826197d1565b50604082015161981c60408501826197d1565b50505050565b61982b81618f94565b82525050565b600061012083016000830151848203600086015261984f828261974e565b91505060208301518482036020860152619869828261974e565b915050604083015161987e6040860182619822565b5060608301518482036060860152619896828261974e565b915050608083015184820360808601526198b0828261974e565b91505060a083015184820360a08601526198ca828261974e565b91505060c083015184820360c08601526198e4828261974e565b91505060e083015184820360e08601526198fe828261974e565b91505061010083015184820361010086015261991a828261974e565b9150508091505092915050565b60608201600082015161993d60008501826197d1565b50602082015161995060208501826197d1565b50604082015161996360408501826197d1565b50505050565b60006102408301600083015161998260008601826197b3565b50602083015161999560208601826197c2565b50604083015184820360408601526199ad828261974e565b91505060608301516199c260608601826197e0565b50608083015184820360c08601526199da828261974e565b91505060a083015184820360e08601526199f4828261974e565b91505060c0830151619a0a6101008601826197e0565b5060e0830151848203610160860152619a23828261974e565b915050610100830151848203610180860152619a3f828261974e565b9150506101208301518482036101a0860152619a5b828261974e565b9150506101408301518482036101c0860152619a778282619831565b915050610160830151619a8e6101e0860182619927565b508091505092915050565b6000619aa58383619969565b905092915050565b6000602082019050919050565b6000619ac582619787565b619acf8185619792565b935083602082028501619ae1856197a3565b8060005b85811015619b1d5784840389528151619afe8582619a99565b9450619b0983619aad565b925060208a01995050600181019050619ae5565b50829750879550505050505092915050565b600081519050919050565b600082825260208201905092915050565b6000819050602082019050919050565b6000610180830160008301518482036000860152619b79828261974e565b91505060208301518482036020860152619b93828261974e565b91505060408301518482036040860152619bad8282619969565b91505060608301518482036060860152619bc7828261974e565b91505060808301518482036080860152619be1828261974e565b91505060a0830151619bf660a08601826197e0565b5060c0830151619c0a6101008601826197e0565b5060e0830151848203610160860152619c23828261974e565b9150508091505092915050565b6000619c3c8383619b5b565b905092915050565b6000602082019050919050565b6000619c5c82619b2f565b619c668185619b3a565b935083602082028501619c7885619b4b565b8060005b85811015619cb45784840389528151619c958582619c30565b9450619ca083619c44565b925060208a01995050600181019050619c7c565b50829750879550505050505092915050565b600060e0830160008301518482036000860152619ce3828261974e565b91505060208301518482036020860152619cfd8282619aba565b9150506040830151619d1260408601826197d1565b506060830151619d2560608601826197d1565b5060808301518482036080860152619d3d828261974e565b91505060a083015184820360a0860152619d57828261974e565b91505060c083015184820360c0860152619d718282619c51565b9150508091505092915050565b60006020820190508181036000830152619d988184619cc6565b905092915050565b600061024083016000830151619db960008601826197b3565b506020830151619dcc60208601826197c2565b5060408301518482036040860152619de4828261974e565b9150506060830151619df960608601826197e0565b50608083015184820360c0860152619e11828261974e565b91505060a083015184820360e0860152619e2b828261974e565b91505060c0830151619e416101008601826197e0565b5060e0830151848203610160860152619e5a828261974e565b915050610100830151848203610180860152619e76828261974e565b9150506101208301518482036101a0860152619e92828261974e565b9150506101408301518482036101c0860152619eae8282619831565b915050610160830151619ec56101e0860182619927565b508091505092915050565b60006020820190508181036000830152619eea8184619da0565b905092915050565b60008060408385031215619f0957619f08618ba3565b5b600083013567ffffffffffffffff811115619f2757619f26618ba8565b5b619f33858286016191f2565b9250506020619f4485828601618d78565b9150509250929050565b6000610120830160008301518482036000860152619f6c828261974e565b91505060208301518482036020860152619f868282619831565b9150506040830151619f9b60408601826197d1565b506060830151619fae60608601826197d1565b5060808301518482036080860152619fc6828261974e565b91505060a083015184820360a0860152619fe0828261974e565b91505060c0830151619ff560c08601826197e0565b508091505092915050565b6000602082019050818103600083015261a01a8184619f4e565b905092915050565b7f4e487b7100000000000000000000000000000000000000000000000000000000600052602260045260246000fd5b6000600282049050600182168061a06957607f821691505b60208210810361a07c5761a07b61a022565b5b50919050565b600081905092915050565b60008190508160005260206000209050919050565b6000815461a0af8161a051565b61a0b9818661a082565b9450600182166000811461a0d4576001811461a0e95761a11c565b60ff198316865281151582028601935061a11c565b61a0f28561a08d565b60005b8381101561a1145781548189015260018201915060208101905061a0f5565b838801955050505b50505092915050565b600061a13082618ae7565b61a13a818561a082565b935061a14a818560208601618b03565b80840191505092915050565b600061a162828561a0a2565b915061a16e828461a125565b91508190509392505050565b600082905092915050565b60006020601f8301049050919050565b600082821b905092915050565b60006008830261a1d27fffffffffffffffffffffffffffffffffffffffffffffffffffffffffffffffff8261a195565b61a1dc868361a195565b95508019841693508086168417925050509392505050565b6000819050919050565b600061a21961a21461a20f84618c0b565b61a1f4565b618c0b565b9050919050565b6000819050919050565b61a2338361a1fe565b61a24761a23f8261a220565b84845461a1a2565b825550505050565b600090565b61a25c61a24f565b61a26781848461a22a565b505050565b5b8181101561a28b5761a28060008261a254565b60018101905061a26d565b5050565b601f82111561a2d05761a2a18161a08d565b61a2aa8461a185565b8101602085101561a2b9578190505b61a2cd61a2c58561a185565b83018261a26c565b50505b505050565b600082821c905092915050565b600061a2f36000198460080261a2d5565b1980831691505092915050565b600061a30c838361a2e2565b9150826002028217905092915050565b61a326838361a17a565b67ffffffffffffffff81111561a33f5761a33e618df6565b5b61a349825461a051565b61a35482828561a28f565b6000601f83116001811461a383576000841561a371578287013590505b61a37b858261a300565b86555061a3e3565b601f19841661a3918661a08d565b60005b8281101561a3b95784890135825560018201915060208501945060208101905061a394565b8683101561a3d6578489013561a3d2601f89168261a2e2565b8355505b6001600288020188555050505b50505050505050565b61a3f582618ae7565b67ffffffffffffffff81111561a40e5761a40d618df6565b5b61a418825461a051565b61a42382828561a28f565b600060209050601f83116001811461a456576000841561a444578287015190505b61a44e858261a300565b86555061a4b6565b601f19841661a4648661a08d565b60005b8281101561a48c5784890151825560018201915060208501945060208101905061a467565b8683101561a4a9578489015161a4a5601f89168261a2e2565b8355505b6001600288020188555050505b505050505050565b60008154905061a4cd8161a051565b9050919050565b81810361a4e257505061a5ba565b61a4eb8261a4be565b67ffffffffffffffff81111561a5045761a503618df6565b5b61a50e825461a051565b61a51982828561a28f565b6000601f83116001811461a548576000841561a536578287015490505b61a540858261a300565b86555061a5b3565b601f19841661a5568761a08d565b965061a5618661a08d565b60005b8281101561a5895784890154825560018201915060018501945060208101905061a564565b8683101561a5a6578489015461a5a2601f89168261a2e2565b8355505b6001600288020188555050505b5050505050505b565b7f4e487b7100000000000000000000000000000000000000000000000000000000600052601260045260246000fdfe74657272656e6f2061206265697261206d6172206e61205072616961206465205375726669697374612064652055626174756261a26469706673582212201da385be4de3821112f1e4810c4b96ef70abf1440ba6ed5f339732ce942fc76a64736f6c6343000818003360806040523480156200001157600080fd5b50604051620015da380380620015da83398181016040528101906200003791906200010b565b80620000486200009060201b60201c565b60010160006101000a81548173ffffffffffffffffffffffffffffffffffffffff021916908373ffffffffffffffffffffffffffffffffffffffff160217905550506200013d565b6000683602298b8c10b01230905090565b600080fd5b600073ffffffffffffffffffffffffffffffffffffffff82169050919050565b6000620000d382620000a6565b9050919050565b620000e581620000c6565b8114620000f157600080fd5b50565b6000815190506200010581620000da565b92915050565b600060208284031215620001245762000123620000a1565b5b60006200013484828501620000f4565b91505092915050565b61148d806200014d6000396000f3fe60806040526004361061010d5760003560e01c80636cef16e61161009557806397e5311c1161006457806397e5311c1461078e578063a22cb465146107b9578063b88d4fde146107e2578063c87b56dd146107fe578063e985e9c51461083b57610121565b80636cef16e6146106d057806370a08231146106fb5780638da5cb5b1461073857806395d89b411461076357610121565b806318160ddd116100dc57806318160ddd146105f357806323b872dd1461061e578063243598791461063a57806342842e0e146106775780636352211e1461069357610121565b806301ffc9a71461053257806306fdde031461056f578063081812fc1461059a578063095ea7b3146105d757610121565b36610121576000341461011f57600080fd5b005b600061012b610878565b9050600060e061013b6000610889565b901c905063263c69d68103610241578160000160009054906101000a900473ffffffffffffffffffffffffffffffffffffffff1673ffffffffffffffffffffffffffffffffffffffff163373ffffffffffffffffffffffffffffffffffffffff16146101d3576040517f363cb31200000000000000000000000000000000000000000000000000000000815260040160405180910390fd5b600435602401602081033560051b81015b8082146102365781358060601c816001168260a01b60a81c811583028284027fddf252ad1be2c89b69c2b068fc378daa952ba7f163c4a11628f55a4df523b3ef600038a45050508160200191506101e4565b600160005260206000f35b63144027d38103610332578160000160009054906101000a900473ffffffffffffffffffffffffffffffffffffffff1673ffffffffffffffffffffffffffffffffffffffff163373ffffffffffffffffffffffffffffffffffffffff16146102d5576040517f363cb31200000000000000000000000000000000000000000000000000000000815260040160405180910390fd5b600435602435604435602401602081033560051b81015b80821461032757813583857fddf252ad1be2c89b69c2b068fc378daa952ba7f163c4a11628f55a4df523b3ef600038a48160200191506102ec565b600160005260206000f35b630f4599e5810361050057600073ffffffffffffffffffffffffffffffffffffffff168260010160009054906101000a900473ffffffffffffffffffffffffffffffffffffffff1673ffffffffffffffffffffffffffffffffffffffff1614610428578160010160009054906101000a900473ffffffffffffffffffffffffffffffffffffffff1673ffffffffffffffffffffffffffffffffffffffff166103da6004610889565b73ffffffffffffffffffffffffffffffffffffffff1614610427576040517fc59ec47a00000000000000000000000000000000000000000000000000000000815260040160405180910390fd5b5b600073ffffffffffffffffffffffffffffffffffffffff168260000160009054906101000a900473ffffffffffffffffffffffffffffffffffffffff1673ffffffffffffffffffffffffffffffffffffffff16146104b2576040517fbf656a4600000000000000000000000000000000000000000000000000000000815260040160405180910390fd5b338260000160006101000a81548173ffffffffffffffffffffffffffffffffffffffff021916908373ffffffffffffffffffffffffffffffffffffffff160217905550600160005260206000f35b6040517f3c10b94e00000000000000000000000000000000000000000000000000000000815260040160405180910390fd5b34801561053e57600080fd5b5061055960048036038101906105549190610fd4565b610894565b604051610566919061101c565b60405180910390f35b34801561057b57600080fd5b506105846108b9565b60405161059191906110c7565b60405180910390f35b3480156105a657600080fd5b506105c160048036038101906105bc919061111f565b6108cf565b6040516105ce919061118d565b60405180910390f35b6105f160048036038101906105ec91906111d4565b6108e8565b005b3480156105ff57600080fd5b5061060861096e565b6040516106159190611223565b60405180910390f35b6106386004803603810190610633919061123e565b610985565b005b34801561064657600080fd5b50610661600480360381019061065c919061111f565b610a14565b60405161066e919061118d565b60405180910390f35b610691600480360381019061068c919061123e565b610a2d565b005b34801561069f57600080fd5b506106ba60048036038101906106b5919061111f565b610a67565b6040516106c7919061118d565b60405180910390f35b3480156106dc57600080fd5b506106e5610a80565b6040516106f2919061101c565b60405180910390f35b34801561070757600080fd5b50610722600480360381019061071d9190611291565b610bc3565b60405161072f9190611223565b60405180910390f35b34801561074457600080fd5b5061074d610bf2565b60405161075a919061118d565b60405180910390f35b34801561076f57600080fd5b50610778610c25565b60405161078591906110c7565b60405180910390f35b34801561079a57600080fd5b506107a3610c3b565b6040516107b0919061118d565b60405180910390f35b3480156107c557600080fd5b506107e060048036038101906107db91906112ea565b610cd4565b005b6107fc60048036038101906107f7919061138f565b610d59565b005b34801561080a57600080fd5b506108256004803603810190610820919061111f565b610dca565b60405161083291906110c7565b60405180910390f35b34801561084757600080fd5b50610862600480360381019061085d9190611417565b610de1565b60405161086f919061101c565b60405180910390f35b6000683602298b8c10b01230905090565b600081359050919050565b60008160e01c635b5e139f81146380ac58cd82146301ffc9a783141717915050919050565b60606108ca6306fdde036000610e29565b905090565b60006108e163081812fc836000610e8f565b9050919050565b60006108f2610c3b565b90508260601b60601c925060405163d10b6e0c600052836020528260405233606052602060006064601c34865af1601f3d1116610932573d6000823e3d81fd5b8060405260006060528284600c5160601c7f8c5be1e5ebec7d5bd14f71427d1e84f3dd0314c0f7b2291e5b200ac8c7c3b925600038a450505050565b600061098063e2c79281600080610e8f565b905090565b600061098f610c3b565b90508360601b60601c93508260601b60601c925060405163e5eb36c881528460208201528360408201528260608201523360808201526020816084601c840134865af16001825114166109e5573d6000823e3d81fd5b8284867fddf252ad1be2c89b69c2b068fc378daa952ba7f163c4a11628f55a4df523b3ef600038a45050505050565b6000610a266324359879836000610e8f565b9050919050565b610a38838383610985565b610a4182610eda565b15610a6257610a6183838360405180602001604052806000815250610ee5565b5b505050565b6000610a79636352211e836000610e8f565b9050919050565b6000806000610a8d610c3b565b9050638da5cb5b600052602060006004601c845afa80601f3d1116600c5160601c029250506000610abc610878565b905060008160020160009054906101000a900473ffffffffffffffffffffffffffffffffffffffff1690508373ffffffffffffffffffffffffffffffffffffffff168173ffffffffffffffffffffffffffffffffffffffff1614610bb857838260020160006101000a81548173ffffffffffffffffffffffffffffffffffffffff021916908373ffffffffffffffffffffffffffffffffffffffff1602179055508373ffffffffffffffffffffffffffffffffffffffff168173ffffffffffffffffffffffffffffffffffffffff167f8be0079c531659141344cd1fd0a4f28419497f9722a3daafe3b4186f6b6457e060405160405180910390a35b600194505050505090565b6000610beb63f5b100ea8373ffffffffffffffffffffffffffffffffffffffff166000610e8f565b9050919050565b6000610bfc610878565b60020160009054906101000a900473ffffffffffffffffffffffffffffffffffffffff16905090565b6060610c366395d89b416000610e29565b905090565b6000610c45610878565b60000160009054906101000a900473ffffffffffffffffffffffffffffffffffffffff169050600073ffffffffffffffffffffffffffffffffffffffff168173ffffffffffffffffffffffffffffffffffffffff1603610cd1576040517f5b2a47ae00000000000000000000000000000000000000000000000000000000815260040160405180910390fd5b90565b6000610cde610c3b565b90508260601b60601c925060405163813500fc6000528360205282151560405233606052602060006064601c34865af160016000511416610d22573d6000823e3d81fd5b83337f17307eab39ab6107e8899845ad3d59bd9653f200f220920489ca2b5937696c3160206040a380604052600060605250505050565b610d64858585610985565b610d6d84610eda565b15610dc357610dc285858585858080601f016020809104026020016040519081016040528093929190818152602001838380828437600081840152601f19601f82011690508083019250505050505050610ee5565b5b5050505050565b6060610dda63c87b56dd83610e29565b9050919050565b600080610e1f63e985e9c58573ffffffffffffffffffffffffffffffffffffffff168573ffffffffffffffffffffffffffffffffffffffff16610e8f565b1415905092915050565b60606000610e35610c3b565b9050604051915083600052826020526000806024601c845afa610e5b573d6000833e3d82fd5b60206000803e6020600051833e8151602060005101602084013e815160208301016000815260208101604052505092915050565b600080610e9a610c3b565b9050604051856000528460205283604052602060006044601c855afa601f3d1116610ec8573d6000823e3d81fd5b80604052600051925050509392505050565b6000813b9050919050565b60405163150b7a028082523360208301528560601b60601c604083015283606083015260808083015282518060a08401528015610f2c578060c08401826020870160045afa505b60208360a48301601c860160008a5af1610f50573d15610f4f573d6000843e3d83fd5b5b8160e01b835114610f695763d1a57ed66000526004601cfd5b50505050505050565b600080fd5b600080fd5b60007fffffffff0000000000000000000000000000000000000000000000000000000082169050919050565b610fb181610f7c565b8114610fbc57600080fd5b50565b600081359050610fce81610fa8565b92915050565b600060208284031215610fea57610fe9610f72565b5b6000610ff884828501610fbf565b91505092915050565b60008115159050919050565b61101681611001565b82525050565b6000602082019050611031600083018461100d565b92915050565b600081519050919050565b600082825260208201905092915050565b60005b83811015611071578082015181840152602081019050611056565b60008484015250505050565b6000601f19601f8301169050919050565b600061109982611037565b6110a38185611042565b93506110b3818560208601611053565b6110bc8161107d565b840191505092915050565b600060208201905081810360008301526110e1818461108e565b905092915050565b6000819050919050565b6110fc816110e9565b811461110757600080fd5b50565b600081359050611119816110f3565b92915050565b60006020828403121561113557611134610f72565b5b60006111438482850161110a565b91505092915050565b600073ffffffffffffffffffffffffffffffffffffffff82169050919050565b60006111778261114c565b9050919050565b6111878161116c565b82525050565b60006020820190506111a2600083018461117e565b92915050565b6111b18161116c565b81146111bc57600080fd5b50565b6000813590506111ce816111a8565b92915050565b600080604083850312156111eb576111ea610f72565b5b60006111f9858286016111bf565b925050602061120a8582860161110a565b9150509250929050565b61121d816110e9565b82525050565b60006020820190506112386000830184611214565b92915050565b60008060006060848603121561125757611256610f72565b5b6000611265868287016111bf565b9350506020611276868287016111bf565b92505060406112878682870161110a565b9150509250925092565b6000602082840312156112a7576112a6610f72565b5b60006112b5848285016111bf565b91505092915050565b6112c781611001565b81146112d257600080fd5b50565b6000813590506112e4816112be565b92915050565b6000806040838503121561130157611300610f72565b5b600061130f858286016111bf565b9250506020611320858286016112d5565b9150509250929050565b600080fd5b600080fd5b600080fd5b60008083601f84011261134f5761134e61132a565b5b8235905067ffffffffffffffff81111561136c5761136b61132f565b5b60208301915083600182028301111561138857611387611334565b5b9250929050565b6000806000806000608086880312156113ab576113aa610f72565b5b60006113b9888289016111bf565b95505060206113ca888289016111bf565b94505060406113db8882890161110a565b935050606086013567ffffffffffffffff8111156113fc576113fb610f77565b5b61140888828901611339565b92509250509295509295909350565b6000806040838503121561142e5761142d610f72565b5b600061143c858286016111bf565b925050602061144d858286016111bf565b915050925092905056fea264697066735822122074cdcf2d5e8b91cb012e15222cc273e4d72ce140835cc396f6fc145604e12f2964736f6c63430008180033",
  "linkReferences": {},
  "deployedLinkReferences": {}
}