{
  "_format": "hh-sol-artifact-1",
  "contractName": "ImovelSP",
  "sourceName": "contracts/ImovelSP.sol",
  "abi": [
    {
      "inputs": [],
      "stateMutability": "nonpayable",
      "type": "constructor"
    },
    {
      "inputs": [],
      "name": "AlreadyInitialized",
      "type": "error"
    },
    {
      "inputs": [],
      "name": "ApprovalCallerNotOwnerNorApproved",
      "type": "error"
    },
    {
      "inputs": [],
      "name": "DNAlreadyInitialized",
      "type": "error"
    },
    {
      "inputs": [],
      "name": "DNNotInitialized",
      "type": "error"
    },
    {
      "inputs": [],
      "name": "FnSelectorNotRecognized",
      "type": "error"
    },
    {
      "inputs": [],
      "name": "InsufficientAllowance",
      "type": "error"
    },
    {
      "inputs": [],
      "name": "InsufficientBalance",
      "type": "error"
    },
    {
      "inputs": [],
      "name": "InvalidUnit",
      "type": "error"
    },
    {
      "inputs": [],
      "name": "LinkMirrorContractFailed",
      "type": "error"
    },
    {
      "inputs": [],
      "name": "MirrorAddressIsZero",
      "type": "error"
    },
    {
      "inputs": [],
      "name": "NewOwnerIsZeroAddress",
      "type": "error"
    },
    {
      "inputs": [],
      "name": "NoHandoverRequest",
      "type": "error"
    },
    {
      "inputs": [],
      "name": "SenderNotMirror",
      "type": "error"
    },
    {
      "inputs": [],
      "name": "TokenDoesNotExist",
      "type": "error"
    },
    {
      "inputs": [],
      "name": "TotalSupplyOverflow",
      "type": "error"
    },
    {
      "inputs": [],
      "name": "TransferCallerNotOwnerNorApproved",
      "type": "error"
    },
    {
      "inputs": [],
      "name": "TransferFromIncorrectOwner",
      "type": "error"
    },
    {
      "inputs": [],
      "name": "TransferToZeroAddress",
      "type": "error"
    },
    {
      "inputs": [],
      "name": "Unauthorized",
      "type": "error"
    },
    {
      "anonymous": false,
      "inputs": [
        {
          "indexed": true,
          "internalType": "address",
          "name": "owner",
          "type": "address"
        },
        {
          "indexed": true,
          "internalType": "address",
          "name": "spender",
          "type": "address"
        },
        {
          "indexed": false,
          "internalType": "uint256",
          "name": "amount",
          "type": "uint256"
        }
      ],
      "name": "Approval",
      "type": "event"
    },
    {
      "anonymous": false,
      "inputs": [
        {
          "indexed": true,
          "internalType": "address",
          "name": "pendingOwner",
          "type": "address"
        }
      ],
      "name": "OwnershipHandoverCanceled",
      "type": "event"
    },
    {
      "anonymous": false,
      "inputs": [
        {
          "indexed": true,
          "internalType": "address",
          "name": "pendingOwner",
          "type": "address"
        }
      ],
      "name": "OwnershipHandoverRequested",
      "type": "event"
    },
    {
      "anonymous": false,
      "inputs": [
        {
          "indexed": true,
          "internalType": "address",
          "name": "oldOwner",
          "type": "address"
        },
        {
          "indexed": true,
          "internalType": "address",
          "name": "newOwner",
          "type": "address"
        }
      ],
      "name": "OwnershipTransferred",
      "type": "event"
    },
    {
      "anonymous": false,
      "inputs": [
        {
          "indexed": true,
          "internalType": "address",
          "name": "owner",
          "type": "address"
        },
        {
          "indexed": false,
          "internalType": "bool",
          "name": "status",
          "type": "bool"
        }
      ],
      "name": "SkipNFTSet",
      "type": "event"
    },
    {
      "anonymous": false,
      "inputs": [
        {
          "indexed": true,
          "internalType": "address",
          "name": "from",
          "type": "address"
        },
        {
          "indexed": true,
          "internalType": "address",
          "name": "to",
          "type": "address"
        },
        {
          "indexed": false,
          "internalType": "uint256",
          "name": "amount",
          "type": "uint256"
        }
      ],
      "name": "Transfer",
      "type": "event"
    },
    {
      "stateMutability": "payable",
      "type": "fallback"
    },
    {
      "inputs": [
        {
          "internalType": "uint256",
          "name": "",
          "type": "uint256"
        }
      ],
      "name": "_historicoTransacoes",
      "outputs": [
        {
          "internalType": "enum ImovelRWADN404.TipoTransacao",
          "name": "tipo",
          "type": "uint8"
        },
        {
          "internalType": "uint256",
          "name": "valorBRL",
          "type": "uint256"
        },
        {
          "internalType": "uint256",
          "name": "valorETH",
          "type": "uint256"
        },
        {
          "internalType": "enum ImovelRWADN404.FormaPagamento",
          "name": "formaPagamento",
          "type": "uint8"
        }
      ],
      "stateMutability": "view",
      "type": "function"
    },
    {
      "inputs": [
        {
          "internalType": "address",
          "name": "owner",
          "type": "address"
        },
        {
          "internalType": "address",
          "name": "spender",
          "type": "address"
        }
      ],
      "name": "allowance",
      "outputs": [
        {
          "internalType": "uint256",
          "name": "",
          "type": "uint256"
        }
      ],
      "stateMutability": "view",
      "type": "function"
    },
    {
      "inputs": [
        {
          "internalType": "address",
          "name": "spender",
          "type": "address"
        },
        {
          "internalType": "uint256",
          "name": "amount",
          "type": "uint256"
        }
      ],
      "name": "approve",
      "outputs": [
        {
          "internalType": "bool",
          "name": "",
          "type": "bool"
        }
      ],
      "stateMutability": "nonpayable",
      "type": "function"
    },
    {
      "inputs": [
        {
          "internalType": "address",
          "name": "owner",
          "type": "address"
        }
      ],
      "name": "balanceOf",
      "outputs": [
        {
          "internalType": "uint256",
          "name": "",
          "type": "uint256"
        }
      ],
      "stateMutability": "view",
      "type": "function"
    },
    {
      "inputs": [],
      "name": "cancelOwnershipHandover",
      "outputs": [],
      "stateMutability": "payable",
      "type": "function"
    },
    {
      "inputs": [
        {
          "internalType": "address",
          "name": "pendingOwner",
          "type": "address"
        }
      ],
      "name": "completeOwnershipHandover",
      "outputs": [],
      "stateMutability": "payable",
      "type": "function"
    },
    {
      "inputs": [
        {
          "internalType": "address",
          "name": "enderecoComprador_",
          "type": "address"
        },
        {
          "internalType": "address",
          "name": "enderecoVendedor_",
          "type": "address"
        }
      ],
      "name": "criaTransacao",
      "outputs": [
        {
          "components": [
            {
              "internalType": "enum ImovelRWADN404.TipoTransacao",
              "name": "tipo",
              "type": "uint8"
            },
            {
              "internalType": "contract PessoaFisica[]",
              "name": "partes",
              "type": "address[]"
            },
            {
              "internalType": "uint256",
              "name": "valorBRL",
              "type": "uint256"
            },
            {
              "internalType": "uint256",
              "name": "valorETH",
              "type": "uint256"
            },
            {
              "internalType": "enum ImovelRWADN404.FormaPagamento",
              "name": "formaPagamento",
              "type": "uint8"
            }
          ],
          "internalType": "struct ImovelRWADN404.Transacao",
          "name": "t",
          "type": "tuple"
        }
      ],
      "stateMutability": "nonpayable",
      "type": "function"
    },
    {
      "inputs": [],
      "name": "decimals",
      "outputs": [
        {
          "internalType": "uint8",
          "name": "",
          "type": "uint8"
        }
      ],
      "stateMutability": "view",
      "type": "function"
    },
    {
      "inputs": [],
      "name": "getCaracterizacaoImovel",
      "outputs": [
        {
          "components": [
            {
              "internalType": "enum ImovelRWADN404.TipoImovel",
              "name": "tipo",
              "type": "uint8"
            },
            {
              "components": [
                {
                  "internalType": "string",
                  "name": "enderecocompleto",
                  "type": "string"
                }
              ],
              "internalType": "struct ImovelRWADN404.EnderecoPostal",
              "name": "enderecoPostal",
              "type": "tuple"
            },
            {
              "internalType": "uint32",
              "name": "areaTerreno",
              "type": "uint32"
            },
            {
              "internalType": "uint32",
              "name": "areaConstruida",
              "type": "uint32"
            },
            {
              "internalType": "string",
              "name": "descricao",
              "type": "string"
            },
            {
              "components": [
                {
                  "internalType": "uint256",
                  "name": "ano",
                  "type": "uint256"
                },
                {
                  "internalType": "uint256",
                  "name": "mes",
                  "type": "uint256"
                },
                {
                  "internalType": "uint256",
                  "name": "dia",
                  "type": "uint256"
                }
              ],
              "internalType": "struct ImovelRWADN404.Data",
              "name": "dataImovel",
              "type": "tuple"
            }
          ],
          "internalType": "struct ImovelRWADN404.CaracterizacaoImovel",
          "name": "c",
          "type": "tuple"
        }
      ],
      "stateMutability": "view",
      "type": "function"
    },
    {
      "inputs": [],
      "name": "getRWAType",
      "outputs": [
        {
          "internalType": "string",
          "name": "",
          "type": "string"
        }
      ],
      "stateMutability": "pure",
      "type": "function"
    },
    {
      "inputs": [
        {
          "internalType": "address",
          "name": "owner",
          "type": "address"
        }
      ],
      "name": "getSkipNFT",
      "outputs": [
        {
          "internalType": "bool",
          "name": "",
          "type": "bool"
        }
      ],
      "stateMutability": "view",
      "type": "function"
    },
    {
      "inputs": [],
      "name": "getTitultar",
      "outputs": [
        {
          "internalType": "contract PessoaFisica",
          "name": "t",
          "type": "address"
        }
      ],
      "stateMutability": "view",
      "type": "function"
    },
    {
      "inputs": [
        {
          "internalType": "address",
          "name": "to",
          "type": "address"
        },
        {
          "internalType": "uint256",
          "name": "amount",
          "type": "uint256"
        }
      ],
      "name": "mint",
      "outputs": [],
      "stateMutability": "nonpayable",
      "type": "function"
    },
    {
      "inputs": [],
      "name": "mirrorERC721",
      "outputs": [
        {
          "internalType": "address",
          "name": "",
          "type": "address"
        }
      ],
      "stateMutability": "view",
      "type": "function"
    },
    {
      "inputs": [],
      "name": "name",
      "outputs": [
        {
          "internalType": "string",
          "name": "",
          "type": "string"
        }
      ],
      "stateMutability": "view",
      "type": "function"
    },
    {
      "inputs": [],
      "name": "owner",
      "outputs": [
        {
          "internalType": "address",
          "name": "result",
          "type": "address"
        }
      ],
      "stateMutability": "view",
      "type": "function"
    },
    {
      "inputs": [
        {
          "internalType": "address",
          "name": "pendingOwner",
          "type": "address"
        }
      ],
      "name": "ownershipHandoverExpiresAt",
      "outputs": [
        {
          "internalType": "uint256",
          "name": "result",
          "type": "uint256"
        }
      ],
      "stateMutability": "view",
      "type": "function"
    },
    {
      "inputs": [],
      "name": "renounceOwnership",
      "outputs": [],
      "stateMutability": "payable",
      "type": "function"
    },
    {
      "inputs": [],
      "name": "requestOwnershipHandover",
      "outputs": [],
      "stateMutability": "payable",
      "type": "function"
    },
    {
      "inputs": [
        {
          "internalType": "string",
          "name": "baseURI_",
          "type": "string"
        }
      ],
      "name": "setBaseURI",
      "outputs": [],
      "stateMutability": "nonpayable",
      "type": "function"
    },
    {
      "inputs": [
        {
          "components": [
            {
              "internalType": "enum ImovelRWADN404.TipoImovel",
              "name": "tipo",
              "type": "uint8"
            },
            {
              "components": [
                {
                  "internalType": "string",
                  "name": "enderecocompleto",
                  "type": "string"
                }
              ],
              "internalType": "struct ImovelRWADN404.EnderecoPostal",
              "name": "enderecoPostal",
              "type": "tuple"
            },
            {
              "internalType": "uint32",
              "name": "areaTerreno",
              "type": "uint32"
            },
            {
              "internalType": "uint32",
              "name": "areaConstruida",
              "type": "uint32"
            },
            {
              "internalType": "string",
              "name": "descricao",
              "type": "string"
            },
            {
              "components": [
                {
                  "internalType": "uint256",
                  "name": "ano",
                  "type": "uint256"
                },
                {
                  "internalType": "uint256",
                  "name": "mes",
                  "type": "uint256"
                },
                {
                  "internalType": "uint256",
                  "name": "dia",
                  "type": "uint256"
                }
              ],
              "internalType": "struct ImovelRWADN404.Data",
              "name": "dataImovel",
              "type": "tuple"
            }
          ],
          "internalType": "struct ImovelRWADN404.CaracterizacaoImovel",
          "name": "descricao_",
          "type": "tuple"
        }
      ],
      "name": "setCaracterizacaoImovel",
      "outputs": [],
      "stateMutability": "nonpayable",
      "type": "function"
    },
    {
      "inputs": [
        {
          "internalType": "address",
          "name": "enderecoComprador_",
          "type": "address"
        },
        {
          "internalType": "address",
          "name": "enderecoVendedor_",
          "type": "address"
        }
      ],
      "name": "setEnderecoPartes",
      "outputs": [],
      "stateMutability": "nonpayable",
      "type": "function"
    },
    {
      "inputs": [
        {
          "internalType": "bool",
          "name": "skipNFT",
          "type": "bool"
        }
      ],
      "name": "setSkipNFT",
      "outputs": [
        {
          "internalType": "bool",
          "name": "",
          "type": "bool"
        }
      ],
      "stateMutability": "nonpayable",
      "type": "function"
    },
    {
      "inputs": [
        {
          "internalType": "contract PessoaFisica",
          "name": "titular_",
          "type": "address"
        }
      ],
      "name": "setTitular",
      "outputs": [],
      "stateMutability": "nonpayable",
      "type": "function"
    },
    {
      "inputs": [],
      "name": "symbol",
      "outputs": [
        {
          "internalType": "string",
          "name": "",
          "type": "string"
        }
      ],
      "stateMutability": "view",
      "type": "function"
    },
    {
      "inputs": [],
      "name": "totalSupply",
      "outputs": [
        {
          "internalType": "uint256",
          "name": "",
          "type": "uint256"
        }
      ],
      "stateMutability": "view",
      "type": "function"
    },
    {
      "inputs": [
        {
          "internalType": "address",
          "name": "to",
          "type": "address"
        },
        {
          "internalType": "uint256",
          "name": "amount",
          "type": "uint256"
        }
      ],
      "name": "transfer",
      "outputs": [
        {
          "internalType": "bool",
          "name": "",
          "type": "bool"
        }
      ],
      "stateMutability": "nonpayable",
      "type": "function"
    },
    {
      "inputs": [
        {
          "internalType": "address",
          "name": "from",
          "type": "address"
        },
        {
          "internalType": "address",
          "name": "to",
          "type": "address"
        },
        {
          "internalType": "uint256",
          "name": "amount",
          "type": "uint256"
        }
      ],
      "name": "transferFrom",
      "outputs": [
        {
          "internalType": "bool",
          "name": "",
          "type": "bool"
        }
      ],
      "stateMutability": "nonpayable",
      "type": "function"
    },
    {
      "inputs": [
        {
          "internalType": "address",
          "name": "newOwner",
          "type": "address"
        }
      ],
      "name": "transferOwnership",
      "outputs": [],
      "stateMutability": "payable",
      "type": "function"
    },
    {
      "inputs": [],
      "name": "withdraw",
      "outputs": [],
      "stateMutability": "nonpayable",
      "type": "function"
    },
    {
      "stateMutability": "payable",
      "type": "receive"
    }
  ],
  "bytecode": "0x60806040523480156200001157600080fd5b5068056bc75e2d63100000336200002e336200012360201b60201c565b6040518060400160405280601281526020017f496d6f76656c2052574120444e412d343034000000000000000000000000000081525060009081620000749190620009fc565b506040518060400160405280600981526020017f49525741444e343034000000000000000000000000000000000000000000000081525060019081620000bb9190620009fc565b50600033604051620000cd9062000774565b620000d9919062000b28565b604051809103906000f080158015620000f6573d6000803e3d6000fd5b5090506200011a836bffffffffffffffffffffffff1683836200020960201b60201c565b50505062000b45565b620001336200058360201b60201c565b15620001b1577fffffffffffffffffffffffffffffffffffffffffffffffffffffffff748739278054156200017057630dc149f06000526004601cfd5b8160601b60601c9150811560ff1b821781558160007f8be0079c531659141344cd1fd0a4f28419497f9722a3daafe3b4186f6b6457e0600080a35062000206565b8060601b60601c9050807fffffffffffffffffffffffffffffffffffffffffffffffffffffffff74873927558060007f8be0079c531659141344cd1fd0a4f28419497f9722a3daafe3b4186f6b6457e0600080a35b50565b60006200021b6200058860201b60201c565b90506bffffffffffffffffffffffff60016200023c6200059960201b60201c565b031062000275576040517f997c4ef400000000000000000000000000000000000000000000000000000000815260040160405180910390fd5b600073ffffffffffffffffffffffffffffffffffffffff168160010160009054906101000a900473ffffffffffffffffffffffffffffffffffffffff1673ffffffffffffffffffffffffffffffffffffffff161462000300576040517fead4d2e400000000000000000000000000000000000000000000000000000000815260040160405180910390fd5b600073ffffffffffffffffffffffffffffffffffffffff168273ffffffffffffffffffffffffffffffffffffffff160362000367576040517f39a84a7b00000000000000000000000000000000000000000000000000000000815260040160405180910390fd5b630f4599e560005233602052602060006024601c6000865af1600160005114166200039a5763d125259c6000526004601cfd5b60018160000160046101000a81548163ffffffff021916908363ffffffff160217905550818160010160006101000a81548173ffffffffffffffffffffffffffffffffffffffff021916908373ffffffffffffffffffffffffffffffffffffffff160217905550600084146200057d57600073ffffffffffffffffffffffffffffffffffffffff168373ffffffffffffffffffffffffffffffffffffffff160362000471576040517fea553b3400000000000000000000000000000000000000000000000000000000815260040160405180910390fd5b6200048284620005a960201b60201c565b15620004ba576040517fe5cfe95700000000000000000000000000000000000000000000000000000000815260040160405180910390fd5b838160000160146101000a8154816bffffffffffffffffffffffff02191690836bffffffffffffffffffffffff16021790555060006200050084620005d660201b60201c565b9050848160000160146101000a8154816bffffffffffffffffffffffff02191690836bffffffffffffffffffffffff160217905550846000528360601b60601c60007fddf252ad1be2c89b69c2b068fc378daa952ba7f163c4a11628f55a4df523b3ef60206000a36200057b846001620006ad60201b60201c565b505b50505050565b600090565b600068a20d6e21d0e5255308905090565b6000670de0b6b3a7640000905090565b600080620005bc6200059960201b60201c565b905080830463fffffffe108360601c171515915050919050565b6000620005e86200058860201b60201c565b600b0160008373ffffffffffffffffffffffffffffffffffffffff1673ffffffffffffffffffffffffffffffffffffffff168152602001908152602001600020905062000652600182600001600b9054906101000a900460ff161660ff166200075260201b60201c565b15620006a8576000600260ff166200068062000674856200075d60201b60201c565b6200076860201b60201c565b029050600160ff16811782600001600b6101000a81548160ff021916908360ff160217905550505b919050565b6000620006c083620005d660201b60201c565b90508115156000600283600001600b9054906101000a900460ff161660ff1614151515146200071a57600281600001600b8282829054906101000a900460ff161892506101000a81548160ff021916908360ff1602179055505b8115156000528260601b60601c7fb5a1de456fff688115a4f75380060c23c8532d14ff85f687cc871456d642039360206000a2505050565b600081159050919050565b6000813b9050919050565b60008115159050919050565b6115da80620078c383390190565b600081519050919050565b7f4e487b7100000000000000000000000000000000000000000000000000000000600052604160045260246000fd5b7f4e487b7100000000000000000000000000000000000000000000000000000000600052602260045260246000fd5b600060028204905060018216806200080457607f821691505b6020821081036200081a5762000819620007bc565b5b50919050565b60008190508160005260206000209050919050565b60006020601f8301049050919050565b600082821b905092915050565b600060088302620008847fffffffffffffffffffffffffffffffffffffffffffffffffffffffffffffffff8262000845565b62000890868362000845565b95508019841693508086168417925050509392505050565b6000819050919050565b6000819050919050565b6000620008dd620008d7620008d184620008a8565b620008b2565b620008a8565b9050919050565b6000819050919050565b620008f983620008bc565b620009116200090882620008e4565b84845462000852565b825550505050565b600090565b6200092862000919565b62000935818484620008ee565b505050565b5b818110156200095d57620009516000826200091e565b6001810190506200093b565b5050565b601f821115620009ac57620009768162000820565b620009818462000835565b8101602085101562000991578190505b620009a9620009a08562000835565b8301826200093a565b50505b505050565b600082821c905092915050565b6000620009d160001984600802620009b1565b1980831691505092915050565b6000620009ec8383620009be565b9150826002028217905092915050565b62000a078262000782565b67ffffffffffffffff81111562000a235762000a226200078d565b5b62000a2f8254620007eb565b62000a3c82828562000961565b600060209050601f83116001811462000a74576000841562000a5f578287015190505b62000a6b8582620009de565b86555062000adb565b601f19841662000a848662000820565b60005b8281101562000aae5784890151825560018201915060208501945060208101905062000a87565b8683101562000ace578489015162000aca601f891682620009be565b8355505b6001600288020188555050505b505050505050565b600073ffffffffffffffffffffffffffffffffffffffff82169050919050565b600062000b108262000ae3565b9050919050565b62000b228162000b03565b82525050565b600060208201905062000b3f600083018462000b17565b92915050565b616d6e8062000b556000396000f3fe608060405260043610620001ff5760003560e01c806355f804b3116200010f578063a9059cbb11620000a3578063f04e283e116200006d578063f04e283e1462000bd7578063f2fde38b1462000bf7578063f5cd84e01462000c17578063fee81cf41462000c475762000215565b8063a9059cbb1462000adb578063b719d1fc1462000b1f578063c02658581462000b63578063dd62ed3e1462000b935762000215565b8063715018a611620000e5578063715018a61462000a415780638da5cb5b1462000a4d57806395d89b411462000a7d57806399873b611462000aad5762000215565b806355f804b3146200098857806357d09b8614620009b657806370a0823114620009fd5762000215565b8063274e430b116200019357806340c10f19116200015d57806340c10f1914620008f057806340dca4b1146200091e5780634ef41efc146200094c57806354d1f13d146200097c5762000215565b8063274e430b146200081e5780632a6a935d1462000862578063313ce56714620008a65780633ccfd60b14620008d65762000215565b806318160ddd11620001d557806318160ddd14620007705780631c3a01b314620007a057806323b872dd14620007ce5780632569296214620008125762000215565b806306fdde0314620006cc578063095ea7b314620006fc57806314b1975314620007405762000215565b366200021557600034146200021357600080fd5b005b60006200022162000c8b565b9050600060e062000233600062000c9c565b901c905063e5eb36c8810362000314578160010160009054906101000a900473ffffffffffffffffffffffffffffffffffffffff1673ffffffffffffffffffffffffffffffffffffffff163373ffffffffffffffffffffffffffffffffffffffff1614620002cd576040517fce5a776b00000000000000000000000000000000000000000000000000000000815260040160405180910390fd5b62000307620002dd600462000c9c565b620002e9602462000c9c565b620002f5604462000c9c565b62000301606462000c9c565b62000ca7565b620003136001620012f2565b5b63813500fc8103620003e9578160010160009054906101000a900473ffffffffffffffffffffffffffffffffffffffff1673ffffffffffffffffffffffffffffffffffffffff163373ffffffffffffffffffffffffffffffffffffffff1614620003aa576040517fce5a776b00000000000000000000000000000000000000000000000000000000815260040160405180910390fd5b620003dc620003ba600462000c9c565b6000620003c8602462000c9c565b1415620003d6604462000c9c565b620012fc565b620003e86001620012f2565b5b63e985e9c58103620004325760006200041962000407600462000c9c565b62000413602462000c9c565b6200132c565b9050620004306200042a826200135e565b620012f2565b505b636352211e81036200047557620004746200045862000452600462000c9c565b6200136a565b73ffffffffffffffffffffffffffffffffffffffff16620012f2565b5b63243598798103620004b857620004b76200049b62000495600462000c9c565b620013c0565b73ffffffffffffffffffffffffffffffffffffffff16620012f2565b5b63d10b6e0c8103620005a3578160010160009054906101000a900473ffffffffffffffffffffffffffffffffffffffff1673ffffffffffffffffffffffffffffffffffffffff163373ffffffffffffffffffffffffffffffffffffffff16146200054e576040517fce5a776b00000000000000000000000000000000000000000000000000000000815260040160405180910390fd5b60006200057e62000560600462000c9c565b6200056c602462000c9c565b62000578604462000c9c565b6200143b565b9050620005a18173ffffffffffffffffffffffffffffffffffffffff16620012f2565b505b63081812fc8103620005e657620005e5620005c9620005c3600462000c9c565b620015c4565b73ffffffffffffffffffffffffffffffffffffffff16620012f2565b5b63f5b100ea81036200061357620006126200060c62000606600462000c9c565b6200164e565b620012f2565b5b63e2c7928181036200063457620006336200062d620016bb565b620012f2565b5b63c87b56dd810362000681576020604051016040526000620006616200065b600462000c9c565b620016e6565b90506020810360408251016000818301526020825280601f01601f191682f35b63b7a94eb881036200069a57620006996001620012f2565b5b6040517f3c10b94e00000000000000000000000000000000000000000000000000000000815260040160405180910390fd5b348015620006d957600080fd5b50620006e462001738565b604051620006f3919062004a00565b60405180910390f35b3480156200070957600080fd5b5062000728600480360381019062000722919062004ad8565b620017d2565b60405162000737919062004b3c565b60405180910390f35b3480156200074d57600080fd5b5062000758620017eb565b60405162000767919062004a00565b60405180910390f35b3480156200077d57600080fd5b506200078862001828565b60405162000797919062004b6a565b60405180910390f35b348015620007ad57600080fd5b50620007cc6004803603810190620007c6919062004f0c565b62001863565b005b348015620007db57600080fd5b50620007fa6004803603810190620007f4919062004f5d565b6200195b565b60405162000809919062004b3c565b60405180910390f35b6200081c62001afd565b005b3480156200082b57600080fd5b506200084a600480360381019062000844919062004fb9565b62001b53565b60405162000859919062004b3c565b60405180910390f35b3480156200086f57600080fd5b506200088e60048036038101906200088891906200501c565b62001c03565b6040516200089d919062004b3c565b60405180910390f35b348015620008b357600080fd5b50620008be62001c1a565b604051620008cd91906200506c565b60405180910390f35b348015620008e357600080fd5b50620008ee62001c23565b005b348015620008fd57600080fd5b506200091c600480360381019062000916919062004ad8565b62001c3a565b005b3480156200092b57600080fd5b506200094a6004803603810190620009449190620050ce565b62001c54565b005b3480156200095957600080fd5b506200096462001ca2565b60405162000973919062005111565b60405180910390f35b6200098662001cd7565b005b3480156200099557600080fd5b50620009b46004803603810190620009ae919062005197565b62001d13565b005b348015620009c357600080fd5b50620009e26004803603810190620009dc9190620051ec565b62001d35565b604051620009f49493929190620052ef565b60405180910390f35b34801562000a0a57600080fd5b5062000a29600480360381019062000a23919062004fb9565b62001d90565b60405162000a38919062004b6a565b60405180910390f35b62000a4b62001e0d565b005b34801562000a5a57600080fd5b5062000a6562001e25565b60405162000a74919062005111565b60405180910390f35b34801562000a8a57600080fd5b5062000a9562001e4e565b60405162000aa4919062004a00565b60405180910390f35b34801562000aba57600080fd5b5062000ad9600480360381019062000ad391906200533c565b62001ee8565b005b34801562000ae857600080fd5b5062000b07600480360381019062000b01919062004ad8565b6200200e565b60405162000b16919062004b3c565b60405180910390f35b34801562000b2c57600080fd5b5062000b4b600480360381019062000b4591906200533c565b62002027565b60405162000b5a91906200555e565b60405180910390f35b34801562000b7057600080fd5b5062000b7b620023a1565b60405162000b8a919062005593565b60405180910390f35b34801562000ba057600080fd5b5062000bbf600480360381019062000bb991906200533c565b620023cb565b60405162000bce919062004b6a565b60405180910390f35b62000bf5600480360381019062000bef919062004fb9565b620024ec565b005b62000c15600480360381019062000c0f919062004fb9565b62002532565b005b34801562000c2457600080fd5b5062000c2f62002561565b60405162000c3e919062005775565b60405180910390f35b34801562000c5457600080fd5b5062000c73600480360381019062000c6d919062004fb9565b62002784565b60405162000c82919062004b6a565b60405180910390f35b600068a20d6e21d0e5255308905090565b600081359050919050565b600073ffffffffffffffffffffffffffffffffffffffff168373ffffffffffffffffffffffffffffffffffffffff160362000d0e576040517fea553b3400000000000000000000000000000000000000000000000000000000815260040160405180910390fd5b600062000d1a62000c8b565b9050600073ffffffffffffffffffffffffffffffffffffffff168160010160009054906101000a900473ffffffffffffffffffffffffffffffffffffffff1673ffffffffffffffffffffffffffffffffffffffff160362000da7576040517f40739bf000000000000000000000000000000000000000000000000000000000815260040160405180910390fd5b600081600a01905081600201600062000dd58362000dcf62000dc9896200279f565b620027b2565b620027c2565b63ffffffff1663ffffffff16815260200190815260200160002060009054906101000a900473ffffffffffffffffffffffffffffffffffffffff1673ffffffffffffffffffffffffffffffffffffffff168673ffffffffffffffffffffffffffffffffffffffff161462000e75576040517fa114810000000000000000000000000000000000000000000000000000000000815260040160405180910390fd5b8573ffffffffffffffffffffffffffffffffffffffff168373ffffffffffffffffffffffffffffffffffffffff161462000f2c5762000eb586846200132c565b62000f2b578273ffffffffffffffffffffffffffffffffffffffff1662000edc85620015c4565b73ffffffffffffffffffffffffffffffffffffffff161462000f2a576040517f59c896be00000000000000000000000000000000000000000000000000000000815260040160405180910390fd5b5b5b600082600b0160008873ffffffffffffffffffffffffffffffffffffffff1673ffffffffffffffffffffffffffffffffffffffff1681526020019081526020016000209050600083600b0160008873ffffffffffffffffffffffffffffffffffffffff1673ffffffffffffffffffffffffffffffffffffffff1681526020019081526020016000209050600062000fc2620027e6565b9050600085600801905060008460000160149054906101000a90046bffffffffffffffffffffffff166bffffffffffffffffffffffff1690508083111562001036576040517ff4d678b800000000000000000000000000000000000000000000000000000000815260040160405180910390fd5b8281038560000160146101000a8154816bffffffffffffffffffffffff02191690836bffffffffffffffffffffffff160217905550828460000160148282829054906101000a90046bffffffffffffffffffffffff160192506101000a8154816bffffffffffffffffffffffff02191690836bffffffffffffffffffffffff16021790555050620010cb8660050189620027f6565b156200111b57620010e28660050189600062002814565b85600401600089815260200190815260200160002060006101000a81549073ffffffffffffffffffffffffffffffffffffffff02191690555b60008160008c73ffffffffffffffffffffffffffffffffffffffff1673ffffffffffffffffffffffffffffffffffffffff16815260200190815260200160002090506000620011a88287600001601081819054906101000a900463ffffffff166001900391906101000a81548163ffffffff021916908363ffffffff160217905563ffffffff16620027c2565b90506000620011c288620011bc8d62002838565b620027c2565b9050620011d7838263ffffffff16846200284b565b620011f488620011ed8463ffffffff1662002838565b836200284b565b505050600083600001601081819054906101000a900463ffffffff168092919060010191906101000a81548163ffffffff021916908363ffffffff1602179055509050620012878260008c73ffffffffffffffffffffffffffffffffffffffff1673ffffffffffffffffffffffffffffffffffffffff1681526020019081526020016000208263ffffffff168b6200284b565b620012a0868a62001299878e62002876565b8462002993565b50620012ae8a8a8a620029d5565b816000528860601b60601c8a60601b60601c7fddf252ad1be2c89b69c2b068fc378daa952ba7f163c4a11628f55a4df523b3ef60206000a350505050505050505050565b8060005260206000f35b62001307826200135e565b620013206200131562000c8b565b6003018386620029da565b60000181905550505050565b6000620013556200134b6200134062000c8b565b6003018585620029da565b60000154620029fb565b15905092915050565b60008115159050919050565b6000620013778262002a06565b620013ae576040517fceea21b600000000000000000000000000000000000000000000000000000000815260040160405180910390fd5b620013b982620013c0565b9050919050565b600080620013cd62000c8b565b9050806002016000620013f883600a01620013f2620013ec886200279f565b620027b2565b620027c2565b63ffffffff1663ffffffff16815260200190815260200160002060009054906101000a900473ffffffffffffffffffffffffffffffffffffffff16915050919050565b6000806200144862000c8b565b90508060020160006200147383600a016200146d62001467896200279f565b620027b2565b620027c2565b63ffffffff1663ffffffff16815260200190815260200160002060009054906101000a900473ffffffffffffffffffffffffffffffffffffffff1691508173ffffffffffffffffffffffffffffffffffffffff168373ffffffffffffffffffffffffffffffffffffffff16146200152857620014f082846200132c565b62001527576040517fcfb3b94200000000000000000000000000000000000000000000000000000000815260040160405180910390fd5b5b8481600401600086815260200190815260200160002060006101000a81548173ffffffffffffffffffffffffffffffffffffffff021916908373ffffffffffffffffffffffffffffffffffffffff160217905550620015bc8160050185600073ffffffffffffffffffffffffffffffffffffffff168873ffffffffffffffffffffffffffffffffffffffff16141562002814565b509392505050565b6000620015d18262002a06565b62001608576040517fceea21b600000000000000000000000000000000000000000000000000000000815260040160405180910390fd5b6200161262000c8b565b600401600083815260200190815260200160002060009054906101000a900473ffffffffffffffffffffffffffffffffffffffff169050919050565b60006200165a62000c8b565b600b0160008373ffffffffffffffffffffffffffffffffffffffff1673ffffffffffffffffffffffffffffffffffffffff16815260200190815260200160002060000160109054906101000a900463ffffffff1663ffffffff169050919050565b6000620016c762000c8b565b60000160109054906101000a900463ffffffff1663ffffffff16905090565b6060600060028054620016f990620057c8565b905014620017335760026200170e8362002a49565b60405160200162001721929190620058e3565b60405160208183030381529060405290505b919050565b6060600080546200174990620057c8565b80601f01602080910402602001604051908101604052809291908181526020018280546200177790620057c8565b8015620017c85780601f106200179c57610100808354040283529160200191620017c8565b820191906000526020600020905b815481529060010190602001808311620017aa57829003601f168201915b5050505050905090565b6000620017e133848462002a9c565b6001905092915050565b60606040518060400160405280600b81526020017f5265616c20457374617465000000000000000000000000000000000000000000815250905090565b60006200183462000c8b565b60000160149054906101000a90046bffffffffffffffffffffffff166bffffffffffffffffffffffff16905090565b6200186d62002bcb565b80600460008201518160000160006101000a81548160ff021916908360028111156200189e576200189d6200521e565b5b02179055506020820151816001016000820151816000019081620018c3919062005abe565b50505060408201518160020160006101000a81548163ffffffff021916908363ffffffff16021790555060608201518160020160046101000a81548163ffffffff021916908363ffffffff16021790555060808201518160030190816200192b919062005abe565b5060a082015181600401600082015181600001556020820151816001015560408201518160020155505090505050565b600080620019776200196c62000c8b565b6007018633620029da565b905060006200198562002c04565b8015620019cc57506e22d473030f116ddee9f6b43ac78ba373ffffffffffffffffffffffffffffffffffffffff163373ffffffffffffffffffffffffffffffffffffffff16145b801562001a40575062001a3f6004620019e462000c8b565b600b0160008973ffffffffffffffffffffffffffffffffffffffff1673ffffffffffffffffffffffffffffffffffffffff168152602001908152602001600020600001600b9054906101000a900460ff161660ff16620029fb565b5b62001a5057816000015462001a72565b7fffffffffffffffffffffffffffffffffffffffffffffffffffffffffffffffff5b90507fffffffffffffffffffffffffffffffffffffffffffffffffffffffffffffffff811462001ae3578084111562001ad7576040517f13be252b00000000000000000000000000000000000000000000000000000000815260040160405180910390fd5b83810382600001819055505b62001af086868662002c09565b6001925050509392505050565b600062001b096200389e565b67ffffffffffffffff164201905063389a75e1600c5233600052806020600c2055337fdbf36a107da19e49527a7176a1babf963b4b0ff8cde35ee35d6cd8f1f9ac7e1d600080a250565b60008062001b6062000c8b565b600b0160008473ffffffffffffffffffffffffffffffffffffffff1673ffffffffffffffffffffffffffffffffffffffff168152602001908152602001600020905062001bc4600182600001600b9054906101000a900460ff161660ff16620029fb565b1562001bde5762001bd583620038a9565b91505062001bfe565b6000600282600001600b9054906101000a900460ff161660ff1614159150505b919050565b600062001c113383620038b4565b60019050919050565b60006012905090565b62001c2d62002bcb565b62001c383362003953565b565b62001c4462002bcb565b62001c50828262003973565b5050565b62001c5e62002bcb565b80600360006101000a81548173ffffffffffffffffffffffffffffffffffffffff021916908373ffffffffffffffffffffffffffffffffffffffff16021790555050565b600062001cae62000c8b565b60010160009054906101000a900473ffffffffffffffffffffffffffffffffffffffff16905090565b63389a75e1600c523360005260006020600c2055337ffa7b8eab7da67f412cc9575ed43464468f9bfbae89d1675917346ca6d8fe3c92600080a2565b62001d1d62002bcb565b81816002918262001d3092919062005bb0565b505050565b600b818154811062001d4657600080fd5b90600052602060002090600502016000915090508060000160009054906101000a900460ff16908060020154908060030154908060040160009054906101000a900460ff16905084565b600062001d9c62000c8b565b600b0160008373ffffffffffffffffffffffffffffffffffffffff1673ffffffffffffffffffffffffffffffffffffffff16815260200190815260200160002060000160149054906101000a90046bffffffffffffffffffffffff166bffffffffffffffffffffffff169050919050565b62001e1762002bcb565b62001e23600062003fc6565b565b60007fffffffffffffffffffffffffffffffffffffffffffffffffffffffff7487392754905090565b60606001805462001e5f90620057c8565b80601f016020809104026020016040519081016040528092919081815260200182805462001e8d90620057c8565b801562001ede5780601f1062001eb25761010080835404028352916020019162001ede565b820191906000526020600020905b81548152906001019060200180831162001ec057829003601f168201915b5050505050905090565b600d60009054906101000a900473ffffffffffffffffffffffffffffffffffffffff1673ffffffffffffffffffffffffffffffffffffffff1663e30081a0836040518263ffffffff1660e01b815260040162001f45919062005111565b600060405180830381600087803b15801562001f6057600080fd5b505af115801562001f75573d6000803e3d6000fd5b50505050600e60009054906101000a900473ffffffffffffffffffffffffffffffffffffffff1673ffffffffffffffffffffffffffffffffffffffff1663e30081a0826040518263ffffffff1660e01b815260040162001fd6919062005111565b600060405180830381600087803b15801562001ff157600080fd5b505af115801562002006573d6000803e3d6000fd5b505050505050565b60006200201d33848462002c09565b6001905092915050565b6200203162004796565b6200203d838362001ee8565b6200204762004092565b6200205162004160565b600d60009054906101000a900473ffffffffffffffffffffffffffffffffffffffff1673ffffffffffffffffffffffffffffffffffffffff1663bb05c30e60016040518263ffffffff1660e01b8152600401620020af919062004b3c565b600060405180830381600087803b158015620020ca57600080fd5b505af1158015620020df573d6000803e3d6000fd5b50505050600e60009054906101000a900473ffffffffffffffffffffffffffffffffffffffff1673ffffffffffffffffffffffffffffffffffffffff1663bb05c30e60016040518263ffffffff1660e01b815260040162002141919062004b3c565b600060405180830381600087803b1580156200215c57600080fd5b505af115801562002171573d6000803e3d6000fd5b50505050620021a2600e60009054906101000a900473ffffffffffffffffffffffffffffffffffffffff1662001c54565b600c600d60009054906101000a900473ffffffffffffffffffffffffffffffffffffffff169080600181540180825580915050600190039060005260206000200160009091909190916101000a81548173ffffffffffffffffffffffffffffffffffffffff021916908373ffffffffffffffffffffffffffffffffffffffff160217905550600c600e60009054906101000a900473ffffffffffffffffffffffffffffffffffffffff169080600181540180825580915050600190039060005260206000200160009091909190916101000a81548173ffffffffffffffffffffffffffffffffffffffff021916908373ffffffffffffffffffffffffffffffffffffffff16021790555060006040518060a0016040528060006002811115620022d057620022cf6200521e565b5b8152602001600c8054806020026020016040519081016040528092919081815260200182805480156200235957602002820191906000526020600020905b8160009054906101000a900473ffffffffffffffffffffffffffffffffffffffff1673ffffffffffffffffffffffffffffffffffffffff16815260200190600101908083116200230e575b505050505081526020016305f5e1008152602001680364bfe054bb74000081526020016003808111156200239257620023916200521e565b5b81525090508091505092915050565b6000600360009054906101000a900473ffffffffffffffffffffffffffffffffffffffff16905090565b6000620023d762002c04565b80156200241e57506e22d473030f116ddee9f6b43ac78ba373ffffffffffffffffffffffffffffffffffffffff168273ffffffffffffffffffffffffffffffffffffffff16145b15620024c65760006200243062000c8b565b600b0160008573ffffffffffffffffffffffffffffffffffffffff1673ffffffffffffffffffffffffffffffffffffffff168152602001908152602001600020600001600b9054906101000a900460ff169050620024946004821660ff16620029fb565b15620024c4577fffffffffffffffffffffffffffffffffffffffffffffffffffffffffffffffff915050620024e6565b505b620024df620024d462000c8b565b6007018484620029da565b6000015490505b92915050565b620024f662002bcb565b63389a75e1600c52806000526020600c2080544211156200251f57636f5e88186000526004601cfd5b60008155506200252f8162003fc6565b50565b6200253c62002bcb565b8060601b6200255357637448fbae6000526004601cfd5b6200255e8162003fc6565b50565b6200256b620047ef565b60046040518060c00160405290816000820160009054906101000a900460ff166002811115620025a0576200259f6200521e565b5b6002811115620025b557620025b46200521e565b5b815260200160018201604051806020016040529081600082018054620025db90620057c8565b80601f01602080910402602001604051908101604052809291908181526020018280546200260990620057c8565b80156200265a5780601f106200262e576101008083540402835291602001916200265a565b820191906000526020600020905b8154815290600101906020018083116200263c57829003601f168201915b50505050508152505081526020016002820160009054906101000a900463ffffffff1663ffffffff1663ffffffff1681526020016002820160049054906101000a900463ffffffff1663ffffffff1663ffffffff168152602001600382018054620026c590620057c8565b80601f0160208091040260200160405190810160405280929190818152602001828054620026f390620057c8565b8015620027445780601f10620027185761010080835404028352916020019162002744565b820191906000526020600020905b8154815290600101906020018083116200272657829003601f168201915b5050505050815260200160048201604051806060016040529081600082015481526020016001820154815260200160028201548152505081525050905090565b600063389a75e1600c52816000526020600c20549050919050565b6000640100000000821082029050919050565b60006001808303901b9050919050565b60008160031c8360601b0180546007841660051b1c63ffffffff1691505092915050565b6000670de0b6b3a7640000905090565b60008160081c8360601b0180548360ff161c60011691505092915050565b8160081c8360601b018260ff16821515811b6001821b198354161782555050505050565b600060018060018403901b019050919050565b8160031c8360601b016007831660051b815480821c841863ffffffff16821b81188355505050505050565b6000806200288362000c8b565b905083600001600c9054906101000a900463ffffffff169150620028ad8263ffffffff16620029fb565b156200298c5780600001600081819054906101000a900463ffffffff1660010191906101000a81548163ffffffff021916908363ffffffff160217905591508184600001600c6101000a81548163ffffffff021916908363ffffffff160217905550828160020160008463ffffffff1663ffffffff16815260200190815260200160002060006101000a81548173ffffffffffffffffffffffffffffffffffffffff021916908373ffffffffffffffffffffffffffffffffffffffff160217905550620029808263ffffffff16620029fb565b156200298b57600080fd5b5b5092915050565b600183038060021c8560601b0180546003831660061b8563ffffffff168560201b178083831c1867ffffffffffffffff16821b83188455505050505050505050565b505050565b60008160285282601452836000526048600020905060006028529392505050565b600081159050919050565b60008073ffffffffffffffffffffffffffffffffffffffff1662002a2a83620013c0565b73ffffffffffffffffffffffffffffffffffffffff1614159050919050565b60606080604051019050602081016040526000815280600019835b60011562002a87578184019350600a81066030018453600a810490508062002a64575b50828203602084039350808452505050919050565b62002aa662002c04565b801562002aed57506e22d473030f116ddee9f6b43ac78ba373ffffffffffffffffffffffffffffffffffffffff168273ffffffffffffffffffffffffffffffffffffffff16145b1562002b6d57600462002aff62000c8b565b600b0160008573ffffffffffffffffffffffffffffffffffffffff1673ffffffffffffffffffffffffffffffffffffffff168152602001908152602001600020600001600b8282829054906101000a900460ff161792506101000a81548160ff021916908360ff1602179055505b8062002b8762002b7c62000c8b565b6007018585620029da565b60000181905550806000528160601b60601c8360601b60601c7f8c5be1e5ebec7d5bd14f71427d1e84f3dd0314c0f7b2291e5b200ac8c7c3b92560206000a3505050565b7fffffffffffffffffffffffffffffffffffffffffffffffffffffffff7487392754331462002c02576382b429006000526004601cfd5b565b600090565b600073ffffffffffffffffffffffffffffffffffffffff168273ffffffffffffffffffffffffffffffffffffffff160362002c70576040517fea553b3400000000000000000000000000000000000000000000000000000000815260040160405180910390fd5b600062002c7c62000c8b565b9050600081600b0160008673ffffffffffffffffffffffffffffffffffffffff1673ffffffffffffffffffffffffffffffffffffffff1681526020019081526020016000209050600062002cd0856200440c565b9050600073ffffffffffffffffffffffffffffffffffffffff168360010160009054906101000a900473ffffffffffffffffffffffffffffffffffffffff1673ffffffffffffffffffffffffffffffffffffffff160362002d5d576040517f40739bf000000000000000000000000000000000000000000000000000000000815260040160405180910390fd5b62002d6762004856565b8260000160109054906101000a900463ffffffff1663ffffffff168160400181815250508160000160109054906101000a900463ffffffff1663ffffffff1681606001818152505060008360000160149054906101000a90046bffffffffffffffffffffffff166bffffffffffffffffffffffff1690508086111562002e19576040517ff4d678b800000000000000000000000000000000000000000000000000000000815260040160405180910390fd5b8581039050808460000160146101000a8154816bffffffffffffffffffffffff02191690836bffffffffffffffffffffffff1602179055506000868460000160149054906101000a90046bffffffffffffffffffffffff166bffffffffffffffffffffffff16019050808460000160146101000a8154816bffffffffffffffffffffffff02191690836bffffffffffffffffffffffff16021790555062002ee1836040015162002ec8620027e6565b848162002eda5762002ed962005c95565b5b04620044cb565b83600001818152505062002f0c600285600001600b9054906101000a900460ff161660ff16620029fb565b1562002f91578773ffffffffffffffffffffffffffffffffffffffff168973ffffffffffffffffffffffffffffffffffffffff160362002f5b5782600001518360400151038360600181815250505b62002f8762002f69620027e6565b828162002f7b5762002f7a62005c95565b5b048460600151620044cb565b8360200181815250505b505062002f9d620044dc565b156200326f57600062002fc8826040015162002fc284600001518560200151620044e5565b620044e5565b905062002fd581620029fb565b1562002fe257506200326f565b80826000018181510391508181525050808260200181815103915081815250508673ffffffffffffffffffffffffffffffffffffffff168873ffffffffffffffffffffffffffffffffffffffff16036200304d5780826060018181510191508181525050506200326f565b60006200305c828a8a620044f8565b905060008660080160008b73ffffffffffffffffffffffffffffffffffffffff1673ffffffffffffffffffffffffffffffffffffffff168152602001908152602001600020905060008760080160008b73ffffffffffffffffffffffffffffffffffffffff1673ffffffffffffffffffffffffffffffffffffffff1681526020019081526020016000209050620030f4868b62002876565b8560e0019063ffffffff16908163ffffffff168152505060008560600151905084810194505b60006200313684886040018051600190039081815250620027c2565b63ffffffff1690506200314b8383836200284b565b620031608a600a01828960e001518562002993565b6200316c858262004551565b6200317b8a60050182620027f6565b15620031cb57620031928a60050182600062002814565b89600401600082815260200190815260200160002060006101000a81549073ffffffffffffffffffffffffffffffffffffffff02191690555b620031d88d8d83620029d5565b508481600101915081036200311a578086606001818152508760000160106101000a81548163ffffffff021916908363ffffffff16021790555085604001518860000160106101000a81548163ffffffff021916908363ffffffff16021790555062003269848a60010160009054906101000a900473ffffffffffffffffffffffffffffffffffffffff1662004561565b50505050505b806000015181602001518560000160109054906101000a900463ffffffff1663ffffffff16010381608001818152505080608001518460000160106101000a81548163ffffffff021916908363ffffffff160217905550600084600a0190506000620032e5836020015184600001510162004596565b905085600001600c9054906101000a900463ffffffff1683610120019063ffffffff16908163ffffffff1681525050600083600001511462003536576200332f818a6001620045c3565b60006200336b84608001518860000160149054906101000a90046bffffffffffffffffffffffff166bffffffffffffffffffffffff16620045d3565b905060008760080160008c73ffffffffffffffffffffffffffffffffffffffff1673ffffffffffffffffffffffffffffffffffffffff1681526020019081526020016000209050600085604001519050856000015181038660a001818152508860000160106101000a81548163ffffffff021916908363ffffffff160217905550600086610120015190505b60006200340c848460019003945084620027c2565b63ffffffff16905062003423878260008062002993565b6200342f8682620045e2565b62003439620045fb565b156200345157620034508b60060182600062002814565b5b84156200347557620034748b6009018380600101945063ffffffff16836200284b565b5b620034848b60050182620027f6565b15620034d4576200349b8b60050182600062002814565b8a600401600082815260200190815260200160002060006101000a81549073ffffffffffffffffffffffffffffffffffffffff02191690555b620034e28e600083620029d5565b508660a001518203620033f757831562003531578087610120019063ffffffff16908163ffffffff168152508a600001600c6101000a81548163ffffffff021916908363ffffffff1602179055505b505050505b60008360200151146200381c576200355181896000620045c3565b60008660080160008a73ffffffffffffffffffffffffffffffffffffffff1673ffffffffffffffffffffffffffffffffffffffff1681526020019081526020016000209050620035a2858a62002876565b8460e0019063ffffffff16908163ffffffff16815250506000620035c5620027e6565b8860000160149054906101000a90046bffffffffffffffffffffffff166bffffffffffffffffffffffff168162003601576200360062005c95565b5b0490506200362a8860000160049054906101000a900463ffffffff1663ffffffff168262004604565b85610100018181525050600085606001519050856020015181018660c001818152508760000160106101000a81548163ffffffff021916908363ffffffff16021790555060008960000160089054906101000a900463ffffffff1690505b600087610120015163ffffffff168263ffffffff1614620036cc57620036be8b6009018380600101945063ffffffff16620027c2565b63ffffffff1690506200375e565b87610100015190505b6000620036ed88620036e784620027b2565b620027c2565b63ffffffff1614620037445762003703620045fb565b6200371d5762003717600182018562004604565b6200373c565b6200373b620037348c600601600184018762004618565b8562004604565b5b9050620036d5565b62003753600182018562004604565b886101000181815250505b62003768620045fb565b1562003780576200377f8b60060182600162002814565b5b6200378d8584836200284b565b620037a587828a60e001518680600101975062002993565b620037b18682620045e2565b620037bf60008e83620029d5565b508660c0015182036200368857808a60000160086101000a81548163ffffffff021916908363ffffffff1602179055508661010001518a60000160046101000a81548163ffffffff021916908363ffffffff160217905550505050505b6000816040015151146200385b576200385a818760010160009054906101000a900473ffffffffffffffffffffffffffffffffffffffff1662004728565b5b5050846000528560601b60601c8760601b60601c7fddf252ad1be2c89b69c2b068fc378daa952ba7f163c4a11628f55a4df523b3ef60206000a350505050505050565b60006202a300905090565b6000813b9050919050565b6000620038c1836200440c565b90508115156000600283600001600b9054906101000a900460ff161660ff1614151515146200391b57600281600001600b8282829054906101000a900460ff161892506101000a81548160ff021916908360ff1602179055505b8115156000528260601b60601c7fb5a1de456fff688115a4f75380060c23c8532d14ff85f687cc871456d642039360206000a2505050565b60003860003847855af1620039705763b12d13eb6000526004601cfd5b50565b600073ffffffffffffffffffffffffffffffffffffffff168273ffffffffffffffffffffffffffffffffffffffff1603620039da576040517fea553b3400000000000000000000000000000000000000000000000000000000815260040160405180910390fd5b6000620039e7836200440c565b90506000620039f562000c8b565b9050600073ffffffffffffffffffffffffffffffffffffffff168160010160009054906101000a900473ffffffffffffffffffffffffffffffffffffffff1673ffffffffffffffffffffffffffffffffffffffff160362003a82576040517f40739bf000000000000000000000000000000000000000000000000000000000815260040160405180910390fd5b62003a8c620048b5565b6000848460000160149054906101000a90046bffffffffffffffffffffffff166bffffffffffffffffffffffff16019050808460000160146101000a8154816bffffffffffffffffffffffff02191690836bffffffffffffffffffffffff16021790555062003afa620027e6565b818162003b0c5762003b0b62005c95565b5b0482604001818152505050600080858460000160149054906101000a90046bffffffffffffffffffffffff166bffffffffffffffffffffffff16019050808460000160146101000a8154816bffffffffffffffffffffffff02191690836bffffffffffffffffffffffff160217905550600062003b9362003b8d836200476a565b6200135e565b9050600062003ba48884106200135e565b82171462003bde576040517fe5cfe95700000000000000000000000000000000000000000000000000000000815260040160405180910390fd5b62003be8620027e6565b828162003bfa5762003bf962005c95565b5b049250505062003c21600285600001600b9054906101000a900460ff161660ff16620029fb565b1562003f8b5760008360080160008873ffffffffffffffffffffffffffffffffffffffff1673ffffffffffffffffffffffffffffffffffffffff1681526020019081526020016000209050600084600a01905060008660000160109054906101000a900463ffffffff1663ffffffff169050600062003caf62003ca9876040015184620044cb565b62004596565b905060008160400151511462003f865762003ccd818b6000620045c3565b8060400151518760000160108282829054906101000a900463ffffffff160192506101000a81548163ffffffff021916908363ffffffff16021790555085604001518860000160106101000a81548163ffffffff021916908363ffffffff16021790555062003d3d888b62002876565b866060019063ffffffff16908163ffffffff168152505060008760000160089054906101000a900463ffffffff16905087600001600c9054906101000a900463ffffffff16876020019063ffffffff16908163ffffffff168152505062003dbf8860000160049054906101000a900463ffffffff1663ffffffff168762004604565b8760000181815250505b6000876020015163ffffffff168263ffffffff161462003e0c5762003dfe896009018380600101945063ffffffff16620027c2565b63ffffffff16905062003e9c565b876000015190505b600062003e2c8662003e2684620027b2565b620027c2565b63ffffffff161462003e835762003e42620045fb565b62003e5c5762003e56600182018862004604565b62003e7b565b62003e7a62003e738a600601600184018a62004618565b8862004604565b5b905062003e14565b62003e92600182018862004604565b8860000181815250505b62003ea6620045fb565b1562003ebe5762003ebd8960060182600162002814565b5b62003ecb8685836200284b565b62003ee385828a606001518780600101985062002993565b62003eef8382620045e2565b62003efd60008d83620029d5565b508660400151830362003dc95786600001518860000160046101000a81548163ffffffff021916908363ffffffff160217905550808860000160086101000a81548163ffffffff021916908363ffffffff16021790555062003f84828960010160009054906101000a900473ffffffffffffffffffffffffffffffffffffffff1662004728565b505b505050505b846000528560601b60601c60007fddf252ad1be2c89b69c2b068fc378daa952ba7f163c4a11628f55a4df523b3ef60206000a3505050505050565b62003fd062004791565b1562004038577fffffffffffffffffffffffffffffffffffffffffffffffffffffffff748739278160601b60601c91508181547f8be0079c531659141344cd1fd0a4f28419497f9722a3daafe3b4186f6b6457e0600080a3811560ff1b82178155506200408f565b7fffffffffffffffffffffffffffffffffffffffffffffffffffffffff748739278160601b60601c91508181547f8be0079c531659141344cd1fd0a4f28419497f9722a3daafe3b4186f6b6457e0600080a3818155505b50565b6000604051806020016040528060405180606001604052806037815260200162006d026037913981525090506000604051806060016040528061079e8152602001600781526020016001815250905060006040518060c001604052806002808111156200410457620041036200521e565b5b81526020018481526020016298968063ffffffff168152602001600063ffffffff16815260200160405180606001604052806028815260200162006cda6028913981526020018381525090506200415b8162001863565b505050565b60006040518060400160405280600d81526020017f5a652064617320436f75766573000000000000000000000000000000000000008152509050600060405180606001604052806107b28152602001600481526020016001815250905060006040518060400160405280601681526020017f3737372e3737372e3737372d37372c205353502f535000000000000000000000815250905060006040518060400160405280600e81526020017f3130382e3833322e3436332d30390000000000000000000000000000000000008152509050600084848484846040516200424690620048e9565b6200425695949392919062005d5d565b604051809103906000f08015801562004273573d6000803e3d6000fd5b50600d60006101000a81548173ffffffffffffffffffffffffffffffffffffffff021916908373ffffffffffffffffffffffffffffffffffffffff1602179055506040518060400160405280600d81526020017f5a652064612045737175696e61000000000000000000000000000000000000008152509450600060405180606001604052806107b7815260200160048152602001600181525090506040518060400160405280601681526020017f3838382e3838382e3838382d38382c204f41422f53500000000000000000000081525093506040518060400160405280600e81526020017f3231332e3238372e3833352d383800000000000000000000000000000000000081525092506001915085818585856040516200439690620048e9565b620043a695949392919062005d5d565b604051809103906000f080158015620043c3573d6000803e3d6000fd5b50600e60006101000a81548173ffffffffffffffffffffffffffffffffffffffff021916908373ffffffffffffffffffffffffffffffffffffffff160217905550505050505050565b60006200441862000c8b565b600b0160008373ffffffffffffffffffffffffffffffffffffffff1673ffffffffffffffffffffffffffffffffffffffff16815260200190815260200160002090506200447c600182600001600b9054906101000a900460ff161660ff16620029fb565b15620044c6576000600260ff166200449e6200449885620038a9565b6200135e565b029050600160ff16811782600001600b6101000a81548160ff021916908360ff160217905550505b919050565b600081830382841102905092915050565b60006001905090565b6000828210828418028318905092915050565b62004502620048f7565b60405163144027d381528360601b60601c60208201528260601b60601c604082015260608082015280608001858152806020018660051b81016040528184602001528084525050509392505050565b8151818152602081018352505050565b6020820151805160051b6084016080820360208183601c84016000885af16001825114166200458f57600081fd5b5050505050565b620045a062004911565b604051828152806020018360051b81016040528183604001528083525050919050565b808260601b176020840152505050565b60008291506000905092915050565b81518160081b6020840151178152602081018352505050565b60006001905090565b600081831183838511150217905092915050565b6000801990508360601b8360081c81018054198560ff161c8560ff161b806200467c578460081c83015b6001156200466157600183019250825419915080831182171562004642575b808311156200467a5781861960ff161b861960ff161c91505b505b80156200471e57600181190181167a1412563212c14164235266736f7425221143267a452436752676777b2aaaaaaaba69a69a6db6db6db2cb2cb2ce739ce73def7bdeffffffff820260fa1c60021b1b60fc1c60051b7e1f0d1e100c1d070f090b19131c1706010e11080a1a141802121b1503160405601f83831c63d76453e004161a811790508085850360081b179050878110878211176000038117955050505b5050509392505050565b60408201516040810363263c69d68152602080820152815160051b60440160208282601c85016000885af16001835114166200476357600082fd5b5050505050565b60008062004777620027e6565b905080830463fffffffe108360601c171515915050919050565b600090565b6040518060a0016040528060006002811115620047b857620047b76200521e565b5b815260200160608152602001600081526020016000815260200160006003811115620047e957620047e86200521e565b5b81525090565b6040518060c00160405280600060028111156200481157620048106200521e565b5b81526020016200482062004932565b8152602001600063ffffffff168152602001600063ffffffff168152602001606081526020016200485062004945565b81525090565b60405180610140016040528060008152602001600081526020016000815260200160008152602001600081526020016000815260200160008152602001600063ffffffff16815260200160008152602001600063ffffffff1681525090565b604051806080016040528060008152602001600063ffffffff16815260200160008152602001600063ffffffff1681525090565b610f0a8062005dd083390190565b604051806040016040528060008152602001606081525090565b60405180606001604052806000815260200160008152602001606081525090565b6040518060200160405280606081525090565b60405180606001604052806000815260200160008152602001600081525090565b600081519050919050565b600082825260208201905092915050565b60005b83811015620049a257808201518184015260208101905062004985565b60008484015250505050565b6000601f19601f8301169050919050565b6000620049cc8262004966565b620049d8818562004971565b9350620049ea81856020860162004982565b620049f581620049ae565b840191505092915050565b6000602082019050818103600083015262004a1c8184620049bf565b905092915050565b6000604051905090565b600080fd5b600080fd5b600073ffffffffffffffffffffffffffffffffffffffff82169050919050565b600062004a658262004a38565b9050919050565b62004a778162004a58565b811462004a8357600080fd5b50565b60008135905062004a978162004a6c565b92915050565b6000819050919050565b62004ab28162004a9d565b811462004abe57600080fd5b50565b60008135905062004ad28162004aa7565b92915050565b6000806040838503121562004af25762004af162004a2e565b5b600062004b028582860162004a86565b925050602062004b158582860162004ac1565b9150509250929050565b60008115159050919050565b62004b368162004b1f565b82525050565b600060208201905062004b53600083018462004b2b565b92915050565b62004b648162004a9d565b82525050565b600060208201905062004b81600083018462004b59565b92915050565b600080fd5b7f4e487b7100000000000000000000000000000000000000000000000000000000600052604160045260246000fd5b62004bc682620049ae565b810181811067ffffffffffffffff8211171562004be85762004be762004b8c565b5b80604052505050565b600062004bfd62004a24565b905062004c0b828262004bbb565b919050565b600080fd5b6003811062004c2357600080fd5b50565b60008135905062004c378162004c15565b92915050565b600080fd5b600080fd5b600067ffffffffffffffff82111562004c655762004c6462004b8c565b5b62004c7082620049ae565b9050602081019050919050565b82818337600083830152505050565b600062004ca362004c9d8462004c47565b62004bf1565b90508281526020810184848401111562004cc25762004cc162004c42565b5b62004ccf84828562004c7d565b509392505050565b600082601f83011262004cef5762004cee62004c3d565b5b813562004d0184826020860162004c8c565b91505092915050565b60006020828403121562004d235762004d2262004b87565b5b62004d2f602062004bf1565b9050600082013567ffffffffffffffff81111562004d525762004d5162004c10565b5b62004d608482850162004cd7565b60008301525092915050565b600063ffffffff82169050919050565b62004d878162004d6c565b811462004d9357600080fd5b50565b60008135905062004da78162004d7c565b92915050565b60006060828403121562004dc65762004dc562004b87565b5b62004dd2606062004bf1565b9050600062004de48482850162004ac1565b600083015250602062004dfa8482850162004ac1565b602083015250604062004e108482850162004ac1565b60408301525092915050565b6000610100828403121562004e365762004e3562004b87565b5b62004e4260c062004bf1565b9050600062004e548482850162004c26565b600083015250602082013567ffffffffffffffff81111562004e7b5762004e7a62004c10565b5b62004e898482850162004d0a565b602083015250604062004e9f8482850162004d96565b604083015250606062004eb58482850162004d96565b606083015250608082013567ffffffffffffffff81111562004edc5762004edb62004c10565b5b62004eea8482850162004cd7565b60808301525060a062004f008482850162004dad565b60a08301525092915050565b60006020828403121562004f255762004f2462004a2e565b5b600082013567ffffffffffffffff81111562004f465762004f4562004a33565b5b62004f548482850162004e1c565b91505092915050565b60008060006060848603121562004f795762004f7862004a2e565b5b600062004f898682870162004a86565b935050602062004f9c8682870162004a86565b925050604062004faf8682870162004ac1565b9150509250925092565b60006020828403121562004fd25762004fd162004a2e565b5b600062004fe28482850162004a86565b91505092915050565b62004ff68162004b1f565b81146200500257600080fd5b50565b600081359050620050168162004feb565b92915050565b60006020828403121562005035576200503462004a2e565b5b6000620050458482850162005005565b91505092915050565b600060ff82169050919050565b62005066816200504e565b82525050565b60006020820190506200508360008301846200505b565b92915050565b6000620050968262004a58565b9050919050565b620050a88162005089565b8114620050b457600080fd5b50565b600081359050620050c8816200509d565b92915050565b600060208284031215620050e757620050e662004a2e565b5b6000620050f784828501620050b7565b91505092915050565b6200510b8162004a58565b82525050565b600060208201905062005128600083018462005100565b92915050565b600080fd5b600080fd5b60008083601f84011262005151576200515062004c3d565b5b8235905067ffffffffffffffff8111156200517157620051706200512e565b5b60208301915083600182028301111562005190576200518f62005133565b5b9250929050565b60008060208385031215620051b157620051b062004a2e565b5b600083013567ffffffffffffffff811115620051d257620051d162004a33565b5b620051e08582860162005138565b92509250509250929050565b60006020828403121562005205576200520462004a2e565b5b6000620052158482850162004ac1565b91505092915050565b7f4e487b7100000000000000000000000000000000000000000000000000000000600052602160045260246000fd5b600381106200526157620052606200521e565b5b50565b600081905062005274826200524d565b919050565b6000620052868262005264565b9050919050565b620052988162005279565b82525050565b60048110620052b257620052b16200521e565b5b50565b6000819050620052c5826200529e565b919050565b6000620052d782620052b5565b9050919050565b620052e981620052ca565b82525050565b60006080820190506200530660008301876200528d565b62005315602083018662004b59565b62005324604083018562004b59565b620053336060830184620052de565b95945050505050565b6000806040838503121562005356576200535562004a2e565b5b6000620053668582860162004a86565b9250506020620053798582860162004a86565b9150509250929050565b6200538e8162005279565b82525050565b600081519050919050565b600082825260208201905092915050565b6000819050602082019050919050565b6000819050919050565b6000620053eb620053e5620053df8462004a38565b620053c0565b62004a38565b9050919050565b6000620053ff82620053ca565b9050919050565b60006200541382620053f2565b9050919050565b620054258162005406565b82525050565b60006200543983836200541a565b60208301905092915050565b6000602082019050919050565b60006200545f8262005394565b6200546b81856200539f565b93506200547883620053b0565b8060005b83811015620054af5781516200549388826200542b565b9750620054a08362005445565b9250506001810190506200547c565b5085935050505092915050565b620054c78162004a9d565b82525050565b620054d881620052ca565b82525050565b600060a083016000830151620054f8600086018262005383565b506020830151848203602086015262005512828262005452565b9150506040830151620055296040860182620054bc565b5060608301516200553e6060860182620054bc565b506080830151620055536080860182620054cd565b508091505092915050565b600060208201905081810360008301526200557a8184620054de565b905092915050565b6200558d8162005406565b82525050565b6000602082019050620055aa600083018462005582565b92915050565b60038110620055c457620055c36200521e565b5b50565b6000819050620055d782620055b0565b919050565b6000620055e982620055c7565b9050919050565b620055fb81620055dc565b82525050565b600082825260208201905092915050565b60006200561f8262004966565b6200562b818562005601565b93506200563d81856020860162004982565b6200564881620049ae565b840191505092915050565b6000602083016000830151848203600086015262005672828262005612565b9150508091505092915050565b6200568a8162004d6c565b82525050565b606082016000820151620056a86000850182620054bc565b506020820151620056bd6020850182620054bc565b506040820151620056d26040850182620054bc565b50505050565b600061010083016000830151620056f36000860182620055f0565b50602083015184820360208601526200570d828262005653565b91505060408301516200572460408601826200567f565b5060608301516200573960608601826200567f565b506080830151848203608086015262005753828262005612565b91505060a08301516200576a60a086018262005690565b508091505092915050565b60006020820190508181036000830152620057918184620056d8565b905092915050565b7f4e487b7100000000000000000000000000000000000000000000000000000000600052602260045260246000fd5b60006002820490506001821680620057e157607f821691505b602082108103620057f757620057f662005799565b5b50919050565b600081905092915050565b60008190508160005260206000209050919050565b600081546200582c81620057c8565b620058388186620057fd565b945060018216600081146200585657600181146200586c57620058a3565b60ff1983168652811515820286019350620058a3565b620058778562005808565b60005b838110156200589b578154818901526001820191506020810190506200587a565b838801955050505b50505092915050565b6000620058b98262004966565b620058c58185620057fd565b9350620058d781856020860162004982565b80840191505092915050565b6000620058f182856200581d565b9150620058ff8284620058ac565b91508190509392505050565b60006020601f8301049050919050565b600082821b905092915050565b6000600883026200595a7fffffffffffffffffffffffffffffffffffffffffffffffffffffffffffffffff826200591b565b6200596686836200591b565b95508019841693508086168417925050509392505050565b60006200599f62005999620059938462004a9d565b620053c0565b62004a9d565b9050919050565b6000819050919050565b620059bb836200597e565b620059d3620059ca82620059a6565b84845462005928565b825550505050565b600090565b620059ea620059db565b620059f7818484620059b0565b505050565b5b8181101562005a1f5762005a13600082620059e0565b600181019050620059fd565b5050565b601f82111562005a6e5762005a388162005808565b62005a43846200590b565b8101602085101562005a53578190505b62005a6b62005a62856200590b565b830182620059fc565b50505b505050565b600082821c905092915050565b600062005a936000198460080262005a73565b1980831691505092915050565b600062005aae838362005a80565b9150826002028217905092915050565b62005ac98262004966565b67ffffffffffffffff81111562005ae55762005ae462004b8c565b5b62005af18254620057c8565b62005afe82828562005a23565b600060209050601f83116001811462005b36576000841562005b21578287015190505b62005b2d858262005aa0565b86555062005b9d565b601f19841662005b468662005808565b60005b8281101562005b705784890151825560018201915060208501945060208101905062005b49565b8683101562005b90578489015162005b8c601f89168262005a80565b8355505b6001600288020188555050505b505050505050565b600082905092915050565b62005bbc838362005ba5565b67ffffffffffffffff81111562005bd85762005bd762004b8c565b5b62005be48254620057c8565b62005bf182828562005a23565b6000601f83116001811462005c25576000841562005c10578287013590505b62005c1c858262005aa0565b86555062005c8c565b601f19841662005c358662005808565b60005b8281101562005c5f5784890135825560018201915060208501945060208101905062005c38565b8683101562005c7f578489013562005c7b601f89168262005a80565b8355505b6001600288020188555050505b50505050505050565b7f4e487b7100000000000000000000000000000000000000000000000000000000600052601260045260246000fd5b60608201600082015162005cdc6000850182620054bc565b50602082015162005cf16020850182620054bc565b50604082015162005d066040850182620054bc565b50505050565b6004811062005d205762005d1f6200521e565b5b50565b600081905062005d338262005d0c565b919050565b600062005d458262005d23565b9050919050565b62005d578162005d38565b82525050565b600060e082019050818103600083015262005d798188620049bf565b905062005d8a602083018762005cc4565b818103608083015262005d9e8186620049bf565b905081810360a083015262005db48185620049bf565b905062005dc560c083018462005d4c565b969550505050505056fe60806040523480156200001157600080fd5b5060405162000f0a38038062000f0a833981810160405281019062000037919062000333565b846001908162000048919062000659565b5083600260008201518160000155602082015181600101556040820151816002015590505082600590816200007e919062000659565b50816006908162000090919062000659565b5080600760006101000a81548160ff02191690836003811115620000b957620000b862000740565b5b021790555050505050506200076f565b6000604051905090565b600080fd5b600080fd5b600080fd5b600080fd5b6000601f19601f8301169050919050565b7f4e487b7100000000000000000000000000000000000000000000000000000000600052604160045260246000fd5b6200013282620000e7565b810181811067ffffffffffffffff82111715620001545762000153620000f8565b5b80604052505050565b600062000169620000c9565b905062000177828262000127565b919050565b600067ffffffffffffffff8211156200019a5762000199620000f8565b5b620001a582620000e7565b9050602081019050919050565b60005b83811015620001d2578082015181840152602081019050620001b5565b60008484015250505050565b6000620001f5620001ef846200017c565b6200015d565b905082815260208101848484011115620002145762000213620000e2565b5b62000221848285620001b2565b509392505050565b600082601f830112620002415762000240620000dd565b5b815162000253848260208601620001de565b91505092915050565b600080fd5b6000819050919050565b620002768162000261565b81146200028257600080fd5b50565b60008151905062000296816200026b565b92915050565b600060608284031215620002b557620002b46200025c565b5b620002c160606200015d565b90506000620002d38482850162000285565b6000830152506020620002e98482850162000285565b6020830152506040620002ff8482850162000285565b60408301525092915050565b600481106200031957600080fd5b50565b6000815190506200032d816200030b565b92915050565b600080600080600060e08688031215620003525762000351620000d3565b5b600086015167ffffffffffffffff811115620003735762000372620000d8565b5b620003818882890162000229565b955050602062000394888289016200029c565b945050608086015167ffffffffffffffff811115620003b857620003b7620000d8565b5b620003c68882890162000229565b93505060a086015167ffffffffffffffff811115620003ea57620003e9620000d8565b5b620003f88882890162000229565b92505060c06200040b888289016200031c565b9150509295509295909350565b600081519050919050565b7f4e487b7100000000000000000000000000000000000000000000000000000000600052602260045260246000fd5b600060028204905060018216806200046b57607f821691505b60208210810362000481576200048062000423565b5b50919050565b60008190508160005260206000209050919050565b60006020601f8301049050919050565b600082821b905092915050565b600060088302620004eb7fffffffffffffffffffffffffffffffffffffffffffffffffffffffffffffffff82620004ac565b620004f78683620004ac565b95508019841693508086168417925050509392505050565b6000819050919050565b60006200053a620005346200052e8462000261565b6200050f565b62000261565b9050919050565b6000819050919050565b620005568362000519565b6200056e620005658262000541565b848454620004b9565b825550505050565b600090565b6200058562000576565b620005928184846200054b565b505050565b5b81811015620005ba57620005ae6000826200057b565b60018101905062000598565b5050565b601f8211156200060957620005d38162000487565b620005de846200049c565b81016020851015620005ee578190505b62000606620005fd856200049c565b83018262000597565b50505b505050565b600082821c905092915050565b60006200062e600019846008026200060e565b1980831691505092915050565b60006200064983836200061b565b9150826002028217905092915050565b620006648262000418565b67ffffffffffffffff81111562000680576200067f620000f8565b5b6200068c825462000452565b62000699828285620005be565b600060209050601f831160018114620006d15760008415620006bc578287015190505b620006c885826200063b565b86555062000738565b601f198416620006e18662000487565b60005b828110156200070b57848901518255600182019150602085019450602081019050620006e4565b868310156200072b578489015162000727601f8916826200061b565b8355505b6001600288020188555050505b505050505050565b7f4e487b7100000000000000000000000000000000000000000000000000000000600052602160045260246000fd5b61078b806200077f6000396000f3fe608060405234801561001057600080fd5b50600436106100935760003560e01c8063aa9f262b11610066578063aa9f262b14610110578063bb05c30e14610130578063d1d3c97c1461014c578063e30081a01461016a578063f8cd32b21461018657610093565b80630663f2411461009857806337863fcb146100b65780638d6e0e12146100d45780638e3d5599146100f2575b600080fd5b6100a06101a4565b6040516100ad91906104a8565b60405180910390f35b6100be610232565b6040516100cb91906104a8565b60405180910390f35b6100dc6102c0565b6040516100e9919061050b565b60405180910390f35b6100fa6102e9565b604051610107919061059d565b60405180910390f35b6101186102fc565b604051610127939291906105d1565b60405180910390f35b61014a60048036038101906101459190610645565b610314565b005b610154610330565b6040516101619190610681565b60405180910390f35b610184600480360381019061017f91906106c8565b610346565b005b61018e61038a565b60405161019b91906104a8565b60405180910390f35b600680546101b190610724565b80601f01602080910402602001604051908101604052809291908181526020018280546101dd90610724565b801561022a5780601f106101ff5761010080835404028352916020019161022a565b820191906000526020600020905b81548152906001019060200180831161020d57829003601f168201915b505050505081565b6001805461023f90610724565b80601f016020809104026020016040519081016040528092919081815260200182805461026b90610724565b80156102b85780601f1061028d576101008083540402835291602001916102b8565b820191906000526020600020905b81548152906001019060200180831161029b57829003601f168201915b505050505081565b60008060019054906101000a900473ffffffffffffffffffffffffffffffffffffffff16905090565b600760009054906101000a900460ff1681565b60028060000154908060010154908060020154905083565b806000806101000a81548160ff02191690831515021790555050565b60008060009054906101000a900460ff16905090565b80600060016101000a81548173ffffffffffffffffffffffffffffffffffffffff021916908373ffffffffffffffffffffffffffffffffffffffff16021790555050565b6005805461039790610724565b80601f01602080910402602001604051908101604052809291908181526020018280546103c390610724565b80156104105780601f106103e557610100808354040283529160200191610410565b820191906000526020600020905b8154815290600101906020018083116103f357829003601f168201915b505050505081565b600081519050919050565b600082825260208201905092915050565b60005b83811015610452578082015181840152602081019050610437565b60008484015250505050565b6000601f19601f8301169050919050565b600061047a82610418565b6104848185610423565b9350610494818560208601610434565b61049d8161045e565b840191505092915050565b600060208201905081810360008301526104c2818461046f565b905092915050565b600073ffffffffffffffffffffffffffffffffffffffff82169050919050565b60006104f5826104ca565b9050919050565b610505816104ea565b82525050565b600060208201905061052060008301846104fc565b92915050565b7f4e487b7100000000000000000000000000000000000000000000000000000000600052602160045260246000fd5b6004811061056657610565610526565b5b50565b600081905061057782610555565b919050565b600061058782610569565b9050919050565b6105978161057c565b82525050565b60006020820190506105b2600083018461058e565b92915050565b6000819050919050565b6105cb816105b8565b82525050565b60006060820190506105e660008301866105c2565b6105f360208301856105c2565b61060060408301846105c2565b949350505050565b600080fd5b60008115159050919050565b6106228161060d565b811461062d57600080fd5b50565b60008135905061063f81610619565b92915050565b60006020828403121561065b5761065a610608565b5b600061066984828501610630565b91505092915050565b61067b8161060d565b82525050565b60006020820190506106966000830184610672565b92915050565b6106a5816104ea565b81146106b057600080fd5b50565b6000813590506106c28161069c565b92915050565b6000602082840312156106de576106dd610608565b5b60006106ec848285016106b3565b91505092915050565b7f4e487b7100000000000000000000000000000000000000000000000000000000600052602260045260246000fd5b6000600282049050600182168061073c57607f821691505b60208210810361074f5761074e6106f5565b5b5091905056fea2646970667358221220c980a881b83ac81c31d3baca3b253dd05085ece8fa590b4681b2f7b4664cc66564736f6c6343000818003374657272656e6f2061206265697261206d6172206e6120507261696120646520537572666973746152756120412c2031302c2050726169612064652053757266697374612c20556261747562612028535029204345502031303737372d3737a26469706673582212206a94c0735b17941ebe0eb55cb6deba056f1df3f3967aed8cd731ebf07bc7dafe64736f6c6343000818003360806040523480156200001157600080fd5b50604051620015da380380620015da83398181016040528101906200003791906200010b565b80620000486200009060201b60201c565b60010160006101000a81548173ffffffffffffffffffffffffffffffffffffffff021916908373ffffffffffffffffffffffffffffffffffffffff160217905550506200013d565b6000683602298b8c10b01230905090565b600080fd5b600073ffffffffffffffffffffffffffffffffffffffff82169050919050565b6000620000d382620000a6565b9050919050565b620000e581620000c6565b8114620000f157600080fd5b50565b6000815190506200010581620000da565b92915050565b600060208284031215620001245762000123620000a1565b5b60006200013484828501620000f4565b91505092915050565b61148d806200014d6000396000f3fe60806040526004361061010d5760003560e01c80636cef16e61161009557806397e5311c1161006457806397e5311c1461078e578063a22cb465146107b9578063b88d4fde146107e2578063c87b56dd146107fe578063e985e9c51461083b57610121565b80636cef16e6146106d057806370a08231146106fb5780638da5cb5b1461073857806395d89b411461076357610121565b806318160ddd116100dc57806318160ddd146105f357806323b872dd1461061e578063243598791461063a57806342842e0e146106775780636352211e1461069357610121565b806301ffc9a71461053257806306fdde031461056f578063081812fc1461059a578063095ea7b3146105d757610121565b36610121576000341461011f57600080fd5b005b600061012b610878565b9050600060e061013b6000610889565b901c905063263c69d68103610241578160000160009054906101000a900473ffffffffffffffffffffffffffffffffffffffff1673ffffffffffffffffffffffffffffffffffffffff163373ffffffffffffffffffffffffffffffffffffffff16146101d3576040517f363cb31200000000000000000000000000000000000000000000000000000000815260040160405180910390fd5b600435602401602081033560051b81015b8082146102365781358060601c816001168260a01b60a81c811583028284027fddf252ad1be2c89b69c2b068fc378daa952ba7f163c4a11628f55a4df523b3ef600038a45050508160200191506101e4565b600160005260206000f35b63144027d38103610332578160000160009054906101000a900473ffffffffffffffffffffffffffffffffffffffff1673ffffffffffffffffffffffffffffffffffffffff163373ffffffffffffffffffffffffffffffffffffffff16146102d5576040517f363cb31200000000000000000000000000000000000000000000000000000000815260040160405180910390fd5b600435602435604435602401602081033560051b81015b80821461032757813583857fddf252ad1be2c89b69c2b068fc378daa952ba7f163c4a11628f55a4df523b3ef600038a48160200191506102ec565b600160005260206000f35b630f4599e5810361050057600073ffffffffffffffffffffffffffffffffffffffff168260010160009054906101000a900473ffffffffffffffffffffffffffffffffffffffff1673ffffffffffffffffffffffffffffffffffffffff1614610428578160010160009054906101000a900473ffffffffffffffffffffffffffffffffffffffff1673ffffffffffffffffffffffffffffffffffffffff166103da6004610889565b73ffffffffffffffffffffffffffffffffffffffff1614610427576040517fc59ec47a00000000000000000000000000000000000000000000000000000000815260040160405180910390fd5b5b600073ffffffffffffffffffffffffffffffffffffffff168260000160009054906101000a900473ffffffffffffffffffffffffffffffffffffffff1673ffffffffffffffffffffffffffffffffffffffff16146104b2576040517fbf656a4600000000000000000000000000000000000000000000000000000000815260040160405180910390fd5b338260000160006101000a81548173ffffffffffffffffffffffffffffffffffffffff021916908373ffffffffffffffffffffffffffffffffffffffff160217905550600160005260206000f35b6040517f3c10b94e00000000000000000000000000000000000000000000000000000000815260040160405180910390fd5b34801561053e57600080fd5b5061055960048036038101906105549190610fd4565b610894565b604051610566919061101c565b60405180910390f35b34801561057b57600080fd5b506105846108b9565b60405161059191906110c7565b60405180910390f35b3480156105a657600080fd5b506105c160048036038101906105bc919061111f565b6108cf565b6040516105ce919061118d565b60405180910390f35b6105f160048036038101906105ec91906111d4565b6108e8565b005b3480156105ff57600080fd5b5061060861096e565b6040516106159190611223565b60405180910390f35b6106386004803603810190610633919061123e565b610985565b005b34801561064657600080fd5b50610661600480360381019061065c919061111f565b610a14565b60405161066e919061118d565b60405180910390f35b610691600480360381019061068c919061123e565b610a2d565b005b34801561069f57600080fd5b506106ba60048036038101906106b5919061111f565b610a67565b6040516106c7919061118d565b60405180910390f35b3480156106dc57600080fd5b506106e5610a80565b6040516106f2919061101c565b60405180910390f35b34801561070757600080fd5b50610722600480360381019061071d9190611291565b610bc3565b60405161072f9190611223565b60405180910390f35b34801561074457600080fd5b5061074d610bf2565b60405161075a919061118d565b60405180910390f35b34801561076f57600080fd5b50610778610c25565b60405161078591906110c7565b60405180910390f35b34801561079a57600080fd5b506107a3610c3b565b6040516107b0919061118d565b60405180910390f35b3480156107c557600080fd5b506107e060048036038101906107db91906112ea565b610cd4565b005b6107fc60048036038101906107f7919061138f565b610d59565b005b34801561080a57600080fd5b506108256004803603810190610820919061111f565b610dca565b60405161083291906110c7565b60405180910390f35b34801561084757600080fd5b50610862600480360381019061085d9190611417565b610de1565b60405161086f919061101c565b60405180910390f35b6000683602298b8c10b01230905090565b600081359050919050565b60008160e01c635b5e139f81146380ac58cd82146301ffc9a783141717915050919050565b60606108ca6306fdde036000610e29565b905090565b60006108e163081812fc836000610e8f565b9050919050565b60006108f2610c3b565b90508260601b60601c925060405163d10b6e0c600052836020528260405233606052602060006064601c34865af1601f3d1116610932573d6000823e3d81fd5b8060405260006060528284600c5160601c7f8c5be1e5ebec7d5bd14f71427d1e84f3dd0314c0f7b2291e5b200ac8c7c3b925600038a450505050565b600061098063e2c79281600080610e8f565b905090565b600061098f610c3b565b90508360601b60601c93508260601b60601c925060405163e5eb36c881528460208201528360408201528260608201523360808201526020816084601c840134865af16001825114166109e5573d6000823e3d81fd5b8284867fddf252ad1be2c89b69c2b068fc378daa952ba7f163c4a11628f55a4df523b3ef600038a45050505050565b6000610a266324359879836000610e8f565b9050919050565b610a38838383610985565b610a4182610eda565b15610a6257610a6183838360405180602001604052806000815250610ee5565b5b505050565b6000610a79636352211e836000610e8f565b9050919050565b6000806000610a8d610c3b565b9050638da5cb5b600052602060006004601c845afa80601f3d1116600c5160601c029250506000610abc610878565b905060008160020160009054906101000a900473ffffffffffffffffffffffffffffffffffffffff1690508373ffffffffffffffffffffffffffffffffffffffff168173ffffffffffffffffffffffffffffffffffffffff1614610bb857838260020160006101000a81548173ffffffffffffffffffffffffffffffffffffffff021916908373ffffffffffffffffffffffffffffffffffffffff1602179055508373ffffffffffffffffffffffffffffffffffffffff168173ffffffffffffffffffffffffffffffffffffffff167f8be0079c531659141344cd1fd0a4f28419497f9722a3daafe3b4186f6b6457e060405160405180910390a35b600194505050505090565b6000610beb63f5b100ea8373ffffffffffffffffffffffffffffffffffffffff166000610e8f565b9050919050565b6000610bfc610878565b60020160009054906101000a900473ffffffffffffffffffffffffffffffffffffffff16905090565b6060610c366395d89b416000610e29565b905090565b6000610c45610878565b60000160009054906101000a900473ffffffffffffffffffffffffffffffffffffffff169050600073ffffffffffffffffffffffffffffffffffffffff168173ffffffffffffffffffffffffffffffffffffffff1603610cd1576040517f5b2a47ae00000000000000000000000000000000000000000000000000000000815260040160405180910390fd5b90565b6000610cde610c3b565b90508260601b60601c925060405163813500fc6000528360205282151560405233606052602060006064601c34865af160016000511416610d22573d6000823e3d81fd5b83337f17307eab39ab6107e8899845ad3d59bd9653f200f220920489ca2b5937696c3160206040a380604052600060605250505050565b610d64858585610985565b610d6d84610eda565b15610dc357610dc285858585858080601f016020809104026020016040519081016040528093929190818152602001838380828437600081840152601f19601f82011690508083019250505050505050610ee5565b5b5050505050565b6060610dda63c87b56dd83610e29565b9050919050565b600080610e1f63e985e9c58573ffffffffffffffffffffffffffffffffffffffff168573ffffffffffffffffffffffffffffffffffffffff16610e8f565b1415905092915050565b60606000610e35610c3b565b9050604051915083600052826020526000806024601c845afa610e5b573d6000833e3d82fd5b60206000803e6020600051833e8151602060005101602084013e815160208301016000815260208101604052505092915050565b600080610e9a610c3b565b9050604051856000528460205283604052602060006044601c855afa601f3d1116610ec8573d6000823e3d81fd5b80604052600051925050509392505050565b6000813b9050919050565b60405163150b7a028082523360208301528560601b60601c604083015283606083015260808083015282518060a08401528015610f2c578060c08401826020870160045afa505b60208360a48301601c860160008a5af1610f50573d15610f4f573d6000843e3d83fd5b5b8160e01b835114610f695763d1a57ed66000526004601cfd5b50505050505050565b600080fd5b600080fd5b60007fffffffff0000000000000000000000000000000000000000000000000000000082169050919050565b610fb181610f7c565b8114610fbc57600080fd5b50565b600081359050610fce81610fa8565b92915050565b600060208284031215610fea57610fe9610f72565b5b6000610ff884828501610fbf565b91505092915050565b60008115159050919050565b61101681611001565b82525050565b6000602082019050611031600083018461100d565b92915050565b600081519050919050565b600082825260208201905092915050565b60005b83811015611071578082015181840152602081019050611056565b60008484015250505050565b6000601f19601f8301169050919050565b600061109982611037565b6110a38185611042565b93506110b3818560208601611053565b6110bc8161107d565b840191505092915050565b600060208201905081810360008301526110e1818461108e565b905092915050565b6000819050919050565b6110fc816110e9565b811461110757600080fd5b50565b600081359050611119816110f3565b92915050565b60006020828403121561113557611134610f72565b5b60006111438482850161110a565b91505092915050565b600073ffffffffffffffffffffffffffffffffffffffff82169050919050565b60006111778261114c565b9050919050565b6111878161116c565b82525050565b60006020820190506111a2600083018461117e565b92915050565b6111b18161116c565b81146111bc57600080fd5b50565b6000813590506111ce816111a8565b92915050565b600080604083850312156111eb576111ea610f72565b5b60006111f9858286016111bf565b925050602061120a8582860161110a565b9150509250929050565b61121d816110e9565b82525050565b60006020820190506112386000830184611214565b92915050565b60008060006060848603121561125757611256610f72565b5b6000611265868287016111bf565b9350506020611276868287016111bf565b92505060406112878682870161110a565b9150509250925092565b6000602082840312156112a7576112a6610f72565b5b60006112b5848285016111bf565b91505092915050565b6112c781611001565b81146112d257600080fd5b50565b6000813590506112e4816112be565b92915050565b6000806040838503121561130157611300610f72565b5b600061130f858286016111bf565b9250506020611320858286016112d5565b9150509250929050565b600080fd5b600080fd5b600080fd5b60008083601f84011261134f5761134e61132a565b5b8235905067ffffffffffffffff81111561136c5761136b61132f565b5b60208301915083600182028301111561138857611387611334565b5b9250929050565b6000806000806000608086880312156113ab576113aa610f72565b5b60006113b9888289016111bf565b95505060206113ca888289016111bf565b94505060406113db8882890161110a565b935050606086013567ffffffffffffffff8111156113fc576113fb610f77565b5b61140888828901611339565b92509250509295509295909350565b6000806040838503121561142e5761142d610f72565b5b600061143c858286016111bf565b925050602061144d858286016111bf565b915050925092905056fea264697066735822122074cdcf2d5e8b91cb012e15222cc273e4d72ce140835cc396f6fc145604e12f2964736f6c63430008180033",
  "linkReferences": {},
  "deployedLinkReferences": {}
}